:100000000C94D9030C9401040C9401040C94010485
:100010000C9401040C9401040C9401040C9401044C
:100020000C9401040C9401040C9401040C9401043C
:100030000C9401040C9401040C9401040C9401042C
:100040000C94E8110C9401040C9401040C94010428
:100050000C9401040C9401040C9401040C9401040C
:100060000C9432120C9401040000000023002600BE
:10007000290000000000240027002A0000000000E2
:10008000250028002B0004040404040404040202D4
:100090000202020203030303030301020408102007
:1000A0004080010204081020010204081020000012
:1000B0000008000201000003040700000000000027
:1000C00000005F0002020304030504050C00FE07A4
:1000D000FE08FF0139028503AC2005006A072107ED
:1000E000394367A80022079B56275901230B354245
:1000F000AF1AAA4C69A80A240D4D3E37AF4AE59DB8
:1001000054B5230025093D4247CEDC3905260C3D78
:10011000422FA79872956454012705195767280A3A
:10012000CB3E37C514EB9803290BCB3E27C71CAB3E
:100130009822002A0A3D42B7AA765ECD082B0A2DE6
:100140004637A3386446112C071B3E4F8D042D06FD
:100150000D4E67082E06924267042F0C3D421FE5A4
:100160008C728D7246003009BC424F45CFA40031DD
:1001700008BB422FC9AE01320A3D426FE58C727B4B
:1001800008330C3D42676894B3863A2D00340C3D29
:10019000423FCB54A6A1334A00350C3D42E74623EB
:1001A000C38C745A00360C3D4257E68C46CA3A2D31
:1001B00000370D3D4267689433CA19651401380B46
:1001C0003D426F659D56D66901390C3D426F659D74
:1001D0004646394A003A07AA4267C4113B09333EF2
:1001E000CF466A24003C07AB4637D5053D081D4A7B
:1001F000676838043E08AB46275725003F0A3D4252
:100200006FE536CA7404400C3D426F653552522387
:10021000C305410A3D426F653D46B603420C3D426F
:1002200067C42AA659C5A100430C3D426F658D32B3
:10023000CA28A705440D3D4267C42AA698628A438E
:1002400001450C3D42E746198D94514643460D3D0C
:1002500042E746198D9451461901470C3D426F659E
:100260008D328A3B2D0048093D4227DB63643B49C0
:1002700008BB4267C5AE014A0C3D427767945146C0
:100280006594004B0B3D4227CB54EA14AB1C4C0E3B
:100290003D4227A38C32CA28A38C86004D093D42DB
:1002A00027AF95B43B4E0A3D4227EBA992DC3A4F6B
:1002B000093D426F65EFB400500D3D4267A4AC8725
:1002C000CA28A38C00510A3D426F655792510552CE
:1002D0000B3D4267A4AC872AAB1C530B3D426F65B4
:1002E0000D37D46901540E3D4267C88C32CA28A329
:1002F0008C220055083D4227FB4E0B560A3D4227F3
:10030000BB5399720457093D42277B25D505580AEE
:100310003D4227EB5457B50E590C3D4227EB54672D
:10032000945146115A0A3D42676894BBD1105B084C
:10033000CB3E67C43E075C0D3D4227C38C32CC30B8
:10034000A30C035D08CB3E67F639025E071D5637E6
:10035000A73A5F060D3A670860069B562717610AA1
:100360002D426FC334741A01620C3D4227A38C46A0
:10037000CAF65000630A2D426F658D725A00640BF5
:100380003D421F659486B6D308650A2D426FE5A1EC
:10039000325C00660B3D4257567967945106670BF5
:1003A0003D3A6F653B8D8CD202680B3D4227A38C92
:1003B00046CAEE006908BB422F23D91A6A0ACC3A12
:1003C0003F63DD9649016B0C3D4227A38CB24CB3D1
:1003D000CA016C07BB4247F61A6D0A2D4247B55455
:1003E0005249156E082D422799DA0E6F092D426F7A
:1003F000653B2D00700C3D3A67A46C0F955146008B
:10040000710B3D3A6F683B8D8C320A720B2D42277F
:10041000991A65941100730A2D426F68B8E1500073
:10042000740C3D4237A338644619652875082D427F
:10043000273B950A76092D4227DBA98E0077092DE7
:1004400042275B49750178092D4227A7BAAA03798B
:100450000A3D3A27DBA96E23007A082D4267E8F6A9
:10046000107B09CB3E37C52AC73A7C06493FE701D6
:100470007D0ACB3E27C73AC52A027E091D4A2FAA0C
:1004800024130000000004FFFF00005F00020203CD
:1004900003030404050700FF06FF0600010A021615
:1004A0000307200500BD012106B1B1192922075B10
:1004B000B7495600230A2DB1AB86AA86AA002409A3
:1004C0002DB15BF54E6901250834B1C9B17700261D
:1004D000092CB18B29563105270599B719280772C0
:1004E000B153CD00290872B189A952002A076BB116
:1004F00049D56A2B0A2DB1CD280E9951042C075BE2
:10050000AF5325002D060CB519012E0652B1190165
:100510002F0724B38F6D00300873B1AB5C15003129
:100520000773B14BB235320934B15331C77204335A
:100530000A34B1193969249302340A34B18DAA1AE4
:10054000312700350A34B1197A23991400360A3458
:10055000B1537945991400370A34B11939E6982313
:1005600000380A34B15331A9289302390A34B153FF
:1005700051A69D14003A076AB11971043B0833AFC4
:10058000B3912A013C076BB14D75013D081CB319AD
:10059000198D003E076BB1C955093F0973B16BA6B0
:1005A0000C1300400934B15351DD4801410934B105
:1005B00053518E2903420A34B15971A4284702438A
:1005C0000934B15351974901440934B159D1391211
:1005D00000450934B1197AE53C02460834B1197A6C
:1005E000E51A470934B15351A79906480834B1892F
:1005F000724C33490773B159B1354A0834B16FCBE6
:10060000A4004B0A34B1892A4999CA004C0734B175
:10061000C9DD234D0934B189E38866004E0834B141
:10062000896BA9334F0934B153D1991400500A345E
:10063000B159518E943300510A3CAF53D15C49A358
:1006400000520934B159518ED40C530A34B153318C
:1006500065542605540773B159B10B550834B18957
:100660009E4901560934B189CE241500570934B189
:1006700089E6386200580A34B18932491565005953
:100680000873B1495659015A0934B11939B64700AE
:100690005B0773B119B1395C0924B3C928A38C0273
:1006A0005D0773B199CD115E0553B96B5F060CB14F
:1006B0001901600652B98901610824B11B51A902D0
:1006C000620A34B1C97945391200630623B19B59D6
:1006D000640834B1AF469469650824B15369640570
:1006E000660934B1ADCA99230067092CAF1B31A943
:1006F0008C06680834B1C9794533690873B1CB48B1
:1007000056036A097BAFCDB05415006B0934B1C9EB
:100710005592A90C6C0773B1915D036D0824B14922
:100720006948196E0724B159D10C6F0824B153518F
:10073000260570092CAF59518E940171082CAF1BFE
:1007400051A61D720824B159516700730824B11BCA
:100750001A0D05740934B1CB71E68C04750724B108
:1007600089661A760763B1495605770724B18972FD
:100770001C780824B18949AA1879092CAF893295C7
:1007800025007A0824B119B11C017B0873B14D49C9
:10079000D6017C05B1B1397D0973B1C951C51401C8
:1007A0007E0714B94B2A0100000004FFFF0000007F
:1007B000511311241FBECFEFD8E0DEBFCDBF11E033
:1007C000A0E0B1E0E4E3FFE202C005900D92AE3B91
:1007D000B107D9F728E0AEEBB1E001C01D92A83413
:1007E000B207E1F713E0C9EDD3E004C02197FE01A1
:1007F0000E948B17C83DD107C9F70E9414140C94AE
:1008000098170C940000662329F06A3019F0862F9F
:1008100090E008958FEF9FEF0895AF92BF92CF922F
:10082000DF92EF92FF920F93CF93DF93EC01DA0107
:100830007901942F9770E1E0F0E09F01092E01C04B
:10084000220F0A94EAF7522F6E018AE8C80ED11CD3
:10085000F601808140E0823018F4422F813049F166
:100860005D01F8EFAF22E8ADF9AD28813981D901FA
:1008700050968C918A9D90018B9D300D1124620FB2
:10088000731FDF01A60FB71F01111AC0EA0EFB1E6E
:100890008C91842B85278D93AE15BF05C9F7DF9109
:1008A000CF910F91FF90EF90DF90CF90BF90AF90DE
:1008B000089550E0D5CF440F550FE114F10479F3BA
:1008C0003C91342B35273C939F5F9770E1E0EE1A03
:1008D000F1089111F0CF2CAD3DADA20FB31FF60181
:1008E0008081823028F4813009F051E041E0E5CF89
:1008F00051E0E3CF80E0089590E080E0089580919A
:10090000100890911108892BA1F1809130088093F3
:100910003C084091310840933D0890913B08992351
:1009200041F1913069F490913208891714F4909351
:100930003C08809133088417E4F480933D080895BF
:1009400030912D0820912F08082E000C990B622F52
:10095000022E000C770B630F711D37FD7A958617F9
:1009600097071CF4320F30933C08241714F420939B
:100970003D0808959B01DC011896ED91FC9141E042
:1009800067E10994833081F028F4813099F0823056
:10099000A9F008958730A9F08830C9F08430B1F407
:1009A000809180008F7D03C0809180008F7780933D
:1009B0008000089584B58F7784BD089584B58F7DB8
:1009C000FBCF8091B0008F778093B0000895809125
:1009D000B0008F7DF9CF1F93CF93DF93282F30E0A6
:1009E000F901E255FF4F8491F901E656FF4FD4918A
:1009F000F901EA57FF4FC491CC23A9F0162F8111BA
:100A00000E94C204EC2FF0E0EE0FFF1FE458FF4FEE
:100A1000A591B4918FB7F894EC91111108C0D095BD
:100A2000DE23DC938FBFDF91CF911F910895DE2BE2
:100A3000F8CFCF93DF9390E0FC01E656FF4F24916F
:100A40008A579F4FFC0184918823D1F090E0880F52
:100A5000991FFC01EE58FF4FA591B491FC01E45899
:100A6000FF4FC591D491623071F49FB7F8943C91D7
:100A7000822F809583238C93E8812E2B28839FBF20
:100A8000DF91CF9108958FB7F894EC912E2B2C9392
:100A90008FBFF6CF3FB7F8948091A2039091A30344
:100AA000A091A403B091A50326B5A89B05C02F3F34
:100AB00019F00196A11DB11D3FBFBA2FA92F982F84
:100AC0008827BC01CD01620F711D811D911D42E07F
:100AD000660F771F881F991F4A95D1F708958F9247
:100AE0009F92AF92BF92CF92DF92EF92FF926B01F3
:100AF0007C010E944A054B015C01C114D104E10450
:100B0000F104B9F00E944A05681979098A099B091C
:100B1000683E73408105910580F321E0C21AD10837
:100B2000E108F10888EE880E83E0981EA11CB11C34
:100B3000E4CFFF90EF90DF90CF90BF90AF909F9069
:100B40008F90089520915102260F3327331F2132B1
:100B50003105ECF420917702FC0190E080E0243034
:100B600069F082E00895A09151022191AC01415DAC
:100B70005D4FA40FB52FB11D2C930196861798F3E6
:100B800080915102680F6093510280E0089581E0E6
:100B900008951092770281E0809379021092780292
:100BA00061E082E10E94EB0461E083E10E94EB04DA
:100BB000E9EBF0E080818E7F808380818D7F808370
:100BC00088E48093B80085E48093BC000895CF93B7
:100BD000DF9391E090932E028823B9F0C091B80082
:100BE000D091BA008091BC008A7B8093BC0060E009
:100BF00082E10E94EB0460E083E10E94EB040E942A
:100C0000C905D093BA00C093B800DF91CF91089581
:100C1000089508950895E091260280912502E8172D
:100C200030F4F0E0EB5FFD4F808190E008958FEFAE
:100C30009FEF089590912602809125022FEF3FEFBC
:100C4000981748F4E92FF0E0EB5FFD4F208130E08A
:100C50009F5F90932602C90108958091250290918B
:100C60002602891B990B0895CF92DF92EF92FF9293
:100C70000F931F93CF93DF937C01CB018A012091C7
:100C80000402222389F0EB016B01C40ED51ECC15A2
:100C9000DD0569F06991D701ED91FC910190F0813A
:100CA000E02DC7010995F3CF642F0E94A205C8016A
:100CB000DF91CF911F910F91FF90EF90DF90CF9038
:100CC0000895CF93DF931F92CDB7DEB7698320914C
:100CD00004022223F9F020912702203258F021E06B
:100CE00030E0FC013383228390E080E00F90DF91BD
:100CF000CF91089580912802E82FF0E0EC51FE4F4B
:100D0000998190838F5F809328028093270281E0EE
:100D100090E0ECCF61E0CE0101960E94A205F7CFF2
:100D2000DC011A96ED91FC9130E020E00994DC01A1
:100D30001496ED91FC9130E020E040E060E10994F0
:100D4000DC011696ED91FC9130E020E040E069E195
:100D50000994DC011696ED91FC9130E020E040E032
:100D600068E109949A01DC011696ED91FC91462FF9
:100D700067E10994EF92FF920F931F93CF93DF9354
:100D80001F92CDB7DEB77C018B01D8016C91673122
:100D900029F150F46531A0F40F90DF91CF911F91AC
:100DA0000F91FF90EF9008956A3118F16E3FA1F70F
:100DB000F8014181498369E2C7010E9490060BC096
:100DC000F80141814983D7011696ED91FC9130E0FD
:100DD00020E0C70109950E5F1F4FD7CFF801818131
:100DE0008983AE014F5F5F4F61E0C7010E94B20689
:100DF000F2CF0F5F1F4FD7011696ED91FC9130E0B7
:100E000020E040E0C7010995C0CF462FDC011696CF
:100E1000ED91FC9130E020E066E10994462FDC0181
:100E20001696ED91FC9130E020E065E10994EF9297
:100E3000FF920F931F93CF93DF93EC01042F79015F
:100E40006D3009F446C050F46B30C9F1693009F4D3
:100E50009FC06A3009F465C080E05CC06E3009F460
:100E60004BC06F3099F70E94A906F7011381110F4B
:100E7000110F110F6C89160F60E4CE010E940E074E
:100E8000612F62956F706061CE010E940E07612F25
:100E90006F70CE010E940507F7016481606BCE017F
:100EA0000E940507F701408151816281660F660F3C
:100EB000660FCE010E94B2060150A1F727C063E180
:100EC00071E0442311F06EE071E0CE010E94BA0699
:100ED00020C0411109C067E071E00E94BA06E881B4
:100EE000F98182898C8B15C060E071E00E94BA069E
:100EF000E881F9818389F6CF0E94A90661E8CE01D5
:100F00000E940E07602FCE010E940507CE010E94AD
:100F1000A00681E0DF91CF911F910F91FF90EF909C
:100F20000895EA85FB8530E020E040E068E2CE01EC
:100F30000995EE81FF8130E020E040E064E1CE01E0
:100F4000099541E06BE4CE010E949006E881F981A9
:100F5000448169E2CE010E94900640E06BE4CE013C
:100F60000E949006E881F981448169E2CE010E94E5
:100F7000900641E06BE4CE010E949006E881F98181
:100F8000458169E2CE010E94900668E171E09DCF43
:100F90008DE491E09983888382E0A4CFDC011896E8
:100FA000ED91FC9130E020E040E069E10994DC0142
:100FB0001896ED91FC9130E020E040E068E1099462
:100FC000CF93DF931F92CDB7DEB76983BE016F5F0A
:100FD0007F4F0E94BA040F90DF91CF910895EF9256
:100FE000FF921F93CF93DF93EC01162F7A010E949B
:100FF000D70760E4CE010E94E007E885F9859701F4
:10100000412F67E1CE010995CE01DF91CF911F916C
:10101000FF90EF900C94CE07EF92FF921F93CF9327
:10102000DF93EC01142F7901663181F138F46431DA
:1010300009F44BC0653179F080E022C06831C9F114
:1010400050F16931C9F78091E301882391F1CE0114
:101050000E94CE072EC08091E301882319F0CE01B3
:101060000E94CE07CE010E94D70760E0CE010E9409
:10107000E007612FCE010E94E00781E08093E30149
:10108000DF91CF911F91FF90EF900895642F0E9400
:10109000E00781E0F5CF8091E301882319F0CE01CC
:1010A0000E94CE07A701193138F4612FCE010E94AA
:1010B000EF071092E301EDCF68E1CE010E94EF0748
:1010C000185188E1E80EF11CEDCF8E898F3F11F4A5
:1010D00088E78E8BE885F9859701412F64E1CE0181
:1010E000DF91CF911F91FF90EF9009940F93FC0136
:1010F000E05CFF4F0190F081E02D4E1B5F0BDC01A7
:10110000D496ED91FC9109950F910895CF93DF93BB
:10111000FC01A081B18182AD90E09C0143E0220FEF
:10112000331F4A95E1F737AF26AF50962C91509771
:1011300048E0249F9001112435AF24AF23AD30E067
:10114000B90153E0660F771F5A95E1F7EF01C05CD4
:10115000DF4F7983688351964C915197E901C80F0D
:10116000D91F50E04C175D0718F4CA01821B930B7E
:10117000EF01CE5BDF4F79836883229623E0880FEF
:10118000991F2A95E1F7860F971F998388832296E6
:1011900054968D919C91559799838883E85BFF4F76
:1011A00056968D919C9191838083DF91CF91089584
:1011B0000F931F93FC01E25BFF4F0190F081E02D44
:1011C000DC01A05BBF4F0D90BC91A02D4A175B07BF
:1011D00040F4E017F10748F00417150730F080E0FD
:1011E00019C0E017F107C0F3FACFFC01E65BFF4F2F
:1011F00040815181845B9F4FFC0180819181681700
:10120000790758F481E04217530720F081E0261750
:10121000370728F71F910F91089542175307B0F32E
:10122000DECF2F923F924F925F926F927F928F927A
:101230009F92AF92BF92CF92DF92EF92FF920F9365
:101240001F93CF93DF93CDB7DEB72A970FB6F894ED
:10125000DEBF0FBECDBF9A878987865B9F4F9A837B
:101260008983FC0111821082E985FA85EA5BFF4FD0
:101270004080518029853A85245B3F4F3C832B83F6
:10128000F90151824082E985FA85EE5BFF4F2080AB
:10129000318029853A85225B3F4F3E832D83F901BA
:1012A00031822082E985FA85EC5BFF4F6080718096
:1012B00029853A85205B3F4F38872F83F90171825A
:1012C0006082E985FA85E85AFF4FE080F180E98580
:1012D000FA85EC5AFF4FA080B180E985FA85EA5A79
:1012E000FF4FC080D180E985FA85EE5AFF4F80809C
:1012F000918087019501A601B40189859A850E9494
:10130000D80829853A852C573F4F3A87298781117C
:101310001BC0F90110822A960FB6F894DEBF0FBEEB
:10132000CDBFDF91CF911F910F91FF90EF90DF9094
:10133000CF90BF90AF909F908F907F906F905F9075
:101340004F903F902F90089581E0E985FA85808342
:101350008114910421F0E981FA8191828082A414A0
:10136000B50420F4EB81FC81B182A0822C143D04F1
:1013700020F4ED81FE81D182C082E614F70458F694
:10138000EF81F885F182E082C6CF0F93CF93DF9390
:10139000E02FDC01AC57BF4FFC91FF2309F460C084
:1013A0002115310509F45CC02230310538F00230D6
:1013B00009F04AC06F5F7F4F621B730B0E2F0170E5
:1013C000E0FD52C0FC01E25BFF4F0190F081E02D97
:1013D0004E175F0708F444C0FC01E05BFF4F01902B
:1013E000F081E02D4E175F07D8F5FC01E45BFF4F5D
:1013F0000190F081E02DDC01A65BBF4F0D90BC9108
:10140000A02D260F371F2617370738F56E177F07D1
:1014100018F59F0121503109A217B30708F56A1783
:101420007B0708F4BD012E173F0708F4F901E61BFE
:10143000F70BEC01AEA9BFA914960D90BC91A02D9D
:101440009F01FD0109950CC0033009F0B7CF4F5F34
:101450005F4F421B530BB2CFBD016E177F07E0F207
:10146000DF91CF910F910895FC01E65BFF4F019052
:10147000F081E02D6E177F0798F3FC01E45BFF4FCE
:101480000190F081E02D6E177F0750F7FC01E05BC3
:10149000FF4F0190F081E02DDC01A25BBF4F0D906A
:1014A000BC91A02D240F351F24173507A8F44E1723
:1014B0005F0788F49F0121503109A217B30780F616
:1014C0004A175B0708F4AD012E173F0708F4F9012E
:1014D000E41BF50BAECFAD014E175F0708F6EDCF5D
:1014E0000F93209104083091050862177307F0F0FC
:1014F000209106083091070862177307B8F420910D
:101500000008309101088217930780F020910208AB
:10151000309103088217930748F4AB01BC0100E047
:1015200021E030E086EB97E00E94C5090F91089515
:101530002F923F924F925F926F927F928F929F92E3
:10154000AF92BF92CF92DF92EF92FF920F931F93D1
:10155000CF93DF937C018B016A01E9014901861A6F
:10156000970A3A01680E791EB401C3010E94700AFD
:101570005E01AE18BF0828014C0C5D1CB501C2010C
:101580000E94700A16012E183F08B401C1010E9482
:10159000700AC01AD10AB501C6010E94700A0C0F68
:1015A0001D1FB801C3010E94700ACE0DDF1DBE01D0
:1015B000C2010E94700AB801C1010E94700ABE01F6
:1015C000C601DF91CF911F910F91FF90EF90DF90B7
:1015D000CF90BF90AF909F908F907F906F905F90D3
:1015E0004F903F902F900C94700A6F927F928F9241
:1015F0009F92AF92BF92CF92DF92EF92FF920F93A2
:101600001F93CF93DF933C015B01EA018A010F5FD7
:101610001F4F060F171F9C012F5F3F4F240F351FD1
:10162000AB014C1B5D0BBC016C1B7D0B86EB97E08B
:101630000E94D808882379F101E010E00C1B1D0BF3
:10164000EE24FF24EC1AFD0AEE0CFF1C9501A30109
:10165000BE0190E080E00E94980A88248394912C37
:10166000D12CC12C17FD06C0219782E0E80EF11C99
:101670000E0D1F1D8FEFC81AD80A82E0880E911C2C
:10168000080D191D9501A301BE01C6010E94980A0B
:10169000CC16DD0638F3DF91CF911F910F91FF90AB
:1016A000EF90DF90CF90BF90AF909F908F907F9002
:1016B0006F900895213069F038F0223079F0840F6E
:1016C000911D47FD9A950895860F911D67FD9A9586
:1016D0000895841B910947FD93950895861B9109F0
:1016E00067FD93950895213069F038F0223079F044
:1016F000861B910967FD93950895840F911D47FD01
:101700009A950895860F911D67FD9A950895841BFB
:10171000910947FD939508953F924F925F926F9282
:101720007F928F929F92AF92BF92CF92DF92EF9271
:10173000FF920F931F93CF93DF937C01162F442EBC
:10174000EC01C25ADF4F5E806F806C018AE8C80EE0
:10175000D11C78847518312E711608F4372C8C80C2
:101760009D800E85202F462D652D8A819B810E94AC
:101770005A0B5C01202F462D652DC4010E94730B6E
:10178000AC01442079F08C85F6018083232D30E074
:10179000B501C7010E94C509171548F017196394D0
:1017A000512CD7CF8B858111F7CF8D85EDCF150DBE
:1017B0001E836F82DF91CF911F910F91FF90EF9069
:1017C000DF90CF90BF90AF909F908F907F906F9061
:1017D0005F904F903F900895DC011A964C911A97B4
:1017E000ED91FC911197249130E0042E02C03595C3
:1017F00027950A94E2F7842F860F883068F0319697
:101800001196FC93EE93E49198E0941B01C0EE0FC7
:101810009A95EAF72E2B88501A968C938FEF9FEFAC
:1018200001C0880F6A95EAF7809582230895FC012C
:10183000E60FF11D849190E0982F88273196E4916E
:101840008E0F911D0895CF93DF93EC01FC018491DD
:10185000809323083196E491E0932408FE013296A8
:10186000E491E0932508FE013396E491E093260885
:10187000FE013496E491E0932708FE013596E49149
:10188000E0932808FE013696E491E0932908FE01D2
:101890003796E491E0932A08FE013896E491E093AC
:1018A0002B08FE013996E491E0932C08FE013A964C
:1018B000E491E0932D08FE013B96E491E0932E081D
:1018C000FE013C96E491E0932F08FE013D96E491E1
:1018D000E0933008FE013E96E491E0933108FE016A
:1018E0003F96E491E0933208FE017096E491E09314
:1018F000330861E1CE010E94170C90933508809364
:10190000340863E1CE010E94170C9093370880934E
:10191000360865E1CE010E94170C90933908809338
:101920003808DF91CF9108954F925F926F927F9226
:101930008F929F92AF92BF92CF92DF92EF92FF92DF
:101940000F931F93CF93DF93EC016B018A01790111
:10195000FC01E459FF4F8081813009F44BC008F449
:101960003EC0823009F451C0833009F459C0FE01F1
:10197000E05AFF4FD182C08232961183008338979C
:101980008081918147962FEFE216F10411F008F063
:10199000F2C0E1E6EE16F10408F44DC0FE01E05895
:1019A000FF4F20813181820F931F9C012F5F3F4F9A
:1019B000F9014491411148C090E080E0DF91CF915E
:1019C0001F910F91FF90EF90DF90CF90BF90AF905D
:1019D0009F908F907F906F905F904F900895FE0141
:1019E000E45AFF4F0190F081E02DCE010995080FD8
:1019F000191FBDCFFE01E45AFF4F0190F081E02D89
:101A0000CE010995C81AD90AB2CFFE01E45AFF4F98
:101A10000190F081E02DCE010995081B190BA7CF8D
:101A2000FE01E45AFF4F0190F081E02DCE010995AF
:101A3000C80ED91E9CCFF1E4EF16F10408F4B5CF1F
:101A4000FE01E258FF4FADCFFC0144914E151F043B
:101A500009F08CC00296009709F4AECF7E01FEE536
:101A6000EF0EF11CF70191838083128673966081DB
:101A7000C7010E94EC0BF701808774966081C70153
:101A80000E94EC0B982EF70181875E01FAE8AF0EF9
:101A9000B11CF5019081F701948781E0911180E0FC
:101AA000F7018587FE01ED58FF4FC0806C2DC701FF
:101AB0000E94EC0B582EFE01EC58FF4FD0806D2D8C
:101AC000C7010E94EC0B482EFE01EB58FF4F10811E
:101AD000612FC7010E94EC0B9FEF910F01E010E016
:101AE000980101C0220F9A95EAF7882E821AF70111
:101AF000608416140CF0ADC0CA94C80101C0880FF0
:101B0000CA94EAF7581A7684490CDA94A80101C0FD
:101B1000440FDA94EAF7F42FF4194F2E272D4F2FA4
:101B2000652DF701828193810E945A0B6C01F701A8
:101B300093838283272D442D652D848195810E9476
:101B4000730BF70195838483F1E07F1609F485C058
:101B50007F1608F43FC022E0721609F48DC0E3E05E
:101B60007E1609F49DC0BC0196013EC0F901249186
:101B7000820F911D1ACFFE01EE57FF4F0081118198
:101B8000080F191F680160E0C6010E94170C080FBA
:101B9000191F62E0C6010E94170CF4E0CF0ED11CA1
:101BA0008E159F0580F3F801849190E0982F882787
:101BB0003196E4918E2B009709F4FECEE816F906D3
:101BC00019F4C801039647CFF8013296E4910E0F3D
:101BD000111DE9CF9601260D311D67FC3A95BC0118
:101BE000690D711D97FC7A958B01AC01B601CE0190
:101BF0000E94D808882369F1F701168217828E01A6
:101C000001591F4F6E01F0E7CF0ED11CF801608122
:101C1000C7010E94EC0B682EF6016081C7010E948B
:101C2000EC0B782E40E0662DCE010E948C0B41E03B
:101C3000672DCE010E948C0B61E0C7010E94EC0B66
:101C40008111F0CFF7018781891504F38485F501AF
:101C50008083882D880C990BB1CE0919110997FC46
:101C6000139596012F5F3F4FBC01660D711D67FCF8
:101C70007A95C00ED11EB8CFA8014619510967FC4C
:101C8000539596012F5F3F4F0919110997FC139542
:101C9000BC016F5F7F4F800F911FC40ED51EA4CF74
:101CA0009601290D311D97FC3A950619110967FC1B
:101CB0001395BC016F5F7F4F800F911F95CFCF921F
:101CC000DF92EF92FF920F931F93CF93DF93EC017C
:101CD0008B011092CE077A01D12CC12CF7016191B2
:101CE0007F01E091B807F091B90786EB97E009957D
:101CF0008F3F980719F18E3F2FEF920779F39C01E0
:101D0000A801BE0186EB97E00E94940C2091220866
:101D1000213059F038F0223059F0233061F0C80EEC
:101D2000D91EDCCFC80FD91FFACF080F191FF7CF64
:101D3000C81BD90BF4CF081B190BF1CFC601DF91DB
:101D4000CF911F910F91FF90EF90DF90CF9008956A
:101D5000CF93DF93EC016BAFEEA9FFA90190F08167
:101D6000E02D0995EEA9FFA90280F381E02DCE01B7
:101D7000DF91CF910994AF92BF92CF92DF92EF9211
:101D8000FF920F931F93CF93DF9300D000D01F9249
:101D9000CDB7DEB78C01DC01DA96AC90DA97DB9632
:101DA000EC90DB97ED91FC91B188FE2CD12CC12CED
:101DB000D801ED91FC9111978089D8962D913C9195
:101DC0001C82FD828B83B8E08B9FC00111248C9D07
:101DD000A0018D9D500D9C9D500D1124240F351F89
:101DE0003A832983D8011496ED91FC919E012F5FCF
:101DF0003F4F41E06FE0C8010995F3948F2D8E1994
:101E00008A1528F4BFEFCB1ADB0AFB1488F20F9077
:101E10000F900F900F900F90DF91CF911F910F9126
:101E2000FF90EF90DF90CF90BF90AF900895CF924A
:101E3000DF92EF92FF920F931F93CF93DF93EC010A
:101E4000962F683109F44BC0B901993130F49431BF
:101E5000C9F0973189F080E006C0993109F461C07A
:101E60009032C9F781E0DF91CF911F910F91FF90E0
:101E7000EF90DF90CF90089550E086EA93E00E94C3
:101E80003406F0CF8C859D85AE85BF85892B8A2B46
:101E90008B2B71F4E881F981A585B0E020EA36E862
:101EA00041E050E00E9410176C877D878E879F87E6
:101EB00010922602109225021092280210922702F8
:101EC0000E94C90588E096E09093500280934F02EB
:101ED00089E096E09093540280935302C3CF2C85FF
:101EE0003D854E855F8560E074E284EF90E00E945E
:101EF0001B172051310941095109569547953795CE
:101F000027952093B8008E8990E09595879591E06C
:101F1000909304028093E20110922802109227020B
:101F2000A1CFD0912702D13208F093C0C091E20135
:101F30000E944A056B017C0180917702811164C087
:101F400082E08093770281E0809379028FEF809323
:101F5000760210929B02D0939A02A4EEB1E0EAE7D7
:101F6000F2E080E0D8137CC010929C0280919C0229
:101F7000CC0FC82BC0939C0280917802813009F06D
:101F800073C0109278020E944A056B017C01809117
:101F90009C028093BB0080912A0290912B02A09119
:101FA0002C02B0912D02892B8A2B8B2B99F00E9449
:101FB0004A0500912A0210912B0220912C023091A7
:101FC0002D026C197D098E099F090617170728072E
:101FD0003907D8F18091BC0083FDD9CF85EC80937F
:101FE000BC000E944A056B017C018091770282301F
:101FF000E9F1809176028F3F61F180917602803223
:1020000041F18091760225C080912A0290912B02A5
:10201000A0912C02B0912D02892B8A2B8B2B09F4D5
:102020008BCF0E944A0500912A0210912B02209129
:102030002C0230912D026C197D098E099F0906171B
:1020400017072807390708F077CF809129020E94E7
:10205000E70510922802109227021092040202CF84
:102060009D9191938F5F7ECF85EEB9CF80912A02AB
:1020700090912B02A0912C02B0912D02892B8A2BDA
:102080008B2B09F4B2CF0E944A0500912A021091CD
:102090002B0220912C0230912D026C197D098E09A2
:1020A0009F09061717072807390708F09ECFCDCFDD
:1020B0000F931F93CF93DF93EC01862F642F8C3205
:1020C00008F03AC08A3208F060C0883209F44BC088
:1020D000893209F460C0803408F475C0982F9F736A
:1020E000FE01E90FF11D868D8F3F09F44EC090313E
:1020F00008F436C0282F30E0F901E255FF4F8491F3
:10210000F901E656FF4F0491F901EA57FF4F149188
:10211000112379F081110E94C204E12FF0E0EE0F4B
:10212000FF1FE859FF4FA591B491EC910E2381E078
:1021300009F480E0898F29C08D3299F108F4CBCF62
:1021400094EB980F923008F0C6CF8F73C80FD11D53
:102150008E8D411134C061E00E94190560E08E8DC2
:102160000E94EB0412C08E01025E1F4FD0E0F80106
:1021700081918F018F3F31F061E0D03108F062E052
:102180000E941905DF5FD63191F781E0DF91CF9191
:102190001F910F91089570E090E080E00E946F051C
:1021A000F4CF85E090E0433010F082E090E0880FBB
:1021B000991F880F991F05970197F1F7E6CF62E005
:1021C0000E941905E2CF80E0E1CFCF92DF92EF923B
:1021D000FF920F931F93CF93DF936C01EB017B0171
:1021E000E40EF51E10E000E0CE15DF0561F0699108
:1021F000D601ED91FC910190F081E02DC601099589
:10220000080F191FF1CFC801DF91CF911F910F91D6
:10221000FF90EF90DF90CF900895CF92DF92EF92F2
:10222000FF920F931F93CF93DF93EC016C0124E097
:10223000C20ED11CFC01E057FF4F0190F081E02D50
:10224000C60109958E3FEFEF9E07D8F48E010C561C
:102250001F4FF801408151817E01F2E9EF0EF11C20
:10226000F701608171819C01C6010E94940CC059E4
:10227000DF4F28812130C1F078F02230B9F02330CF
:10228000E9F081E090E0DF91CF911F910F91FF90F5
:10229000EF90DF90CF900895F70120813181820F78
:1022A000931F91838083EDCFF801F7CFF701208151
:1022B0003181281B390B31832083E3CFF801F7CF1D
:1022C000089590E080E0089585ED8093BC008091B2
:1022D0002A0290912B02A0912C02B0912D02079618
:1022E000A11DB11D23E0B695A795979587952A95D1
:1022F000D1F72091BC0024FD03C01092770208950D
:1023000040912A0250912B0260912C0270912D0273
:10231000452B462B472B69F30097A105B10541F0EA
:102320002AE22A95F1F700C00197A109B109E1CF8E
:10233000809129020C94E705FC01A081B18150969F
:102340002C9182AD38E0839FC0011124289FA00109
:10235000299F500D112470E060E080AD91AD0C9488
:1023600091171F93CF93DF93EC010E94BB0E1BAD1F
:102370008AAD180FE881F9818189181740F0CE01E4
:102380000E94970680E0DF91CF911F910895FE0192
:10239000E557FF4F8081882319F0CE010E949C11E0
:1023A000612FCE010E94A80E81E0EDCFCF93DF9385
:1023B000EC01FC01E557FF4F8081882319F0CE0125
:1023C0000E949C1160E0CE01DF91CF910C94A80E89
:1023D0001F920F920FB60F9211242F933F938F935A
:1023E0009F93AF93BF9380919E0390919F03A09181
:1023F000A003B091A10330919D0323E0230F2D375B
:1024000058F50196A11DB11D20939D0380939E0355
:1024100090939F03A093A003B093A1038091A20384
:102420009091A303A091A403B091A5030196A11DCF
:10243000B11D8093A2039093A303A093A403B09330
:10244000A503BF91AF919F918F913F912F910F90D5
:102450000FBE0F901F90189526E8230F0296A11D1E
:10246000B11DD2CF1F920F920FB60F9211242F934E
:102470003F934F935F936F937F938F939F93AF930C
:10248000BF93EF93FF938091B900887F803609F462
:102490004AC0F0F5883209F4A7C018F5803109F474
:1024A0009BC0B8F4882309F4F9C0883009F494C0BB
:1024B000FF91EF91BF91AF919F918F917F916F911C
:1024C0005F914F913F912F910F900FBE0F901F90F2
:1024D0001895883109F488C0803251F780937602CC
:1024E00014C0803409F49DC040F48033B9F38833BC
:1024F000F9F68093760285ECB0C0803509F485C08A
:10250000883509F496C0883499F60E946411D0CFBA
:10251000883909F48CC038F5883729F050F48836AA
:1025200011F0803729F683E08093770210927502CC
:1025300057C0883809F47BC0803919F0803809F019
:10254000B7CF80917502803208F071C0E0917502BA
:1025500081E08E0F809375028091BB00F0E0EB5A12
:10256000FD4F80833DC0803B39F0E0F4803A09F4B0
:1025700079C0883A09F09CCF84E08093770210926A
:10258000520210925102E0914F02F09150020995CF
:102590008091510281110FC081E08093510210920D
:1025A0002F0209C0803C09F4A6CF883C09F4A3CFD0
:1025B000883B09F07DCFE091520281E08E0F80933D
:1025C0005202F0E0E15DFD4F80818093BB0090916D
:1025D00052028091510229C080919C028093BB00DD
:1025E00085EC8093BC0064CF90919B0280919A020D
:1025F000981758F5E0919B0281E08E0F80939B0223
:10260000F0E0E658FD4F8081E9CFE0919B0281E048
:102610008E0F80939B028091BB00F0E0E658FD4F47
:10262000808390919B0280919A029817C8F285E866
:10263000D8CFE0919B0281E08E0F80939B02809126
:10264000BB00F0E0E658FD4F808380917902811154
:102650005CCF81E08093780284EA8093BC00109282
:10266000770226CF85EC8093BC0010927702809190
:102670007502803230F4E0917502F0E0EB5AFD4FC4
:1026800010826091750270E0E0915302F091540263
:1026900085E592E00995109275020ACF10927602B4
:1026A00034CFCF931092A9031092A80388EE93E041
:1026B000A0E0B0E08093AA039093AB03A093AC0397
:1026C000B093AD0389E691E09093A7038093A603AE
:1026D0001092B5071092B40783E094E090934308FA
:1026E00080934208109245081092440810924708BF
:1026F000109246081092CE078BE791E09093B307B3
:102700008093B2071092B7071092B6071092CB07CA
:102710001092C2071092C3071092C4071092C50707
:102720008FEF8093CC078093D007E4EDF7E08AEE3B
:1027300097E0CFEFC1938E179F07E1F787E197E00E
:102740009093BB078093BA078CE098E09093BD0705
:102750008093BC0787E19FE09093BF078093BE07FB
:1027600088E590E19093C1078093C00730E020E0B6
:1027700040E069E086EB97E00E941707109211088D
:10278000109210088DE094E09093EB078093EA0795
:1027900082EB93E09093EF078093EE0788E08093BD
:1027A000F0071092F10710921F0810923F08109244
:1027B0003B0881E0809340088093410883E891E0E2
:1027C0009093ED078093EC0786EB97E00E948608D4
:1027D000109209081092080810920D0810920C0827
:1027E0008FEF9FEF90930B0880930A0890930F0848
:1027F00080930E08E091EC07F091ED070280F381E1
:10280000E02D86EB97E009958CE794E09093130810
:102810008093120810922208C093DF07C093E0074C
:10282000C093E107CF910895CF93DF9300D000D0FC
:102830001F92CDB7DEB7789484B5826084BD84B52D
:10284000816084BD85B5826085BD85B5816085BDAB
:1028500080916E00816080936E0010928100809163
:1028600081008260809381008091810081608093EB
:102870008100809180008160809380008091B10010
:1028800084608093B1008091B00081608093B0003B
:1028900080917A00846080937A0080917A008260CF
:1028A00080937A0080917A00816080937A00809191
:1028B0007A00806880937A001092C100E091BA0794
:1028C000F091BB0730E020E040E06AE086EB97E063
:1028D000099586EB97E00E94D61186EB97E00E945F
:1028E000B1118111FACF60E086EB97E00E94A80E4B
:1028F000E091BA07F091BB0730E020E040E06BE0E8
:1029000086EB97E0099586EB97E00E94D61140E4AC
:10291000242E312C54E3452E512C80911008909197
:102920001108825C904059F042EC50E0509311083D
:1029300040931008CA010E94230C0E947F0483E088
:1029400094E09093B9078093B80749E851E06FE0AD
:1029500070E085E090E00E945F0EE3E0F4E0F09329
:10296000B907E093B80748E951E06EE170E085E00F
:1029700090E00E945F0E4CE050E062E370E080E483
:1029800090E00E94F50A42E050E06EE270E08BE3D6
:1029900090E00E94F50A42E050E06EE270E085E4CB
:1029A00090E00E94F50A0AE310E026E430E04FE2EE
:1029B00050E06BE370E086EB97E00E94D808882334
:1029C00009F4D5C034E0E32EF12C25E030E03B8360
:1029D0002A8310E000E03FEF309FC001319F900D4F
:1029E00011246A817B810E945C174B01770FAA0832
:1029F000BB08A50194012F5F310941095109C501A7
:102A0000B40163557C4F8F4F9F4F0E944C1723E9B1
:102A100030EC4BE050E0261B370B480B590BC5013F
:102A2000B4010E944C1723E936EA4DE550E00E94BC
:102A30001B1749015A0144EB84169104A104B10407
:102A400048F0B201601B710B8A819B81805C9F4FB3
:102A50000E94700A380150E4650E711C80E48816EB
:102A60009104A104B10440F0B201EA81FB816E1B24
:102A70007F0BC3010E94700AD501C401805C9F4F87
:102A8000AF4FBF4F843B9105A105B105D0F0B20116
:102A90002A813B81621B730BC101801B910B0E9439
:102AA000700A30E883169104A104B10450F0B20119
:102AB000601B710BC1014A815B81841B950B0E94D5
:102AC000700AD501C40180589F4FAF4FBF4F843B60
:102AD0009105A105B10550F0B8016C5C7F4FC101B3
:102AE000EA81FB818E1B9F0B0E94700ACA80DB80EB
:102AF000F4E3CF0ED11CD501C4010C97A109B10993
:102B0000843B9105A105B10530F0B601C101801BE0
:102B1000910B0E94700AB601C3010E94700A2CE456
:102B2000821A9108A108B10834EB83169104A1041C
:102B3000B10448F0B8016C5C7F4F8A819B81805C56
:102B40009F4F0E94700AC801880F991FE816F90666
:102B50000CF4E7C0E81AF90A41E0E41AF1080F5F43
:102B60001F4F4A815B81401751070CF034CF86EB31
:102B700097E00E94B1118111D0CE86EB97E00E94C0
:102B80009C1186EB97E00E94BB0E86EB97E00E94BB
:102B90009706EDE9F2E08BE190E08193919353E0A9
:102BA000ED39F507D1F780E480937C0080917A00BD
:102BB000806480937A0080917A0086FDFCCFA0919A
:102BC0007800B091790025E330E00E9470172FEF74
:102BD00033E040E050E00E94F116EDE9F2E082813E
:102BE0009381819391938BE993E08E179F07B9F7B7
:102BF00030939C0320939B0386EB97E00E94D611B1
:102C00007FE3272E312C80911008909111088B586A
:102C1000944059F02BE834E03093110820931008C9
:102C2000C9010E94230C0E947F0443E054E05093AA
:102C3000B9074093B8074BEA51E068E070E090E0D4
:102C400080E00E945F0E8DE992E09B838A83D12C05
:102C5000C12CEA81FB8121913191FB83EA83FFEF53
:102C6000CF1ADF0AEA81FB8180819181A101481B93
:102C7000590BCA012601F101E21BF30BFD83EC8322
:102C80008601015011094E175F0708F06FC07F01E0
:102C9000E41AF50AF2E0EF16F10408F47FC04701E8
:102CA0003C812D81DD82CC82432E522E302F212F6C
:102CB0008A01832F922FEE24E394F12C21E02983C3
:102CC0003401769467942C813D812817390708F0E8
:102CD0006AC0AA24A394B12C3FEF4316530621F4F3
:102CE0008EEF482E55245A944016510608F05FC0C6
:102CF0009CE7C916D10409F0ACCF86EB97E00E949F
:102D0000B111811180CF65E070E080E090E00E9419
:102D10006F0580E090E0892B09F445CF0E94000008
:102D200042CF8A819B81019725E030E0EA81FB81D7
:102D30002E1B3F0B220F331FE216F30650F4EE0F4B
:102D4000FF1FEE0EFF1EF1E0EF1AF1089B838A834E
:102D500008CF2A813B81201B310B21503109220FE2
:102D6000331FE20EF31E0F5F1F4FF0CF7A014C812D
:102D70005D81E41AF50A52E0E516F10478F04701A6
:102D80002C01C601302F212F0C811D813C832D8306
:102D9000EE24E394F12CE1E0E98392CF19828824B8
:102DA0008394912C8DCFAA24AA94BA2C95CF4981D3
:102DB0006C817D81C801442319F0B8018C819D810B
:102DC0000E94700A6E187F0877FE08C08C819D8172
:102DD0008A0D9B1D9D838C83680C791C0F5F1F4F90
:102DE00083CF052E97FB1EF400940E94081757FD11
:102DF00007D00E941B1707FC03D04EF40C94081751
:102E000050954095309521953F4F4F4F5F4F089516
:102E100090958095709561957F4F8F4F9F4F089546
:102E20000E943D17A59F900DB49F900DA49F800D0B
:102E3000911D11240895A1E21A2EAA1BBB1BFD01AE
:102E40000DC0AA1FBB1FEE1FFF1FA217B307E40789
:102E5000F50720F0A21BB30BE40BF50B661F771FE1
:102E6000881F991F1A9469F76095709580959095C1
:102E70009B01AC01BD01CF010895A29FB001B39F9A
:102E8000C001A39F700D811D1124911DB29F700D73
:102E9000811D1124911D0895DB018F939F930E9442
:102EA0001017BF91AF91A29F800D911DA39F900D10
:102EB000B29F900D1124089597FB072E16F40094ED
:102EC00007D077FD09D00E94771707FC05D03EF4A4
:102ED000909581959F4F0895709561957F4F0895C6
:102EE0000E943D17B7FF0895821B930B0895AA1BFC
:102EF000BB1B51E107C0AA1FBB1FA617B70710F0E5
:102F0000A61BB70B881F991F5A95A9F78095909516
:102F1000BC01CD010895EE0FFF1F0590F491E02D47
:102F20000994DC0101C06D9341505040E0F70895D1
:042F3000F894FFCF43
:102F34001815A015C019FF1815A115C819FF1815E3
:102F4400AE19FF1815AF19FF1815AE15D516801553
:102F5400A8163F15D316001540158D161415201606
:102F64000015A115C815DA1612158116CF15D91634
:102F7400F115DB1640152E15A415A619FF00011432
:102F84000A6464323200093D0000042896100802E5
:102F94000280004000000000006106340661110A4E
:102FA400062D061A060B06000000000D11E510613F
:102FB400116011860811097608484D55202D2032DC
:102FC4006E642079656172004D65646963616C208B
:102FD4004C616220436F686F727400454347202040
:0E2FE40042504D3A20202070756C736500003D
:00000001FF
