:020000040000FA
:100000000C945D000C9485000C9485000C94490BB5
:100010000C9485000C9485000C9485000C94580B6E
:100020000C9485000C9485000C9485000C9485003C
:100030000C9485000C9485000C9485000C9485002C
:100040000C94A70A0C9485000C94170B0C94F10ADD
:100050000C9485000C9485000C9485000C9485000C
:100060000C9485000C94850000000008000201003B
:100070000003040700000000000000000000000072
:10008000250028002B0000000000240027002A0083
:10009000040404040404040402020202020203032E
:1000A0000303030301020408102040800102040836
:1000B0001020010204081020A60B11241FBECFEF50
:1000C000D8E0DEBFCDBF13E0A0E0B1E0E2EFF1E2A7
:1000D00002C005900D92A038B107D9F724E0A0E83E
:1000E000B3E001C01D92A337B207E1F710E0CDE500
:1000F000D0E004C02197FE010E94F110CC35D10759
:10010000C9F70E94F00B0C94F7100C94000090E0DB
:10011000FC01EC55FF4F249180579F4FFC018491C7
:10012000882399F090E0880F991FFC01EA57FF4F50
:10013000A591B491FC01E458FF4F859194918FB73C
:10014000F894EC91E22BEC938FBF089580E48093B8
:100150007C0080917A00806480937A0080917A009C
:1001600086FDFCCF8091780090917900089590E011
:10017000FC01E859FF4F2491FC01EC55FF4F3491ED
:10018000FC01E057FF4FE491EE23C9F0222339F040
:10019000233001F1A8F4213019F1223029F1F0E0E7
:1001A000EE0FFF1FE458FF4FA591B4918FB7F8945D
:1001B000EC91611126C030953E233C938FBF08958A
:1001C0002730A9F02830C9F0243049F78091800009
:1001D0008F7D03C0809180008F7780938000DFCF78
:1001E00084B58F7784BDDBCF84B58F7DFBCF8091C5
:1001F000B0008F778093B000D2CF8091B0008F7D18
:10020000F9CF3E2BDACF3FB7F8948091BA039091A3
:10021000BB03A091BC03B091BD0326B5A89B05C04C
:100220002F3F19F00196A11DB11D3FBFBA2FA92F75
:10023000982F8827BC01CD01620F711D811D911D72
:1002400042E0660F771F881F991F4A95D1F70895DE
:100250008F929F92AF92BF92CF92DF92EF92FF92D6
:100260004B015C010E9403016B017C010E940301B0
:100270006C197D098E099F09683E734081059105BF
:10028000A8F321E0821A9108A108B10888EEC80EEF
:1002900083E0D81EE11CF11C81149104A104B10477
:1002A00029F7FF90EF90DF90CF90BF90AF909F9095
:1002B0008F900895AF92BF92CF92DF92EF92FF920C
:1002C0000F931F93CF93DF936C017B018B01040F7E
:1002D000151FEB015E01AE18BF08C017D10759F01A
:1002E0006991D601ED91FC910190F081E02DC6015C
:1002F0000995892B79F7C501DF91CF911F910F9156
:10030000FF90EF90DF90CF90BF90AF900895FC01E9
:10031000538D448D252F30E0842F90E0821B930B6A
:10032000541710F0CF96089501970895FC01918D10
:10033000828D981761F0A28DAE0FBF2FB11D5D9613
:100340008C91928D9F5F9F73928F90E008958FEFB5
:100350009FEF0895FC01918D828D981731F0828D69
:10036000E80FF11D858D90E008958FEF9FEF0895C0
:10037000FC01918D228D892F90E0805C9F4F821B24
:1003800091098F73992708958EEB93E00E94B8012D
:1003900021E0892B09F420E0822F089580E090E08D
:1003A000892B29F00E94C40181110C94000008954A
:1003B000FC01A48DA80FB92FB11DA35ABF4F2C91DA
:1003C000848D90E001968F739927848FA689B789D1
:1003D0002C93A089B1898C91837080648C93938DC8
:1003E000848D981306C00288F389E02D80818F7D6B
:1003F00080830895EF92FF920F931F93CF93DF9323
:10040000EC0181E0888F9B8D8C8D98131AC0E88950
:10041000F989808185FF15C09FB7F894EE89FF891F
:100420006083E889F98980818370806480839FBFBD
:1004300081E090E0DF91CF911F910F91FF90EF90BD
:100440000895F62E0B8D10E00F5F1F4F0F731127CD
:10045000E02E8C8D8E110CC00FB607FCFACFE88908
:10046000F989808185FFF5CFCE010E94D801F1CFB7
:10047000EB8DEC0FFD2FF11DE35AFF4FF0829FB77C
:10048000F8940B8FEA89FB8980818062CFCFCF936C
:10049000DF93EC01888D8823B9F0AA89BB89E889AC
:1004A000F9898C9185FD03C0808186FD0DC00FB652
:1004B00007FCF7CF8C9185FFF2CF808185FFEDCFD0
:1004C000CE010E94D801E9CFDF91CF910895089520
:1004D000089590E080E00895CF92DF92EF92FF922E
:1004E0006B017C0120E03AE145EF56E40E943010B8
:1004F00087FD34C081E080939903A7019601C7016D
:10050000B6010E940D0E9B01AC0160E074E284E72D
:100510009BE40E947E0E20E030E040E85FE30E9412
:100520000C0E0E94F70E6B017C018FEFC816D104F0
:10053000E104F10429F020F0C12CD12C7601CA94F9
:10054000C092B300809199038093B10082E48093BC
:10055000B000FF90EF90DF90CF90089520E030E161
:1005600045E755E4C701B6010E94301087FD0CC075
:1005700082E08093990320E030E040E851E4C70135
:10058000B6010E943510BFCF20E030E045E754E4CB
:10059000C701B6010E94301087FD08C083E0809338
:1005A000990320E030E040E852E4E9CF20E030E079
:1005B00045EF53E4C701B6010E94301087FD08C023
:1005C00084E08093990320E030E040E053E4D7CF0B
:1005D00020E030E045E753E4C701B6010E94301047
:1005E00087FD08C085E08093990320E030E040E873
:1005F00053E4C5CF20E030E044EF52E4C701B60138
:100600000E94301087FD08C086E08093990320E0A7
:1006100030E040E054E4B3CF87E08093990320E0DA
:1006200030E040E055E4ABCFE1EBF0E08081887F43
:10063000808308958F929F92AF92BF92CF92DF9264
:10064000EF92FF926B017C0160919E0370919F037A
:100650008091A0039091A1030E94260F4B015C01A1
:1006600020E030E0A9010E94790E882361F120E0AA
:1006700030E046E953E4C701B6010E94351020E09E
:1006800030E044EB53E40E947E0E0E94F00E6B01BA
:10069000672BC9F00E94140310929D0310929C03D3
:1006A000CC0CDD1CD0929B03C0929A038091700009
:1006B000826080937000C501B4010E946C02809139
:1006C00099038093B100FF90EF90DF90CF90BF909F
:1006D000AF909F908F900895CF93DF93EC0160E0EF
:1006E0008E810E94B70061E08E810E94B70060E0B9
:1006F0008E810E94B7008BE891E00197F1F7DF91BE
:10070000CF910895CF92DF92EF92FF920F931F93B4
:10071000CF93DF936C017C0187E0E80EF11CD0E001
:10072000C0E0062F10E0B8010C2E02C07595679549
:100730000A94E2F76170F70181917F010E94B7008E
:100740002196C430D10579F7C601DF91CF911F9171
:100750000F91FF90EF90DF90CF900C946C03CF92AD
:10076000DF92EF92FF920F931F93CF93DF93EC01F1
:10077000F62E642F8C810E94B7008D818F3F19F077
:1007800060E00E94B7000F2D10E08F8584FF25C028
:100790006E0187E0C80ED11CF12CE12CB8010E2CA3
:1007A00002C0759567950A94E2F76170F601819130
:1007B0006F010E94B700FFEFEF1AFF0A88E0E8160A
:1007C000F10461F7CE01DF91CF911F910F91FF905E
:1007D000EF90DF90CF900C946C03B80184E0759596
:1007E00067958A95E1F7CE010E9482036F2DCE01B5
:1007F000DF91CF911F910F91FF90EF90DF90CF90FD
:100800000C94820340E0682F8BE594E00C94AF03D6
:1008100081E00E9402048BE39FE10197F1F70895C4
:10082000CF93DF93823029F490916A04986090937B
:100830006A0480936E0410926F0480E480937004C5
:1008400080E18093710480E58093720480915F045D
:100850000E948700809160048F3F11F00E94870002
:10086000809161040E948700CBE5D4E09E012B5566
:10087000344080916A0484FD0AC084E090E02196AF
:10088000281739073CF48E810E948700EFCF88E05B
:1008900090E0F5CF8BE39DE00197F1F760E0809168
:1008A0005F040E94B70060E0809161040E94B7007D
:1008B000809160048F3F19F060E00E94B700809142
:1008C0006A0484FD34C063E08BE594E00E948203F7
:1008D000CBE4D6E4CE010197F1F763E08BE594E039
:1008E0000E9482032197F1F763E08BE594E00E9478
:1008F000820383E592E00197F1F762E08BE594E0F3
:100900000E94820380916A0480620E94020484E053
:1009100080936B048CE00E9402040E94080482E031
:1009200080936C0486E0DF91CF910C940204806286
:100930000E9402048BE496E40197F1F780916A0427
:1009400080620E94020483E592E00197F1F78091B2
:100950006A0480620E940204D5CF90916E046917E8
:1009600010F06FEF690FE62FF0E0E55AFB4F948926
:10097000890F80680C940204EBE5F4E080898D7F98
:10098000808B88600C94020480910F01882359F0B9
:1009900010920F0180916B04982F926090936B04DA
:1009A0008A600C94020481E080930F010C94BC04D3
:1009B00041E00E94AF0381E090E00895FB010190C7
:1009C0000020E9F73197AF01461B570BDC01ED9191
:1009D000FC910280F381E02D09948F929F92AF9257
:1009E000BF92EF92FF920F931F93CF93DF93CDB7F8
:1009F000DEB7A1970FB6F894DEBF0FBECDBF7C0166
:100A0000FA01CB0119A2223008F42AE08E010F5D11
:100A10001F4F822E912CB12CA12CBF01A501940156
:100A20000E94BB10F901CA016A300CF5605DD80163
:100A30006E938D01232B242B252B79F790E080E0FA
:100A4000109721F0BD01C7010E94DE04A1960FB6E8
:100A5000F894DEBF0FBECDBFDF91CF911F910F91F4
:100A6000FF90EF90BF90AF909F908F900895695C3A
:100A7000DECFCF92DF92EF92FF920F931F93CF932F
:100A8000DF936B01770FEE08FF08F7FE1FC0EC0144
:100A9000E881F9810190F081E02D6DE209958C01EA
:100AA00044275527BA014C195D096E097F092AE0D0
:100AB000CE010E94ED04800F911FDF91CF911F9115
:100AC0000F91FF90EF90DF90CF9008952AE0B7014B
:100AD000A601DF91CF911F910F91FF90EF90DF90D2
:100AE000CF900C94ED04CF93DF93BC018EEB93E099
:100AF0000E94DE04EC016FE271E08EEB93E00E9455
:100B0000DE048C0F9D1FDF91CF9108954F925F926D
:100B10006F927F928F929F92AF92BF92CF92DF920D
:100B2000EF92FF920F931F93CF936B017C01742E72
:100B3000AC019B010E94A21062E371E0811126C00A
:100B400046015701E894B7F82FEF3FEF4FE75FE713
:100B5000C501B4010E94A21081110CC02FEF3FEF1C
:100B60004FE75FE7C501B4010E94790E66E371E0CB
:100B7000181664F02FEF3FEF4FE75FE4C701B601AF
:100B80000E9430101816ACF46AE371E08EEB93E02B
:100B9000CF911F910F91FF90EF90DF90CF90BF907A
:100BA000AF909F908F907F906F905F904F900C943C
:100BB000DE042FEF3FEF4FE75FECC701B6010E9465
:100BC000790E87FDE1CF20E030E0A901C701B60131
:100BD0000E94790E10E000E087FF0AC06DE28EEB04
:100BE00093E00E94FA018C01F7FAF094F7F8F09480
:100BF000C0E060E070E080E09FE37C1641F020E020
:100C000030E040E251E40E947E0ECF5FF6CFA701B4
:100C100096010E940D0E2B013C010E94F70E4B0124
:100C20005C012AE0BC01A4018EEB93E00E94ED047C
:100C30007C01E00EF11ECC23D1F1C501B4010E946C
:100C4000260F9B01AC01C301B2010E940C0E4B01A7
:100C50005C016EE28EEB93E00E94FA01E80EF91E51
:100C6000C15028F120E030E040E251E4C501B40178
:100C70000E9435102B013C010E94F70E4B01B12C54
:100C8000A12C2AE0B501A4018EEB93E00E94ED04B3
:100C9000E80EF91EC501B4010E94260F9B01AC01AC
:100CA000C301B2010E940C0E4B015C01D9CFC701F8
:100CB000CF911F910F91FF90EF90DF90CF90BF9059
:100CC000AF909F908F907F906F905F904F9008951E
:100CD0000C94DE04CF93C82F61E08EE00E94AD0437
:100CE0006EE371E0C11102C061E471E08BE594E054
:100CF0000E94680661E080910D01CF910C94AD04D3
:100D0000CF92DF92EF92FF926B017C0120E030E006
:100D1000A9010E94790E811102C00E94140364E4AB
:100D200071E08EEB93E00E94680642E0C701B601D5
:100D30000E9486056FE271E08EEB93E00E94DE0474
:100D400020E030E048E453E4C701B6010E943510CA
:100D500020E030E040E752E40E947E0E0E94F70E51
:100D600060939E0370939F038093A0039093A103CD
:100D70006DE671E08EEB93E00E94680640919E0361
:100D800050919F036091A0037091A1032AE08EEB24
:100D900093E00E94ED046FE271E08EEB93E00E941D
:100DA000DE0460919E0370919F038091A003909157
:100DB000A1030E94260F6B017C0120E030E0A90115
:100DC0000E94790E882341F0C701B601FF90EF9091
:100DD000DF90CF900C946C02FF90EF90DF90CF905B
:100DE00008959091100127E030E0913011F426E051
:100DF00030E0813009F452C08230F9F480910D0165
:100E000090910E01AC01415051094A30510509F44D
:100E10003FC04C305105E1F150930E0140930D015C
:100E200080910D0190910E018217930734F48DE0AB
:100E300090E090930E0180930D0162E971E08EEBDA
:100E400093E00E94680660910D0170910E018EEB97
:100E500093E00E9439056FE271E08EEB93E00E940F
:100E6000DE0461E08DE00E94AD0480910D0190915F
:100E70000E010D9779F561EA71E08BE594E00E942F
:100E800068060E94BC0461E080910D010C94AD04E1
:100E9000029790930E0180930D01C2CF80910D01B6
:100EA00090910E01AC014D7F4930510589F00196BA
:100EB00090930E0180930D0180910D0190910E0190
:100EC0000E970CF4BACF30930E0120930D01B5CFDD
:100ED0000296EECF68EC71E08BE594E00E94680624
:100EE00080916B04982F926090936B048A600E94AB
:100EF0000204C9CFCF92DF92EF92FF920F931F931C
:100F0000CF93DF93C82F83EA91E00E947305C63028
:100F1000B1F40E94080460E080E00E94AD0463EB3D
:100F200071E08BE594E00E94680661E080E00E9439
:100F3000AD0461EC71E08BE594E00E9468068C2FB3
:100F40000E94F106C33009F4AAC0C43009F4EAC013
:100F5000C090B003D090B103E090B203F090B3031F
:100F600020E030E044EB53E4C701B6010E943010AA
:100F7000181684F420E030E044EB53E4C701B601D6
:100F80000E940C0E6093B0037093B1038093B20380
:100F90009093B303C090B003D090B103E090B2033C
:100FA000F090B30320E030E0A901C701B6010E9430
:100FB000790E87FF10C020E030E044EB53E4C70116
:100FC000B6010E940D0E6093B0037093B10380933D
:100FD000B2039093B3036091B0037091B103809119
:100FE000B2039091B3030E94F00EEB0161E087E041
:100FF0000E94AD04CE0168EE73E00E94A71004E6E3
:1010000010E0B8010E94A7108BE594E00E9439051A
:10101000CE01B8010E94A7100AE010E0B8010E94BA
:10102000A7108BE594E00E943905CE01B8010E941B
:10103000A710BC018BE594E00E9439056AEC71E0D1
:101040008BE594E00E946806C090B003D090B10395
:10105000E090B203F090B303C701B6010E94630FA2
:101060009B01AC01C701B6010E940C0E20E030E0EC
:1010700040E251E40E9435100E94F00E8BE594E0AE
:101080000E94390561E080910D01DF91CF911F91A0
:101090000F91FF90EF90DF90CF900C94AD04809172
:1010A0000D0190910E018930910591F1ECF487309A
:1010B000910549F120E030E040E251E4089709F061
:1010C00047CF6091B0037091B1038091B2039091CA
:1010D000B3030E940D0E6093B0037093B10380932D
:1010E000B2039093B30334CF8B309105B1F00D97D9
:1010F00009F02ECF8091A50391E089278093A50365
:101100000E946A0625CF20E030E048EC52E4D9CFB7
:1011100020E030E040E85FE3D4CF2DEC3CEC4CEC39
:101120005DE3CFCF80910D0190910E018930910543
:1011300019F1ACF487309105D1F020E030E040E2C5
:1011400051E4089709F004CF6091B0037091B103A6
:101150008091B2039091B3030E940C0EBCCF8B30F0
:10116000910529F62DEC3CEC4CEC5DE3EDCF20E055
:1011700030E048EC52E4E8CF20E030E040E85FE3C4
:10118000E3CFCF92DF92EF92FF920F931F93CF9313
:10119000DF93C82F8CEC91E00E947305C630B1F448
:1011A0000E94080460E080E00E94AD046CED71E0F4
:1011B0008BE594E00E94680661E080E00E94AD0447
:1011C0006AEE71E08BE594E00E9468068C2F0E9425
:1011D000F106C33009F4A9C0C43009F4F1C020E01D
:1011E00030E442E755E46091A7037091A803809131
:1011F000A9039091AA030E943010181664F480E0AD
:1012000090E4A2E7B5E48093A7039093A803A0938A
:10121000A903B093AA0320E030E0A9016091A703DD
:101220007091A8038091A9039091AA030E94790E5E
:1012300087FF08C01092A7031092A8031092A90379
:101240001092AA036091A7037091A8038091A9034B
:101250009091AA030E94F00EEB0161E086E00E94EB
:10126000AD0470E060E0C83E83E0D8072CF0CE010A
:1012700068EE73E00E94A7108BE594E00E943905A8
:10128000CE0168EE73E00E94A71004E610E0B801FA
:101290000E94A7108BE594E00E943905CE01B801A9
:1012A0000E94A7100AE010E0B8010E94A7108BE589
:1012B00094E00E943905CE01B8010E94A710BC013C
:1012C0008BE594E00E9439056AEC71E08BE594E0CF
:1012D0000E946806C090A703D090A803E090A903DD
:1012E000F090AA03C701B6010E94630F9B01AC01F5
:1012F000C701B6010E940C0E20E030E040E251E44C
:101300000E9435100E94F00E8BE594E00E94390592
:1013100061E080910D01DF91CF911F910F91FF90BE
:10132000EF90DF90CF900C94AD0480910D019091DF
:101330000E018830910589F1ECF48630910541F178
:1013400020E030E048EC52E4079709F048CF609184
:10135000A7037091A8038091A9039091AA030E940A
:101360000D0E6093A7037093A8038093A903909335
:10137000AA0335CF8B309105A9F08D309105B9F0D6
:10138000099709F02CCF20E030E040E85FE3DFCFA1
:1013900020E030E04AE754E4DACF20E030E040E2F9
:1013A00051E4D5CF2DEC3CEC4CEC5DE3D0CF8091FB
:1013B000A50391E089278093A5030E946A060FCFB9
:1013C00080910D0190910E018830910549F1ACF4A6
:1013D0008630910501F120E030E048EC52E40797B7
:1013E00009F0FDCE6091A7037091A8038091A90335
:1013F0009091AA030E940C0EB4CF8B309105A9F0F6
:101400008D309105A1F2099709F0E9CE20E030E096
:1014100040E85FE3E7CF20E030E04AE754E4E2CF82
:1014200020E030E040E251E4DDCF2DEC3CEC4CEC30
:101430005DE3D8CFCF93C82F86E192E00E94730579
:10144000C53089F585E292E00E9473058091100114
:10145000823060F40E94C40480911001823009F44B
:1014600074C08091A503CF910C946A068DE392E03D
:101470000E94730580910001882359F087E792E06C
:101480000E94730581E08093100186E00E94C108EC
:10149000E1CF109210018EE892E00E94730586E081
:1014A0000E947A07D7CF80911001882331F08130D4
:1014B00041F48C2F0E94C108CFCF8C2F0E947A0755
:1014C000CBCF85EA92E00E947305C63061F40E949A
:1014D000080460E080E00E94AD0460EC72E08BE5FF
:1014E00094E00E946806C150C23030F4809100013F
:1014F00091E089278093000161E080E00E94AD04C3
:101500006EEC72E08EEB93E00E9468066091000141
:1015100070E08EEB93E00E9439056FE271E08EEB94
:1015200093E00E94DE048091000164E072E0882371
:1015300011F062EF71E08BE594E00E94680661E0D3
:1015400080910D010E94AD0487CFCF9108951F9225
:101550000F920FB60F9211242F933F938F939F9367
:10156000AF93BF938091B6039091B703A091B80356
:10157000B091B9033091B50323E0230F2D3758F50F
:101580000196A11DB11D2093B5038093B6039093DE
:10159000B703A093B803B093B9038091BA039091B5
:1015A000BB03A091BC03B091BD030196A11DB11D69
:1015B0008093BA039093BB03A093BC03B093BD0385
:1015C000BF91AF919F918F913F912F910F900FBE3F
:1015D0000F901F90189526E8230F0296A11DB11DAC
:1015E000D2CF1F920F920FB60F9211242F933F93D9
:1015F0004F935F936F937F938F939F93AF93BF931B
:10160000EF93FF938EEB93E00E94D801FF91EF914F
:10161000BF91AF919F918F917F916F915F914F910A
:101620003F912F910F900FBE0F901F9018951F9212
:101630000F920FB60F9211242F938F939F93EF93D6
:10164000FF93E091CE03F091CF038081E091D4032A
:10165000F091D50382FD1BC090818091D7038F5FED
:101660008F732091D803821741F0E091D703F0E007
:10167000E254FC4F958F8093D703FF91EF919F9198
:101680008F912F910F900FBE0F901F901895808112
:10169000F4CF1F920F920FB60F9211248F9383B144
:1016A0008093A2038F910F900FBE0F901F901895FB
:1016B0001F920F920FB60F9211242F933F934F93C7
:1016C0005F936F937F938F939F93AF93BF93EF93AA
:1016D000FF9380919C0390919D03019690939D03AD
:1016E00080939C0320919A0330919B038217930768
:1016F00058F0809170008D7F809370000E941403D9
:1017000010929D0310929C03FF91EF91BF91AF91B6
:101710009F918F917F916F915F914F913F912F9109
:101720000F900FBE0F901F9018951F920F920FB63B
:101730000F9211248F93809198038F5F8093980369
:101740008F910F900FBE0F901F901895EEEBF3E066
:101750001382128288EE93E0A0E0B0E08483958348
:10176000A683B78385E191E09183808385EC90E047
:101770009587848784EC90E09787868780EC90E05B
:10178000918B808B81EC90E0938B828B82EC90E04C
:10179000958B848B86EC90E0978B868B118E128EC6
:1017A000138E148EEBE5F4E01382128287E291E04F
:1017B0009183808382E084838FEF858383E08683B7
:1017C00084E0878385E0808786E0818787E0828761
:1017D0001386148615861686178681E00C941004ED
:1017E000789484B5826084BD84B5816084BD85B5FC
:1017F000826085BD85B5816085BD80916E00816008
:1018000080936E00109281008091810082608093AD
:1018100081008091810081608093810080918000AF
:101820008160809380008091B10084608093B100DA
:101830008091B00081608093B00080917A008460D4
:1018400080937A0080917A00826080937A00809100
:101850007A00816080937A0080917A00806880931A
:101860007A001092C100E091CE03F091CF0382E0A4
:101870008083E091CA03F091CB031082E091CC0306
:10188000F091CD0380E180831092D603E091D203E2
:10189000F091D30386E08083E091D003F091D103EF
:1018A000808180618083E091D003F091D1038081B9
:1018B00088608083E091D003F091D10380818068BB
:1018C0008083E091D003F091D10380818F7D80836C
:1018D00082E00E9410040E94080486E00E941A0A16
:1018E00084EF92E00E9473058DE08093AB038CE05F
:1018F0008093A6038DE00E9487008CE00E94870001
:101900008BE00E9487001092B0001092B10080918D
:10191000B00082608093B0008091B00080648093BA
:10192000B0008091B00080618093B00060E070E012
:1019300088EC92E40E94800660E08091AB030E94F4
:10194000B7000E94140364E670E080E090E00E941B
:10195000280100E010E082E0B82E0E94A600D0E04E
:10196000C0E0883E93400CF073C066E470E080E015
:1019700090E00E9428010E94A600C1E0D0E08436D9
:101980009105CCF0C3E0D0E08C3221E092079CF0CE
:10199000C4E0D0E0843F21E092076CF0C2E0D0E0E8
:1019A0008C3B22E092073CF0D0E0C0E084389340CA
:1019B00014F4C5E0D0E0F12CE12C0E94A600883E92
:1019C0009340B4F58FEFE81AF80A64E670E080E01F
:1019D00090E00E942801C530D105A1F425E1E2166E
:1019E000F1045CF385EA92E00E947305B092100165
:1019F0000E94BC0481E080930F0186E00E941A0AD5
:101A0000C6E0D0E085E6E816F104BCF20E940804C6
:101A100060E080E00E94AD0465E073E08BE594E057
:101A20000E94680661E080910D010E94AD04C5CF5F
:101A3000C330D10509F47CC00CF06BC0C130D105B6
:101A400009F473C083E293E0C230D10509F46AC09F
:101A5000209709F47AC08C2F0E941A0AC0911001B5
:101A6000C093B403D091A5036D2F8091A6030E946B
:101A7000B700C13009F475C0C23009F45FC0C111AC
:101A800064C061E08091AB030E94B700C090B003D6
:101A9000D090B103E090B203F090B3036091AE0335
:101AA0007091AF03DD2309F487C0C091AC03D091DE
:101AB000AD0390E080E00E94260F2AE939E949E968
:101AC0005FE30E9435102B013C01BE0190E080E0F5
:101AD0000E94260F2AE939E949E95FE30E9435109F
:101AE0009B01AC01C301B2010E940D0E20E030E069
:101AF00040E05FE30E9435109B01AC01C701B601D5
:101B00000E94301018160CF5C701B6010E941A0386
:101B10001CC0C430D10579F085E493E0C530D1050F
:101B200009F096CF0E94730593CF86E193E0FACF38
:101B30008FE293E0F7CF89E393E0F4CF60E0809108
:101B4000AB030E94B7000E9414030115110509F4AC
:101B500004CF0E94C401882309F4FFCE0E94000034
:101B6000FCCE83E593E00E94730561E08091AB03B6
:101B70000E94B70068E673E08EEB93E00E9468066F
:101B80006091A7037091A8038091A9039091AA0383
:101B900042E00E9486056FE271E08EEB93E00E94C6
:101BA000DE046091A7037091A8038091A90390912E
:101BB000AA030E948006C9CFC091AC03D091AD03A7
:101BC00090E080E00E94260F2AE939E949E95FE3C5
:101BD0000E9435102B013C01BE0190E080E00E9484
:101BE000260F2AE939E949E95FE30E9435109B0194
:101BF000AC01C301B2010E940D0E20E030E040E0D4
:101C00005FE30E9435109B01AC01C701B6010E9441
:101C1000790E87FF9ACF78CF5058BB27AA270E940A
:101C2000240E0C94DE0F0E94D00F38F00E94D70FC4
:101C300020F039F49F3F19F426F40C94CD0F0EF4E4
:101C4000E095E7FB0C949E0FE92F0E94EF0F58F3ED
:101C5000BA17620773078407950720F079F4A6F591
:101C60000C9429100EF4E0950B2EBA2FA02D0B0129
:101C7000B90190010C01CA01A0011124FF27591BD1
:101C800099F0593F50F4503E68F11A16F040A22FD7
:101C9000232F342F4427585FF3CF46953795279548
:101CA000A795F0405395C9F77EF41F16BA0B620B47
:101CB000730B840BBAF09150A1F0FF0FBB1F661F8E
:101CC000771F881FC2F70EC0BA0F621F731F841FD1
:101CD00048F4879577956795B795F7959E3F08F0F7
:101CE000B0CF9395880F08F09927EE0F97958795B9
:101CF00008950E947A0F08F481E008950E94920EE0
:101D00000C94DE0F0E94D70F58F00E94D00F40F0C5
:101D100029F45F3F29F00C949E0F51110C942A1066
:101D20000C94CD0F0E94EF0F68F39923B1F3552364
:101D300091F3951B550BBB27AA27621773078407DE
:101D400038F09F5F5F4F220F331F441FAA1FA9F374
:101D500035D00E2E3AF0E0E832D091505040E69562
:101D6000001CCAF72BD0FE2F29D0660F771F881FC3
:101D7000BB1F261737074807AB07B0E809F0BB0BB6
:101D8000802DBF01FF2793585F4F3AF09E3F5105CA
:101D900078F00C949E0F0C942A105F3FE4F3983E69
:101DA000D4F3869577956795B795F7959F5FC9F7B3
:101DB000880F911D9695879597F90895E1E0660F34
:101DC000771F881FBB1F621773078407BA0720F0AD
:101DD000621B730B840BBA0BEE1F88F7E095089516
:101DE0000E94F70E6894B1110C942A1008950E9475
:101DF000F70F88F09F5798F0B92F9927B751B0F097
:101E0000E1F0660F771F881F991F1AF0BA95C9F77E
:101E100014C0B13091F00E942910B1E008950C94E3
:101E20002910672F782F8827B85F39F0B93FCCF396
:101E3000869577956795B395D9F73EF490958095FB
:101E4000709561957F4F8F4F9F4F0895E89409C01B
:101E500097FB3EF490958095709561957F4F8F4FDD
:101E60009F4F9923A9F0F92F96E9BB279395F695F3
:101E7000879577956795B795F111F8CFFAF4BB0F71
:101E800011F460FF1BC06F5F7F4F8F4F9F4F16C0D5
:101E9000882311F096E911C0772321F09EE8872F5F
:101EA000762F05C0662371F096E8862F70E060E01B
:101EB0002AF09A95660F771F881FDAF7880F969594
:101EC000879597F908950E94111090F09F3748F474
:101ED000911116F00C942A1060E070E080E89FEBFE
:101EE000089526F41B16611D711D811D0C94A40F0D
:101EF0000C94BF0F990F0008550FAA0BE0E8FEEFF6
:101F000016161706E807F907C0F012161306E407BD
:101F1000F50798F0621B730B840B950B39F40A26B6
:101F200061F0232B242B252B21F408950A2609F494
:101F3000A140A6958FEF811D811D089597F99F6798
:101F400080E870E060E00895882371F4772321F041
:101F50009850872B762F07C0662311F499270DC060
:101F60009051862B70E060E02AF09A95660F771FFB
:101F7000881FDAF7880F9695879597F908959F3F00
:101F800031F0915020F4879577956795B795880F34
:101F9000911D9695879597F908959FEF80EC089588
:101FA00000240A9416161706180609060895002438
:101FB0000A9412161306140605060895092E0394B2
:101FC000000C11F4882352F0BB0F40F4BF2B11F426
:101FD00060FF04C06F5F7F4F8F4F9F4F089557FD85
:101FE0009058440F551F59F05F3F71F04795880F87
:101FF00097FB991F61F09F3F79F08795089512161E
:1020000013061406551FF2CF4695F1DF08C01616C9
:1020100017061806991FF1CF86957105610508947A
:1020200008950E94F70FA0F0BEE7B91788F4BB2708
:102030009F3860F41616B11D672F782F8827985F98
:10204000F7CF869577956795B11D93959639C8F327
:102050000895E894BB2766277727CB0197F9089561
:102060000E947A0F08F48FEF08950E9448100C9494
:10207000DE0F0E94D00F38F00E94D70F20F095237A
:1020800011F00C949E0F0C94CD0F11240C942A1077
:102090000E94EF0F70F3959FC1F3950F50E0551F0D
:1020A000629FF001729FBB27F00DB11D639FAA27AD
:1020B000F00DB11DAA1F649F6627B00DA11D661FFC
:1020C000829F2227B00DA11D621F739FB00DA11D1D
:1020D000621F839FA00D611D221F749F3327A00DD7
:1020E000611D231F849F600D211D822F762F6A2F73
:1020F00011249F5750409AF0F1F088234AF0EE0FD8
:10210000FF1FBB1F661F771F881F91505040A9F704
:102110009E3F510580F00C949E0F0C942A105F3F57
:10212000E4F3983ED4F3869577956795B795F79540
:10213000E7959F5FC1F7FE2B880F911D96958795B8
:1021400097F908950E947A0F880B990B089597FBD1
:10215000072E16F4009407D077FD09D00E94DD10F9
:1021600007FC05D03EF4909581959F4F089570959A
:1021700061957F4F0895A1E21A2EAA1BBB1BFD019A
:102180000DC0AA1FBB1FEE1FFF1FA217B307E40756
:10219000F50720F0A21BB30BE40BF50B661F771FAE
:1021A000881F991F1A9469F760957095809590958E
:1021B0009B01AC01BD01CF010895AA1BBB1B51E1DE
:1021C00007C0AA1FBB1FA617B70710F0A61BB70BA7
:1021D000881F991F5A95A9F780959095BC01CD014C
:1021E0000895EE0FFF1F0590F491E02D0994F894E7
:1021F000FFCF016702670267026702670267020793
:1022000000010200000000FA015A0187014702B8EC
:10221000019601AA0100000000D8045A0169026871
:10222000020D0A006E616E00696E66006F766600D0
:102230004357004343000A20746865204375727257
:10224000656E7420537065656420676976656E20DD
:10225000746F20737465707065722069733A000A38
:1022600020746865206E756D6265722069662073E2
:102270007465707320706572207365636F6E64207F
:1022800069733A00637572736F72206E6F772061A5
:10229000743A003E00696E20416E676C652073637E
:1022A0007265656E00202020416E676C65204D6F61
:1022B000646500416E676C653A2020002E00696EEF
:1022C0002073706565642073637265656E002020FD
:1022D000205370656564204D6F64650053706565BB
:1022E000643A20003E2053504545442020202041A0
:1022F0004E474C4520002020535045454420203E69
:1023000020414E474C452000446973706C61792030
:102310005570646174650073656C65637420427503
:1023200074746F6E20697320757365642021007367
:10233000656C65637420427574746F6E20697320D8
:10234000757365642021262063757272656E742032
:1023500073637265656E206973206D6F64652073A9
:10236000656C656374696F6E005377697463682088
:10237000746F2073706565642073637265656E00A9
:1023800053776974636820746F20416E676C6520B1
:1023900073637265656E0053776974636820746F48
:1023A0002073656C656374696F6E20736372656515
:1023B0006E0020434F4E54524F4C2054595045000C
:1023C000696E2073656C656374696F6E20736372E8
:1023D00065656E2C73656C6563746564436F6E74BC
:1023E000726F6C203D00536574757020636F6D7063
:1023F0006C657465640A00202020537475636B203B
:10240000627574746F6E2000427574746F6E205222
:102410004947485400427574746F6E204C454654C9
:1024200000427574746F6E20555000427574746F5D
:102430006E20444F574E00427574746F6E205345A2
:102440004C45435400737065656420436F6E74722D
:102450006F6C20557064617465000A207468652093
:1024600043757272656E742053706565642069737C
:022470003A0030
:107E0000112484B714BE81FFF0D085E080938100F7
:107E100082E08093C00088E18093C10086E0809377
:107E2000C20080E18093C4008EE0C9D0259A86E02C
:107E300020E33CEF91E0309385002093840096BBD3
:107E4000B09BFECF1D9AA8958150A9F7CC24DD24C4
:107E500088248394B5E0AB2EA1E19A2EF3E0BF2EE7
:107E6000A2D0813461F49FD0082FAFD0023811F036
:107E7000013811F484E001C083E08DD089C08234E0
:107E800011F484E103C0853419F485E0A6D080C0E4
:107E9000853579F488D0E82EFF2485D0082F10E0AE
:107EA000102F00270E291F29000F111F8ED06801E7
:107EB0006FC0863521F484E090D080E0DECF843638
:107EC00009F040C070D06FD0082F6DD080E0C81688
:107ED00080E7D80618F4F601B7BEE895C0E0D1E017
:107EE00062D089930C17E1F7F0E0CF16F0E7DF06D8
:107EF00018F0F601B7BEE89568D007B600FCFDCFD4
:107F0000A601A0E0B1E02C9130E011968C91119780
:107F100090E0982F8827822B932B1296FA010C0160
:107F200087BEE89511244E5F5F4FF1E0A038BF0790
:107F300051F7F601A7BEE89507B600FCFDCF97BE46
:107F4000E89526C08437B1F42ED02DD0F82E2BD052
:107F50003CD0F601EF2C8F010F5F1F4F84911BD097
:107F6000EA94F801C1F70894C11CD11CFA94CF0C13
:107F7000D11C0EC0853739F428D08EE10CD085E9AC
:107F80000AD08FE07ACF813511F488E018D01DD067
:107F900080E101D065CF982F8091C00085FFFCCF94
:107FA0009093C60008958091C00087FFFCCF809118
:107FB000C00084FD01C0A8958091C6000895E0E648
:107FC000F0E098E1908380830895EDDF803219F02E
:107FD00088E0F5DFFFCF84E1DECF1F93182FE3DFCA
:107FE0001150E9F7F2DF1F91089580E0E8DFEE27F6
:047FF000FF270994CA
:027FFE00040479
:00000001FF
