:020000040000FA
:100000000C945D000C9485000C9485000C94850084
:100010000C9485000C9485000C9485000C9485004C
:100020000C9485000C9485000C9485000C9485003C
:100030000C9485000C9485000C9485000C9485002C
:100040000C946A020C9485000C9438020C941202F1
:100050000C9485000C9485000C9485000C9485000C
:100060000C9485000C94850000000008000201003B
:100070000003040700000000000000000000000072
:10008000250028002B0000000000240027002A0083
:10009000040404040404040402020202020203032E
:1000A0000303030301020408102040800102040836
:1000B0001020010204081020ED0311241FBECFEF11
:1000C000D8E0DEBFCDBF11E0A0E0B1E0E4E4F8E0AD
:1000D00002C005900D92A035B107D9F721E0A0E547
:1000E000B1E001C01D92A63FB207E1F710E0CDE5F7
:1000F000D0E004C02197FE010E941A04CC35D1073C
:10010000C9F70E94B4020C9420040C940000AF9232
:10011000BF92CF92DF92EF92FF920F931F93CF93F4
:10012000DF936C017B018B01040F151FEB015E0156
:10013000AE18BF08C017D10759F06991D601ED91EB
:10014000FC910190F081E02DC6010995892B79F78A
:10015000C501DF91CF911F910F91FF90EF90DF903C
:10016000CF90BF90AF900895FC01538D448D252F03
:1001700030E0842F90E0821B930B541710F0CF9641
:10018000089501970895FC01918D828D981761F073
:10019000A28DAE0FBF2FB11D5D968C91928D9F5F8A
:1001A0009F73928F90E008958FEF9FEF0895FC0169
:1001B000918D828D981731F0828DE80FF11D858D1C
:1001C00090E008958FEF9FEF0895FC01918D228DAF
:1001D000892F90E0805C9F4F821B91098F73992734
:1001E000089589E591E00E94E50021E0892B09F45A
:1001F00020E0822F089580E090E0892B29F00E9472
:10020000F10081110C9400000895FC01A48DA80F49
:10021000B92FB11DA35ABF4F2C91848D90E0019648
:100220008F739927848FA689B7892C93A089B18968
:100230008C91837080648C93938D848D981306C009
:100240000288F389E02D80818F7D80830895EF926D
:10025000FF920F931F93CF93DF93EC0181E0888F80
:100260009B8D8C8D98131AC0E889F989808185FF50
:1002700015C09FB7F894EE89FF896083E889F989F2
:1002800080818370806480839FBF81E090E0DF91F4
:10029000CF911F910F91FF90EF900895F62E0B8D47
:1002A00010E00F5F1F4F0F731127E02E8C8D8E1102
:1002B0000CC00FB607FCFACFE889F989808185FF69
:1002C000F5CFCE010E940501F1CFEB8DEC0FFD2F94
:1002D000F11DE35AFF4FF0829FB7F8940B8FEA8924
:1002E000FB8980818062CFCFCF93DF93EC01888D33
:1002F0008823B9F0AA89BB89E889F9898C9185FDA1
:1003000003C0808186FD0DC00FB607FCF7CF8C912E
:1003100085FFF2CF808185FFEDCFCE010E940501E0
:10032000E9CFDF91CF91089590E0FC01E859FF4FAC
:100330002491FC01EC55FF4F3491FC01E057FF4F35
:10034000E491EE23C9F0222339F0233001F1A8F41F
:10035000213019F1223029F1F0E0EE0FFF1FE458AF
:10036000FF4FA591B4918FB7F894EC91611126C01D
:1003700030953E233C938FBF08952730A9F0283055
:10038000C9F0243049F7809180008F7D03C08091AF
:1003900080008F7780938000DFCF84B58F7784BD16
:1003A000DBCF84B58F7DFBCF8091B0008F778093BA
:1003B000B000D2CF8091B0008F7DF9CF3E2BDACF45
:1003C0003FB7F8948091550190915601A091570143
:1003D000B091580126B5A89B05C02F3F19F0019692
:1003E000A11DB11D3FBFBA2FA92F982F8827BC018F
:1003F000CD01620F711D811D911D42E0660F771FB7
:10040000881F991F4A95D1F70895FC01019000209B
:10041000E9F73197AF01481B590BBC0189E591E021
:100420000C9487001F920F920FB60F9211242F93F6
:100430003F934F935F936F937F938F939F93AF936C
:10044000BF93EF93FF9389E591E00E940501FF912F
:10045000EF91BF91AF919F918F917F916F915F913C
:100460004F913F912F910F900FBE0F901F901895B5
:100470001F920F920FB60F9211242F938F939F9379
:10048000EF93FF93E0916901F0916A018081E0911F
:100490006F01F091700182FD1BC09081809172010B
:1004A0008F5F8F7320917301821741F0E091720189
:1004B000F0E0E75AFE4F958F80937201FF91EF9124
:1004C0009F918F912F910F900FBE0F901F901895B5
:1004D0008081F4CF1F920F920FB60F9211242F93A9
:1004E0003F938F939F93AF93BF93809151019091CE
:1004F0005201A0915301B09154013091500123E079
:10050000230F2D3758F50196A11DB11D20935001E1
:100510008093510190935201A0935301B0935401E1
:100520008091550190915601A0915701B0915801C9
:100530000196A11DB11D8093550190935601A09382
:100540005701B0935801BF91AF919F918F913F9107
:100550002F910F900FBE0F901F90189526E8230F34
:100560000296A11DB11DD2CFCF93DF93CDB7DEB7D9
:10057000A1970FB6F894DEBF0FBECDBF789484B5B7
:10058000826084BD84B5816084BD85B5826085BD8F
:1005900085B5816085BD80916E00816080936E001D
:1005A000109281008091810082608093810080910F
:1005B00081008160809381008091800081608093C0
:1005C00080008091B10084608093B1008091B00080
:1005D00081608093B00080917A00846080937A007B
:1005E00080917A00826080937A0080917A008160A5
:1005F00080937A0080917A00806880937A001092CC
:10060000C100E0916901F0916A0182E08083E0918C
:100610006501F09166011082E0916701F091680137
:1006200080E1808310927101E0916D01F0916E0183
:1006300086E08083E0916B01F0916C0180818061A4
:100640008083E0916B01F0916C01808188608083F0
:10065000E0916B01F0916C01808180688083E09172
:100660006B01F0916C0180818F7D808376E3E72EB2
:1006700071E0F72E06E211E0F801819191918F016E
:100680009C013327F901EC55FF4F449120573F4F10
:10069000F9012491222399F030E0220F331FF90150
:1006A000EA57FF4FA591B491F901E458FF4F259106
:1006B00034912FB7F894EC914E2B4C932FBF60E000
:1006C0000E949401E016F106B9F646E2242E41E0BC
:1006D000342E50E0C52E50E0D52E32E1E32E31E02D
:1006E000F32E26E2A22E21E0B22EF5018081F2E067
:1006F000AF0EB11C60E00E949401A016B106A9F7EC
:10070000B12CA12C86E391E00E94050219A280E39E
:100710008A0D88A3CE0180960E94050281E491E0B3
:100720000E940502F701808191810A2C02C09595F3
:1007300087950A94E2F780FF11C084E491E00E945B
:10074000050281E491E00E940502F501EE0FFF1F12
:10075000EA5DFE4F61E080810E949401FFEFAF1AD5
:10076000BF0A28E0A216B10469F60E94E0012B013D
:100770003C0180E9882E99249394A12CB12C0E94ED
:10078000E0016419750986099709683E734081057F
:100790009105A8F381E0881A9108A108B10898EEA4
:1007A000490E93E0591E611C711C81149104A1042F
:1007B000B10429F7F2E0EF0EF11C2E143F0409F00A
:1007C00090CFC114D10409F488CF0E94F10088238E
:1007D00009F483CF0E94000080CFE9E5F1E01382A5
:1007E000128288EE93E0A0E0B0E084839583A68334
:1007F000B78384E091E09183808385EC90E09587D6
:10080000848784EC90E09787868780EC90E0918BDA
:10081000808B81EC90E0938B828B82EC90E0958BC7
:10082000848B86EC90E0978B868B118E128E138EC4
:10083000148E0895EE0FFF1F0590F491E02D09949A
:10084000F894FFCF0000000027018700B400740176
:10085000E500C300D700FC00E6007400DC00BE0029
:10086000FC00F800FD0084006C000200030004009E
:100870000500060007000800090070696E206E7010
:10088000203A2020000D0A006269742069732068F4
:04089000696768002C
:107E0000112484B714BE81FFF0D085E080938100F7
:107E100082E08093C00088E18093C10086E0809377
:107E2000C20080E18093C4008EE0C9D0259A86E02C
:107E300020E33CEF91E0309385002093840096BBD3
:107E4000B09BFECF1D9AA8958150A9F7CC24DD24C4
:107E500088248394B5E0AB2EA1E19A2EF3E0BF2EE7
:107E6000A2D0813461F49FD0082FAFD0023811F036
:107E7000013811F484E001C083E08DD089C08234E0
:107E800011F484E103C0853419F485E0A6D080C0E4
:107E9000853579F488D0E82EFF2485D0082F10E0AE
:107EA000102F00270E291F29000F111F8ED06801E7
:107EB0006FC0863521F484E090D080E0DECF843638
:107EC00009F040C070D06FD0082F6DD080E0C81688
:107ED00080E7D80618F4F601B7BEE895C0E0D1E017
:107EE00062D089930C17E1F7F0E0CF16F0E7DF06D8
:107EF00018F0F601B7BEE89568D007B600FCFDCFD4
:107F0000A601A0E0B1E02C9130E011968C91119780
:107F100090E0982F8827822B932B1296FA010C0160
:107F200087BEE89511244E5F5F4FF1E0A038BF0790
:107F300051F7F601A7BEE89507B600FCFDCF97BE46
:107F4000E89526C08437B1F42ED02DD0F82E2BD052
:107F50003CD0F601EF2C8F010F5F1F4F84911BD097
:107F6000EA94F801C1F70894C11CD11CFA94CF0C13
:107F7000D11C0EC0853739F428D08EE10CD085E9AC
:107F80000AD08FE07ACF813511F488E018D01DD067
:107F900080E101D065CF982F8091C00085FFFCCF94
:107FA0009093C60008958091C00087FFFCCF809118
:107FB000C00084FD01C0A8958091C6000895E0E648
:107FC000F0E098E1908380830895EDDF803219F02E
:107FD00088E0F5DFFFCF84E1DECF1F93182FE3DFCA
:107FE0001150E9F7F2DF1F91089580E0E8DFEE27F6
:047FF000FF270994CA
:027FFE00040479
:00000001FF
