:020000040000FA
:100000000C9461000C9473000C9473000C947300B6
:100010000C9473000C9473000C9473000C94730094
:100020000C9473000C9473000C9473000C94F40102
:100030000C9473000C9473000C9473000C94730074
:100040000C94AA010C9473000C9473000C9473002C
:100050000C9473000C9473000C9473000C94730054
:100060000C9473000C94730000000000240027001F
:100070002A0000000000250028002B0000000000DE
:1000800023002600290004040404040404040202DA
:100090000202020203030303030301020408102007
:1000A0004080010204081020010204081020000012
:1000B0000008000201000003040700000000000027
:1000C000000011241FBECFEFD8E0DEBFCDBF21E07E
:1000D000A0E0B1E001C01D92A231B207E1F70E9499
:1000E00045020C94A4030C940000833081F028F4A2
:1000F000813099F08230A9F008958730A9F08830D6
:10010000C9F08430B1F4809180008F7D03C080916C
:1001100080008F7780938000089584B58F7784BDA9
:10012000089584B58F7DFBCF8091B0008F77809349
:10013000B00008958091B0008F7DF9CFCF93DF9309
:10014000282F30E0F901E255FF4F8491F901E6567E
:10015000FF4FD491F901EA57FF4FC491CC23A1F08E
:1001600081110E947500EC2FF0E0EE0FFF1FE458A4
:10017000FF4FA591B491EC91ED2381E090E009F45B
:1001800080E0DF91CF91089580E090E0FACF1F9357
:10019000CF93DF93282F30E0F901E255FF4F849190
:1001A000F901E656FF4FD491F901EA57FF4FC49188
:1001B000CC23A9F0162F81110E947500EC2FF0E0DE
:1001C000EE0FFF1FEE58FF4FA591B4918FB7F89433
:1001D000EC91111108C0D095DE23DC938FBFDF9125
:1001E000CF911F910895DE2BF8CFCF93DF9390E04E
:1001F000FC01E656FF4F24918A579F4FFC018491E2
:100200008823D1F090E0880F991FFC01E859FF4F37
:10021000A591B491FC01EE58FF4FC591D491623085
:1002200071F49FB7F8943C91822F809583238C932F
:10023000E8812E2B28839FBFDF91CF9108958FB740
:10024000F894EC912E2B2C938FBFF6CF3FB7F894F8
:1002500080910E0190910F01A0911001B0911101B8
:1002600026B5A89B05C02F3F19F00196A11DB11D11
:100270003FBFBA2FA92F982F8827BC01CD01620F4D
:10028000711D811D911D42E0660F771F881F991F08
:100290004A95D1F708958F929F92AF92BF92CF92D5
:1002A000DF92EF92FF924B015C010E9426016B01ED
:1002B0007C010E9426016C197D098E099F09683E08
:1002C000734081059105A8F321E0821A9108A108E5
:1002D000B10888EEC80E83E0D81EE11CF11C811421
:1002E0009104A104B10429F7FF90EF90DF90CF9023
:1002F000BF90AF909F908F900895CF93DF93D82FAA
:10030000C8E06D2F661F6627661F84E00E94C70045
:10031000DD0F61E082E00E94C70060E082E00E94A1
:10032000C700C15071F7DF91CF910895CF93DF934C
:10033000D82FC62F60E083E00E94C7008D2F0E9457
:100340007D018C2F0E947D0161E083E0DF91CF91E0
:100350000C94C7001F920F920FB60F9211242F9387
:100360003F938F939F93AF93BF9380910A01909196
:100370000B01A0910C01B0910D013091090123E016
:10038000230F2D3758F50196A11DB11D20930901AA
:1003900080930A0190930B01A0930C01B0930D017F
:1003A00080910E0190910F01A0911001B091110167
:1003B0000196A11DB11D80930E0190930F01A09392
:1003C0001001B0931101BF91AF919F918F913F9117
:1003D0002F910F900FBE0F901F90189526E8230FB6
:1003E0000296A11DB11DD2CF1F920F920FB60F9290
:1003F00011242F938F939F9380910801882369F094
:1004000080910601909107010196883E23E09207B2
:1004100060F490930701809306019F918F912F9133
:100420000F900FBE0F901F90189510920701109219
:1004300006018091040190910501019690930501B8
:1004400080930401CC976CF080910201909103019C
:10045000109205011092040101969093030180937C
:1004600002018091020190910301CC97B4F21092A5
:100470000301109202018091000190910101019607
:100480009093010180930001C8CF789484B5826075
:1004900084BD84B5816084BD85B5826085BD85B528
:1004A000816085BD80916E00816080936E001092A6
:1004B0008100809181008260809381008091810021
:1004C00081608093810080918000816080938000B2
:1004D0008091B10084608093B1008091B000816010
:1004E0008093B00080917A00846080937A0080913C
:1004F0007A00826080937A0080917A008160809394
:100500007A0080917A00806880937A001092C1000E
:1005100062E08EE00E94F50062E08FE00E94F5004C
:1005200062E080E10E94F50061E08DE00E94F5004C
:1005300061E084E00E94F50061E083E00E94F50044
:1005400061E082E00E94F50061E082E00E94C70065
:1005500068EC70E080E090E00E944B0160E08FE08A
:100560000E94960161E08CE00E94960167E08BE0BA
:100570000E9496016FE08AE00E9496016FEF89E089
:100580000E949601F89410928000109281001092BF
:100590008500109284008FEC97E0909389008093FF
:1005A0008800809181008860809381008091810023
:1005B00082608093810080916F00826080936F00E1
:1005C0007894CAE0D0E000E010E08EE00E949E0047
:1005D000892B69F461E08DE00E94C70081E080937F
:1005E000080164E670E080E090E00E944B018FE03B
:1005F0000E949E00892B61F461E08DE00E94C7009B
:100600001092080164E670E080E090E00E944B01E7
:1006100080E10E949E00892BD1F461E08DE00E9470
:10062000C700109207011092060110920501109266
:100630000401109203011092020110920101109224
:10064000000164E670E080E090E00E944B01809140
:10065000000190910101BE010E947C03F82ECB01A4
:10066000BE010E947C03682F88E00E9496016F2DD6
:1006700087E00E9496016AE086E00E9496018091E0
:10068000020190910301BE010E947C03F82ECB0170
:10069000BE010E947C03682F85E00E9496016F2DA9
:1006A00084E00E9496016AE083E00E9496018091B6
:1006B000040190910501BE010E947C03F82ECB013C
:1006C000BE010E947C03682F82E00E9496016F2D7C
:1006D00081E00E94960164E670E080E090E00E9474
:1006E0004B0160E08DE00E94C7000115110509F47F
:1006F0006CCF0E94000069CF97FB072E16F4009480
:1007000007D077FD09D00E94900307FC05D03EF486
:10071000909581959F4F0895709561957F4F0895AD
:10072000AA1BBB1B51E107C0AA1FBB1FA617B70717
:1007300010F0A61BB70B881F991F5A95A9F7809533
:0C0740009095BC01CD010895F894FFCF06
:107E0000112484B714BE81FFF0D085E080938100F7
:107E100082E08093C00088E18093C10086E0809377
:107E2000C20080E18093C4008EE0C9D0259A86E02C
:107E300020E33CEF91E0309385002093840096BBD3
:107E4000B09BFECF1D9AA8958150A9F7CC24DD24C4
:107E500088248394B5E0AB2EA1E19A2EF3E0BF2EE7
:107E6000A2D0813461F49FD0082FAFD0023811F036
:107E7000013811F484E001C083E08DD089C08234E0
:107E800011F484E103C0853419F485E0A6D080C0E4
:107E9000853579F488D0E82EFF2485D0082F10E0AE
:107EA000102F00270E291F29000F111F8ED06801E7
:107EB0006FC0863521F484E090D080E0DECF843638
:107EC00009F040C070D06FD0082F6DD080E0C81688
:107ED00080E7D80618F4F601B7BEE895C0E0D1E017
:107EE00062D089930C17E1F7F0E0CF16F0E7DF06D8
:107EF00018F0F601B7BEE89568D007B600FCFDCFD4
:107F0000A601A0E0B1E02C9130E011968C91119780
:107F100090E0982F8827822B932B1296FA010C0160
:107F200087BEE89511244E5F5F4FF1E0A038BF0790
:107F300051F7F601A7BEE89507B600FCFDCF97BE46
:107F4000E89526C08437B1F42ED02DD0F82E2BD052
:107F50003CD0F601EF2C8F010F5F1F4F84911BD097
:107F6000EA94F801C1F70894C11CD11CFA94CF0C13
:107F7000D11C0EC0853739F428D08EE10CD085E9AC
:107F80000AD08FE07ACF813511F488E018D01DD067
:107F900080E101D065CF982F8091C00085FFFCCF94
:107FA0009093C60008958091C00087FFFCCF809118
:107FB000C00084FD01C0A8958091C6000895E0E648
:107FC000F0E098E1908380830895EDDF803219F02E
:107FD00088E0F5DFFFCF84E1DECF1F93182FE3DFCA
:107FE0001150E9F7F2DF1F91089580E0E8DFEE27F6
:047FF000FF270994CA
:027FFE00040479
:00000001FF
