:100000000C9458000C9480000C9480000C94800098
:100010000C9480000C9480000C9480000C94800060
:100020000C9480000C9480000C9480000C94800050
:100030000C9480000C9480000C9480000C94800040
:100040000C944C040C9480000C94BC040C94960406
:100050000C9480000C9480000C9480000C94800020
:100060000C94EE040C948000000000002500280091
:100070002B00040404040404040402020202020229
:10008000030303030303010204081020408001025C
:1000900004081020010204081020000000080002DB
:1000A00001000003040700000000000000000D062E
:1000B00011241FBECFEFD8E0DEBFCDBF11E0A0E01E
:1000C000B1E0E2E8F2E102C005900D92AA33B10777
:1000D000D9F722E0AAE3B1E001C01D92AA3BB20722
:1000E000E1F710E0C8E5D0E004C02197FE010E94CE
:1000F0003909C735D107C9F70E9469060C943F0931
:100100000C94000090E0FC01E656FF4F2491FC01A6
:10011000EA57FF4F3491FC01EE58FF4FE491EE2374
:10012000C9F0222339F0233001F1A8F4213019F16C
:10013000223029F1F0E0EE0FFF1FE859FF4FA591A3
:10014000B4918FB7F894EC91611126C030953E239D
:100150003C938FBF08952730A9F02830C9F0243090
:1001600049F7809180008F7D03C0809180008F7758
:1001700080938000DFCF84B58F7784BDDBCF84B5DB
:100180008F7DFBCF8091B0008F778093B000D2CF6E
:100190008091B0008F7DF9CF3E2BDACF3FB7F89436
:1001A0008091A9019091AA01A091AB01B091AC01FD
:1001B00026B5A89B05C02F3F19F00196A11DB11DC2
:1001C0003FBFBA2FA92F982F8827BC01CD01620FFE
:1001D000711D811D911D42E0660F771F881F991FB9
:1001E0004A95D1F7089508950895AF92BF92CF929E
:1001F000DF92EF92FF920F931F93CF93DF936C01E7
:100200007B018B01040F151FEB015E01AE18BF08C7
:10021000C017D10759F06991D601ED91FC91019079
:10022000F081E02DC6010995892B79F7C501DF9191
:10023000CF911F910F91FF90EF90DF90CF90BF90E3
:10024000AF900895FC01538D448D252F30E0842F0D
:1002500090E0821B930B541710F0CF9608950197EE
:100260000895FC01918D828D981761F0A28DAE0FDB
:10027000BF2FB11D5D968C91928D9F5F9F73928F62
:1002800090E008958FEF9FEF0895FC01918D828D8E
:10029000981731F0828DE80FF11D858D90E008955B
:1002A0008FEF9FEF0895FC01918D228D892F90E0B3
:1002B000805C9F4F821B91098F73992708958DEF62
:1002C00091E00E94530121E0892B09F420E0822F64
:1002D000089580E090E0892B29F00E945F01811150
:1002E0000C9400000895FC01A48DA80FB92FB11D36
:1002F000A35ABF4F2C91848D90E001968F7399275C
:10030000848FA689B7892C93A089B1898C91837039
:1003100080648C93938D848D981306C00288F38932
:10032000E02D80818F7D80830895EF92FF920F935F
:100330001F93CF93DF93EC0181E0888F9B8D8C8D91
:1003400098131AC0E889F989808185FF15C09FB785
:10035000F894EE89FF896083E889F9898081837048
:10036000806480839FBF81E090E0DF91CF911F91F7
:100370000F91FF90EF900895F62E0B8D10E00F5F18
:100380001F4F0F731127E02E8C8D8E110CC00FB6EE
:1003900007FCFACFE889F989808185FFF5CFCE0186
:1003A0000E947301F1CFEB8DEC0FFD2FF11DE35A8D
:1003B000FF4FF0829FB7F8940B8FEA89FB89808109
:1003C0008062CFCFCF93DF93EC01888D8823B9F083
:1003D000AA89BB89E889F9898C9185FD03C0808150
:1003E00086FD0DC00FB607FCF7CF8C9185FFF2CFCD
:1003F000808185FFEDCFCE010E947301E9CFDF91AF
:10040000CF91089520915B01260F3327331F2132AE
:100410003105ECF42091D301FC0190E080E0243020
:1004200069F082E00895A0915B012191AC01455CE7
:100430005E4FA40FB52FB11D2C930196861798F32C
:1004400080915B01680F60935B0180E0089581E01B
:1004500008951092D30181E08093D2011092AD01F2
:1004600061E082E10E94820061E083E10E948200FB
:10047000E9EBF0E080818E7F808380818D7F8083B7
:1004800088E48093B80085E48093BC000895CF93FE
:10049000DF9391E090933A018823B9F0C091B800BE
:1004A000D091BA008091BC008A7B8093BC0060E050
:1004B00082E10E94820060E083E10E9482000E944B
:1004C0002902D093BA00C093B800DF91CF9108956C
:1004D0008F929F92AF92BF92CF92DF92EF92FF9254
:1004E0000F931F93CF93DF93D091FC01D13208F08B
:1004F000D7C0182FC091FB010E94CE006B017C0178
:100500008091D30181116BC082E08093D30110935D
:10051000D2018FEF8093D1011092D001D093CF01FF
:10052000ABEDB1E0EFEAF1E080E0D81391C01092BA
:10053000AE018091AE01CC0FC82BC093AE0180916B
:10054000AD01813009F088C01092AD010E94CE004B
:100550006B017C018091AE018093BB008091D5013D
:100560009091D601A091D701B091D801892B8A2B07
:100570008B2BA1F00E94CE000091D5011091D601E5
:100580002091D7013091D8016C197D098E099F09FE
:10059000061717072807390708F442C08091BC00E6
:1005A00083FDD8CF85EC8093BC000E94CE006B0108
:1005B0007C018091D301823009F450C08091D10137
:1005C0008F3F09F46FC08091D101803209F46CC073
:1005D0008091D101803309F469C084E026C0809104
:1005E000D5019091D601A091D701B091D801892B66
:1005F0008A2B8B2B09F484CF0E94CE008090D501EA
:100600009090D601A090D701B090D8016C197D09C7
:100610008E099F0986169706A806B90608F070CFBE
:100620008091D4010E94470285E01092DA01109275
:10063000FC011092D901DF91CF911F910F91FF9092
:10064000EF90DF90CF90BF90AF909F908F900895E4
:100650009D9191938F5F69CF85EEA5CF8091D50154
:100660009091D601A091D701B091D801892B8A2B06
:100670008B2B09F49ECF0E94CE000091D5011091E2
:10068000D6012091D7013091D8016C197D098E09CE
:100690009F09061717072807390708F08ACFC0CF28
:1006A00081E0C3CF80E0C1CF82E0BFCF83E0BDCF88
:1006B0000895E091830180918201E81730F4F0E021
:1006C000EC57FE4F808190E008958FEF9FEF0895E3
:1006D00090918301809182012FEF3FEF981748F4AA
:1006E000E92FF0E0EC57FE4F208130E09F5F9093C0
:1006F0008301C90108958091820190918301891B32
:10070000990B0895CF92DF92EF92FF920F931F9370
:10071000CF93DF937C01CB018A012091D901222361
:1007200089F0EB016B01C40ED51ECC15DD0569F017
:100730006991D701ED91FC910190F081E02DC70105
:100740000995F3CF642F0E940202C801DF91CF9177
:100750001F910F91FF90EF90DF90CF900895CF936E
:10076000DF931F92CDB7DEB769832091D901222391
:10077000F9F02091FC01203258F021E030E0FC013A
:100780003383228390E080E00F90DF91CF91089532
:100790008091DA01E82FF0E0E552FE4F99819083D5
:1007A0008F5F8093DA018093FC0181E090E0ECCFD1
:1007B00061E0CE0101960E940202F7CF90E080E056
:1007C00008951F93CF93DF93EC01162F672F8B8132
:1007D0009C812A8131E03093D9012093FB01109252
:1007E000DA011092FC01DC01ED91FC910190F081A5
:1007F000E02D09958B819C81DC01ED91FC910190AC
:10080000F081E02D612FDF91CF911F910994FC01C0
:1008100001900020E9F73197AF01481B590BBC014B
:100820008DEF91E00C94F50085ED8093BC008091F4
:10083000D5019091D601A091D701B091D80107962A
:10084000A11DB11D23E0B695A795979587952A958B
:10085000D1F72091BC0024FD03C01092D30108956C
:100860004091D5015091D6016091D7017091D80186
:10087000452B462B472B69F30097A105B10541F0A5
:100880002AE22A95F1F700C00197A109B109E1CF49
:100890008091D4010C9447021F920F920FB60F92D1
:1008A00011242F933F938F939F93AF93BF93809186
:1008B000A5019091A601A091A701B091A801309146
:1008C000A40123E0230F2D3758F50196A11DB11D7A
:1008D0002093A4018093A5019093A601A093A70162
:1008E000B093A8018091A9019091AA01A091AB01B8
:1008F000B091AC010196A11DB11D8093A901909307
:10090000AA01A093AB01B093AC01BF91AF919F91AD
:100910008F913F912F910F900FBE0F901F901895C0
:1009200026E8230F0296A11DB11DD2CF1F920F9270
:100930000FB60F9211242F933F934F935F936F93B2
:100940007F938F939F93AF93BF93EF93FF938DEF1D
:1009500091E00E947301FF91EF91BF91AF919F9140
:100960008F917F916F915F914F913F912F910F9058
:100970000FBE0F901F9018951F920F920FB60F92F7
:1009800011242F938F939F93EF93FF93E0910D0288
:10099000F0910E028081E0911302F091140282FD29
:1009A0001BC09081809116028F5F8F732091170278
:1009B000821741F0E0911602F0E0E350FE4F958F70
:1009C00080931602FF91EF919F918F912F910F903D
:1009D0000FBE0F901F9018958081F4CF1F920F9239
:1009E0000FB60F9211242F933F934F935F936F9302
:1009F0007F938F939F93AF93BF93EF93FF938091D8
:100A0000B900887F803609F44AC0F0F5883209F4CD
:100A1000A7C018F5803109F49BC0B8F4882309F405
:100A2000F9C0883009F494C0FF91EF91BF91AF9164
:100A30009F918F917F916F915F914F913F912F91F6
:100A40000F900FBE0F901F901895883109F488C041
:100A5000803251F78093D10114C0803409F49DC0D5
:100A600040F48033B9F38833F9F68093D10185ECF3
:100A7000B0C0803509F485C0883509F496C0883443
:100A800099F60E941404D0CF883909F48CC038F547
:100A9000883729F050F4883611F0803729F683E042
:100AA0008093D30110927D0157C0883809F47BC030
:100AB000803919F0803809F0B7CF80917D018032FC
:100AC00008F071C0E0917D0181E08E0F80937D017F
:100AD0008091BB00F0E0E35AFE4F80833DC0803B35
:100AE00039F0E0F4803A09F479C0883A09F09CCFF3
:100AF00084E08093D30110925C0110925B01E0913D
:100B00008001F0918101099580915B0181110FC0F5
:100B100081E080935B0110923B0109C0803C09F4A5
:100B2000A6CF883C09F4A3CF883B09F07DCFE091A4
:100B30005C0181E08E0F80935C01F0E0E55CFE4F8C
:100B400080818093BB0090915C0180915B0129C002
:100B50008091AE018093BB0085EC8093BC0064CF94
:100B60009091D0018091CF01981758F5E091D00174
:100B700081E08E0F8093D001F0E0E155FE4F80813F
:100B8000E9CFE091D00181E08E0F8093D001809178
:100B9000BB00F0E0E155FE4F80839091D001809141
:100BA000CF019817C8F285E8D8CFE091D00181E055
:100BB0008E0F8093D0018091BB00F0E0E155FE4F95
:100BC00080838091D20181115CCF81E08093AD015F
:100BD00084EA8093BC001092D30126CF85EC8093E9
:100BE000BC001092D30180917D01803230F4E091FD
:100BF0007D01F0E0E35AFE4F108260917D0170E0CC
:100C0000E0917E01F0917F018DE591E009951092D0
:100C10007D010ACF1092D10134CFEDEFF1E01382C4
:100C2000128248EE53E060E070E0448355836683AF
:100C3000778384E091E09183808385EC90E09587D1
:100C4000848784EC90E09787868780EC90E0918B96
:100C5000808B81EC90E0938B828B82EC90E0958B83
:100C6000848B86EC90E0978B868B118E128E138E80
:100C7000148EA4EAB2E013961C921E921297149658
:100C80004D935D936D937C93179786E191E0119658
:100C90009C938E93E0EBF2E080E58283B483A383A0
:100CA00040E050E85683458336E0378320E42187CF
:100CB00088E291E091838083EAE9F2E062E5628371
:100CC000B483A383568345833783218791838083AD
:100CD0000895CF93DF93CDB7DEB7A7970FB6F894FB
:100CE000DEBF0FBECDBF789484B5826084BD84B56D
:100CF000816084BD85B5826085BD85B5816085BD17
:100D000080916E00816080936E00109281008091CE
:100D10008100826080938100809181008160809356
:100D20008100809180008160809380008091B1007B
:100D300084608093B1008091B00081608093B000A6
:100D400080917A00846080937A0080917A0082603A
:100D500080937A0080917A00816080937A008091FC
:100D60007A00806880937A001092C100E0910D02B1
:100D7000F0910E0282E08083E0910902F0910A0274
:100D80001082E0910B02F0910C0280E180831092BE
:100D90001502E0911102F091120286E08083E09149
:100DA0000F02F0911002808180618083E0910F0238
:100DB000F0911002808188608083E0910F02F091B1
:100DC0001002808180688083E0910F02F091100210
:100DD00080818F7D80838AE291E00E94070486E310
:100DE00091E00E94070410928301109282011092F8
:100DF000DA011092FC010E94290283EF90E09093A7
:100E000081018093800184EF90E090937F01809333
:100E10007E018AE290E09DA38CA382E090E09FA3F4
:100E20008EA3D12CC12C52E0E52EF12C1E0194E2B0
:100E3000290E311CA090B902B12CC601B5010E9447
:100E40000309A81AB90AEA14FB0408F4570110921E
:100E5000B802B60180EB92E00E94E103410110E08C
:100E600000E0A016B106C1F08091B3029091B402E7
:100E7000F40161914F01DC01ED91FC910190F08151
:100E8000E02D0995019741F40F5F1F4FEACFA1E0D4
:100E9000B0E0BFA3AEA3CECF81E00E9468028093F2
:100EA000B8028090B702912CB12CA12C0E94CE00E8
:100EB0002B013C0181149104A104B10409F0B6C0D6
:100EC0008091B80281110DC0E01AF10A200E311E86
:100ED000C00ED11EE114F10421F08EA19FA1019753
:100EE000B1F61092B802A2E0B0E0BFA3AEA3F12C1D
:100EF000E12C22E0522E4E01B2E28B0E911C2224F4
:100F00002A9435EE332E45EC442EB70180EB92E067
:100F10000E94E10381E00E946802682E8093B8027B
:100F2000811114C10091B2020E94CE005B016C01DC
:100F30008091D30181118BC0152DF0E2F51508F4D5
:100F400010E281E08093D3018093D2012092D101FD
:100F50001092D0019FEF910F9093CF018093AE013B
:100F60008091AE01000F082B0093AE018091AD017E
:100F7000813009F0BCC01092AD010E94CE005B012F
:100F80006C018091AE018093BB008091D50190915E
:100F9000D601A091D701B091D801892B8A2B8B2B38
:100FA000A1F00E94CE002091D5013091D601409150
:100FB000D7015091D8016A197B098C099D09261720
:100FC00037074807590708F463C08091BC0083FDC8
:100FD000D8CF4092BC000E94CE005B016C01809192
:100FE000D301813009F486C08091D001811710F4BB
:100FF0001091D001AFEAB1E0E4E8F1E0611609F444
:101000004BC08D9181936394F9CFB1E08B1A910815
:10101000A108B108E8EE4E0EE3E05E1E611C711CF3
:1010200081149104A104B10409F444CF0E94CE00BC
:101030006419750986099709683E73408105910511
:1010400020F738CFE1E0F0E0FFA3EEA35ECF809180
:10105000D5019091D601A091D701B091D801892BEB
:101060008A2B8B2B09F464CF0E94CE002091D501EE
:101070003091D6014091D7015091D8016A197B096E
:101080008C099D09261737074807590708F050CFE4
:101090008091D4010E9447021092830160928201E4
:1010A000640110E000E0712C4601061517050CF0F4
:1010B00043C08091B3029091B402DC01ED91FC91A8
:1010C0000084F185E02D0995892BB1F18091B3025F
:1010D0009091B402DC01ED91FC910284F385E02D46
:1010E0000995F60181936F010F5F1F4FDDCF30929D
:1010F000BC0071CF8091D5019091D601A091D7010C
:10110000B091D801892B8A2B8B2B09F468CF0E94D0
:10111000CE002091D5013091D6014091D701509158
:10112000D8016A197B098C099D09261737074807DA
:10113000590708F054CFACCF501AE00EF11E5520DD
:1011400029F08EA19FA1019709F07CCFCAA0DBA056
:101150000D2C000CEE08FF08F7FE3AC06DE28DEF93
:1011600091E00E94950122273327A9012C193D09FE
:101170004E095F0919A28E010F5D1F4F9AE0C92E1B
:10118000D12CE12CF12CCA01B901A70196010E94D2
:101190001709605DD8016E938D0121153105410558
:1011A000510589F70115110519F0C8010E940704BE
:1011B00086E391E00E94070400E010E001151105AC
:1011C000E9F30E945F018823C9F30E940000F6CF73
:1011D000A701960119A28E010F5D1F4F8AE0C82E4C
:1011E000D12CE12CF12CCA01B901A70196010E9472
:1011F0001709605DF80162938F01211531054105E2
:10120000510589F7CFCFAA1BBB1B51E107C0AA1F0D
:10121000BB1FA617B70710F0A61BB70B881F991F97
:101220005A95A9F780959095BC01CD010895A1E24A
:101230001A2EAA1BBB1BFD010DC0AA1FBB1FEE1F50
:10124000FF1FA217B307E407F50720F0A21BB30B9B
:10125000E40BF50B661F771F881F991F1A9469F717
:1012600060957095809590959B01AC01BD01CF0173
:101270000895EE0FFF1F0590F491E02D0994F89466
:02128000FFCF9E
:10128200000000009501F5002201E2015301310145
:10129200450100000000AF038203DE0358037B0315
:1012A2006803590300000000E1035374617274691A
:0A12B2006E67207570000D0A000041
:00000001FF
