:100000000C945D000C9485000C9485000C94850084
:100010000C9485000C9485000C9485000C9485004C
:100020000C9485000C9485000C9485000C9485003C
:100030000C9485000C9485000C9485000C9485002C
:100040000C947F070C9485000C94EF070C94C9075F
:100050000C9485000C9485000C9485000C9485000C
:100060000C9485000C94850000000008000201003B
:100070000003040700000000000000000000000072
:10008000250028002B0000000000240027002A0083
:10009000040404040404040402020202020203032E
:1000A0000303030301020408102040800102040836
:1000B0001020010204081020210811241FBECFEFD8
:1000C000D8E0DEBFCDBF11E0A0E0B1E0EAE5F7E1A6
:1000D00002C005900D92AC3BB107D9F722E0ACEB22
:1000E000B1E001C01D92A338B207E1F710E0CDE501
:1000F000D0E004C02197FE010E94A50BCC35D107AA
:10010000C9F70E946B080C94AB0B0C94000090E0B4
:10011000FC01EC55FF4F249180579F4FFC018491C7
:10012000882399F090E0880F991FFC01EA57FF4F50
:10013000A591B491FC01E458FF4F859194918FB73C
:10014000F894EC91E22BEC938FBF089580E48093B8
:100150007C0080917A00806480937A0080917A009C
:1001600086FDFCCF8091780090917900089590E011
:10017000FC01E859FF4F2491FC01EC55FF4F3491ED
:10018000FC01E057FF4FE491EE23C9F0222339F040
:10019000233001F1A8F4213019F1223029F1F0E0E7
:1001A000EE0FFF1FE458FF4FA591B4918FB7F8945D
:1001B000EC91611126C030953E233C938FBF08958A
:1001C0002730A9F02830C9F0243049F78091800009
:1001D0008F7D03C0809180008F7780938000DFCF78
:1001E00084B58F7784BDDBCF84B58F7DFBCF8091C5
:1001F000B0008F778093B000D2CF8091B0008F7D18
:10020000F9CF3E2BDACF3FB7F8948091CA01909195
:10021000CB01A091CC01B091CD0126B5A89B05C022
:100220002F3F19F00196A11DB11D3FBFBA2FA92F75
:10023000982F8827BC01CD01620F711D811D911D72
:1002400042E0660F771F881F991F4A95D1F70895DE
:100250008F929F92AF92BF92CF92DF92EF92FF92D6
:100260004B015C010E9403016B017C010E940301B0
:100270006C197D098E099F09683E734081059105BF
:10028000A8F321E0821A9108A108B10888EEC80EEF
:1002900083E0D81EE11CF11C81149104A104B10477
:1002A00029F7FF90EF90DF90CF90BF90AF909F9095
:1002B0008F900895AF92BF92CF92DF92EF92FF920C
:1002C0000F931F93CF93DF936C017B018B01040F7E
:1002D000151FEB015E01AE18BF08C017D10759F01A
:1002E0006991D601ED91FC910190F081E02DC6015C
:1002F0000995892B79F7C501DF91CF911F910F9156
:10030000FF90EF90DF90CF90BF90AF900895FC01E9
:10031000538D448D252F30E0842F90E0821B930B6A
:10032000541710F0CF96089501970895FC01918D10
:10033000828D981761F0A28DAE0FBF2FB11D5D9613
:100340008C91928D9F5F9F73928F90E008958FEFB5
:100350009FEF0895FC01918D828D981731F0828D69
:10036000E80FF11D858D90E008958FEF9FEF0895C0
:10037000FC01918D228D892F90E0805C9F4F821B24
:1003800091098F73992708958EEC91E00E94B8012E
:1003900021E0892B09F420E0822F089580E090E08D
:1003A000892B29F00E94C40181110C94000008954A
:1003B000FC01A48DA80FB92FB11DA35ABF4F2C91DA
:1003C000848D90E001968F739927848FA689B789D1
:1003D0002C93A089B1898C91837080648C93938DC8
:1003E000848D981306C00288F389E02D80818F7D6B
:1003F00080830895EF92FF920F931F93CF93DF9323
:10040000EC0181E0888F9B8D8C8D98131AC0E88950
:10041000F989808185FF15C09FB7F894EE89FF891F
:100420006083E889F98980818370806480839FBFBD
:1004300081E090E0DF91CF911F910F91FF90EF90BD
:100440000895F62E0B8D10E00F5F1F4F0F731127CD
:10045000E02E8C8D8E110CC00FB607FCFACFE88908
:10046000F989808185FFF5CFCE010E94D801F1CFB7
:10047000EB8DEC0FFD2FF11DE35AFF4FF0829FB77C
:10048000F8940B8FEA89FB8980818062CFCFCF936C
:10049000DF93EC01888D8823B9F0AA89BB89E889AC
:1004A000F9898C9185FD03C0808186FD0DC00FB652
:1004B00007FCF7CF8C9185FFF2CF808185FFEDCFD0
:1004C000CE010E94D801E9CFDF91CF910895089520
:1004D00090E080E00895CF93DF93EC0160E08E819F
:1004E0000E94B70061E08E810E94B70060E08E81BB
:1004F0000E94B7008BE891E00197F1F7DF91CF916F
:100500000895CF92DF92EF92FF920F931F93CF93B4
:10051000DF936C017C0187E0E80EF11CD0E0C0E0C5
:10052000062F10E0B8010C2E02C0759567950A944D
:10053000E2F76170F70181917F010E94B700219677
:10054000C430D10579F7C601DF91CF911F910F918A
:10055000FF90EF90DF90CF900C946B02CF92DF92E0
:10056000EF92FF920F931F93CF93DF93EC01F62E40
:10057000642F8C810E94B7008D818F3F19F060E05D
:100580000E94B7000F2D10E08F8584FF25C06E01FB
:1005900087E0C80ED11CF12CE12CB8010E2C02C052
:1005A000759567950A94E2F76170F60181916F0184
:1005B0000E94B700FFEFEF1AFF0A88E0E816F10487
:1005C00061F7CE01DF91CF911F910F91FF90EF90D6
:1005D000DF90CF900C946B02B80184E0759567951D
:1005E0008A95E1F7CE010E9481026F2DCE01DF9145
:1005F000CF911F910F91FF90EF90DF90CF900C94CF
:10060000810240E0682F8BE692E00C94AE0281E01C
:100610000E9401038BE39FE10197F1F70895CF93C7
:10062000DF93823029F490917A02986090937A0255
:1006300080937E0210927F0280E48093800280E1AA
:100640008093810280E58093820280916F020E94F4
:100650008700809170028F3F11F00E948700809187
:1006600071020E948700CBE6D2E09E012B563240F9
:1006700080917A0284FD0AC084E090E021962817D8
:1006800039073CF48E810E948700EFCF88E090E02C
:10069000F5CF8BE39DE00197F1F760E080916F0269
:1006A0000E94B70060E0809171020E94B7008091C3
:1006B00070028F3F19F060E00E94B70080917A02CB
:1006C00084FD34C063E08BE692E00E948102CBE4BB
:1006D000D6E4CE010197F1F763E08BE692E00E9449
:1006E00081022197F1F763E08BE692E00E9481029C
:1006F00083E592E00197F1F762E08BE692E00E94D9
:10070000810280917A0280620E94010384E08093DA
:100710007B028CE00E9401030E94070382E0809329
:100720007C0286E0DF91CF910C94010380620E94ED
:1007300001038BE496E40197F1F780917A028062DD
:100740000E94010383E592E00197F1F780917A021C
:1007500080620E940103D5CF90917E02691710F04C
:100760006FEF690FE62FF0E0E559FD4F9489890F8F
:1007700080680C940103EBE6F2E080898D7F808B2A
:1007800088600C94010380910301882359F0109232
:10079000030180917B02982F926090937B028A6084
:1007A0000C94010381E0809303010C94BB0341E0AE
:1007B0000E94AE0281E090E00895FB0101900020CC
:1007C000E9F73197AF01461B570BDC01ED91FC9126
:1007D0000280F381E02D0994BC018BE692E00C9439
:1007E000DD039091040146E050E0913011F047E0C4
:1007F00050E020910101309102018430A9F5C90136
:1008000001978A30910549F18C30910531F190932F
:1008100002018093010180910101909102018417EE
:10082000950734F48DE090E09093020180930101EC
:1008300061E08DE00E94AC03809101019091020182
:100840000D9761F583E291E00E94EC030E94BB03E7
:1008500061E0809101010C94AC0322503109309386
:10086000020120930101D7CF813011F7C9018D7F9B
:10087000099789F02F5F3F4F3093020120930101C8
:1008800080910101909102010E9794F25093020120
:1008900040930101CDCF2E5F3F4FEECF8AE391E031
:1008A0000E94EC03809103018111D2CF80917B02E1
:1008B000982F926090937B028A600E940103C8CFB8
:1008C0008F929F92AF92BF92CF92DF92EF92FF9260
:1008D000CF93DF93CDB7DEB7A1970FB6F894DEBF05
:1008E0000FBECDBF6C01990FEE08FF08F7FE40C0A8
:1008F00041E06DE28BE692E00E94AE0222273327B0
:10090000A9012C193D094E095F0919A2CE01819652
:100910007C019AE0892E912CA12CB12CCA01B9013D
:10092000A50194010E946F0B605DF70162937F0146
:10093000211531054105510589F790E080E0309798
:1009400029F0BF018BE692E00E94DD030196A1969B
:100950000FB6F894DEBF0FBECDBFDF91CF91FF90F1
:10096000EF90DF90CF90BF90AF909F908F900895C1
:10097000A701960119A2CE0181967C018AE0882EFA
:10098000912CA12CB12CCA01B901A50194010E949E
:100990006F0B605DF70162937F0121153105410501
:1009A000510589F790E080E0309789F2BF018BE62E
:1009B00092E00E94DD03CBCFCF92DF92EF92FF92C5
:1009C0000F931F93CF93DF93C82F8A3091F40E9427
:1009D000070360E080E00E94AC0385E291E00E94A2
:1009E000EC0361E080E00E94AC0383E391E00E94AD
:1009F000EC038C2F0E94F1038EEF8C0F823000F5F8
:100A000080910101909102018730910509F474C031
:100A10008830910509F4D3C08930910509F4D6C016
:100A20008B30910509F4D9C0C12CD12C76010D97DA
:100A300009F068C08091C00191E089278093C001CE
:100A40006091C1017091C2018091C3019091C40174
:100A50000E94E609EB0161E087E00E94AC03CE0151
:100A600068EE73E00E945B0B04E610E0B8010E94A0
:100A70005B0BCB010E946004CE01B8010E945B0BAE
:100A80000AE010E0B8010E945B0BCB010E946004F9
:100A9000CE01B8010E945B0B0E9460048CE391E0E0
:100AA0000E94EC03C090C101D090C201E090C3014C
:100AB000F090C401C701B6010E941C0A9B01AC0161
:100AC000C701B6010E94740920E030E040E251E421
:100AD0000E94EE0A0E94E609CB010E94600461E0D8
:100AE00080910101DF91CF911F910F91FF90EF90C5
:100AF000DF90CF900C94AC03C12CD12C38ECE32EBA
:100B000032E4F32E6091C1017091C2018091C30162
:100B10009091C401C23009F068C09B01AC01C701CB
:100B2000B6010E9475096093C1017093C201809360
:100B3000C3019093C401C090C101D090C201E09064
:100B4000C301F090C40120E030E044EB53E4C7015E
:100B5000B6010E94E90A87FD10C020E030E044EBB6
:100B600053E4C701B6010E9474096093C1017093F8
:100B7000C2018093C3019093C401C090C101D09081
:100B8000C201E090C301F090C40120E030E0A9016F
:100B9000C701B6010E94E10987FF52CF20E030E093
:100BA00044EB53E4C701B6010E9475096093C1018B
:100BB0007093C2018093C3019093C40141CFC12CB3
:100BC000D12C20E2E22E21E4F22E9CCFC12CD12C9C
:100BD00090E8E92E9FE3F92E95CF8DECC82E8CEC92
:100BE000D82EED2C8DE3F82E8DCFA70196010E9413
:100BF000740999CFCF92DF92EF92FF920F931F93D8
:100C0000CF93DF93C82F8A3091F40E94070360E0EE
:100C100080E00E94AC038EE391E00E94EC0361E06F
:100C200080E00E94AC038CE491E00E94EC038C2FE6
:100C30000E94F1038EEF8C0F823008F58091010144
:100C4000909102018630910509F482C087309105A8
:100C500009F4CDC08830910509F4CEC089309105E2
:100C600009F4CFC08B30910509F4D0C00D9709F07D
:100C7000D2C08091C00191E089278093C00160912A
:100C8000BC017091BD018091BE019091BF010E9495
:100C9000E609EB0161E086E00E94AC03C83E83E018
:100CA000D8070CF4C3C0CE0168EE73E00E945B0B62
:100CB000CB010E946004CE0168EE73E00E945B0BE2
:100CC00004E610E0B8010E945B0BCB010E946004B7
:100CD000CE01B8010E945B0B0AE010E0B8010E944F
:100CE0005B0BCB010E946004CE01B8010E945B0B3C
:100CF0000E9460048CE391E00E94EC03C090BC0170
:100D0000D090BD01E090BE01F090BF01C701B601D7
:100D10000E941C0A9B01AC01C701B6010E94740924
:100D200020E030E040E251E40E94EE0A0E94E60931
:100D3000CB010E94600461E080910101DF91CF91BD
:100D40001F910F91FF90EF90DF90CF900C94AC0328
:100D500060E070E08AE794E4C090BC01D090BD01EF
:100D6000E090BE01F090BF01C23009F058C0A70169
:100D700096010E9475096093BC017093BD01809338
:100D8000BE019093BF0120E030E04AE754E4609157
:100D9000BC017091BD018091BE019091BF010E9484
:100DA000E90A181664F480E090E0AAE7B4E48093BE
:100DB000BC019093BD01A093BE01B093BF0120E0A0
:100DC00030E0A9016091BC017091BD018091BE012C
:100DD0009091BF010E94E10987FF51CF1092BC01A1
:100DE0001092BD011092BE011092BF0148CF60E089
:100DF00070E088EC92E4B0CF60E070E080E291E4D3
:100E0000ABCF60E070E080E89FE3A6CF6DEC7CECB8
:100E10008CEC9DE3A1CF60E070E0CB019DCF9B0106
:100E2000AC01C701B6010E947409A5CF90E080E033
:100E300040CFCF9390910401853071F59230D8F472
:100E40000E94C30380910401823009F456C0C0910E
:100E5000C00161E08EE00E94AC0388E791E0C1111F
:100E600002C08BE791E00E94EC0361E080910101F8
:100E7000CF910C94AC0380910001882339F081E07C
:100E8000809304018AE00E94FA05DACF10920401EF
:100E90008AE00E94DC04D4CF992329F0913031F408
:100EA0000E94FA05CFCF0E94DC04CCCF8A30B9F47F
:100EB0000E94070360E080E00E94AC038EE791E0AF
:100EC0000E94EC0361E080E00E94AC03809100018D
:100ED000882381F084E591E00E94EC03B3CF813058
:100EE00011F0843079F78091000191E08927809397
:100EF0000001E8CF86E691E0EFCFCF9108951F92F1
:100F00000F920FB60F9211242F933F938F939F93BD
:100F1000AF93BF938091C6019091C701A091C80182
:100F2000B091C9013091C50123E0230F2D3758F549
:100F30000196A11DB11D2093C5018093C601909318
:100F4000C701A093C801B093C9018091CA019091D3
:100F5000CB01A091CC01B091CD010196A11DB11D95
:100F60008093CA019093CB01A093CC01B093CD01A3
:100F7000BF91AF919F918F913F912F910F900FBE95
:100F80000F901F90189526E8230F0296A11DB11D02
:100F9000D2CF1F920F920FB60F9211242F933F932F
:100FA0004F935F936F937F938F939F93AF93BF9371
:100FB000EF93FF938EEC91E00E94D801FF91EF91A7
:100FC000BF91AF919F918F917F916F915F914F9161
:100FD0003F912F910F900FBE0F901F9018951F9269
:100FE0000F920FB60F9211242F938F939F93EF932D
:100FF000FF93E091DE01F091DF018081E091E40157
:10100000F091E50182FD1BC090818091E7018F5F27
:101010008F732091E801821741F0E091E701F0E041
:10102000E253FE4F958F8093E701FF91EF919F91DF
:101030008F912F910F900FBE0F901F901895808168
:10104000F4CFEEECF1E01382128288EE93E0A0E0A0
:10105000B0E084839583A683B78389E091E0918390
:10106000808385EC90E09587848784EC90E0978777
:10107000868780EC90E0918B808B81EC90E0938B65
:10108000828B82EC90E0958B848B86EC90E0978B42
:10109000868B118E128E138E148EEBE6F2E0138285
:1010A00012828BE191E09183808388E084838FEFCB
:1010B000858389E0868384E0878385E0808786E076
:1010C000818787E0828713861486158616861786A1
:1010D00081E00C940F03789484B5826084BD84B55C
:1010E000816084BD85B5826085BD85B5816085BD23
:1010F00080916E00816080936E00109281008091DB
:101100008100826080938100809181008160809362
:101110008100809180008160809380008091B10087
:1011200084608093B1008091B00081608093B000B2
:1011300080917A00846080937A0080917A00826046
:1011400080937A0080917A00816080937A00809108
:101150007A00806880937A001092C100E091DE01ED
:10116000F091DF0182E08083E091DA01F091DB0110
:101170001082E091DC01F091DD0180E1808310922A
:10118000E601E091E201F091E30186E08083E091E5
:10119000E001F091E101808180618083E091E001D4
:1011A000F091E101808188608083E091E001F0911D
:1011B000E101808180688083E091E001F091E101AC
:1011C00080818F7D808382E00E940F030E9407034D
:1011D00060E082E00E94AC038CE891E00E94EC03A6
:1011E00061E080E00E94AC0388E991E00E94EC039A
:1011F00060ED77E080E090E00E9428010E94070304
:101200008AE00E94190769EA71E08EEC91E00E9481
:10121000DD0369EB71E08EEC91E00E94DD03FF24B9
:10122000F39492E0E92E80E0C82E80E0D82E0E9450
:10123000A600883E93400CF04BC064E670E080E06E
:1012400090E00E9428010E94A600C1E0D0E0823315
:101250009105C4F0C2E0D0E0883C91059CF0C3E069
:10126000D0E08C3721E092076CF0C4E0D0E0883504
:1012700022E092073CF0C5E0D0E08235934014F0C4
:10128000D0E0C0E010E000E00E94A600883E93405D
:10129000D4F40F5F1F4F64E670E080E090E00E949E
:1012A0002801C530D10581F7053111056CF3E092B5
:1012B00004010E94BB03F092030186E00E9419071B
:1012C000C6E0D0E0E1CF209719F08C2F0E941907DB
:1012D000C114D10409F4ABCF0E94C401882309F4DE
:1012E000A2CF0E9400009FCF5058BB27AA270E9480
:1012F0008C090C94970A0E94890A38F00E94900A7F
:1013000020F039F49F3F19F426F40C94860A0EF469
:10131000E095E7FB0C94570AE92F0E94A80A58F3BE
:10132000BA17620773078407950720F079F4A6F5CA
:101330000C94E20A0EF4E0950B2EBA2FA02D0B01AF
:10134000B90190010C01CA01A0011124FF27591B0A
:1013500099F0593F50F4503E68F11A16F040A22F10
:10136000232F342F4427585FF3CF46953795279581
:10137000A795F0405395C9F77EF41F16BA0B620B80
:10138000730B840BBAF09150A1F0FF0FBB1F661FC7
:10139000771F881FC2F70EC0BA0F621F731F841F0A
:1013A00048F4879577956795B795F7959E3F08F030
:1013B000B0CF9395880F08F09927EE0F97958795F2
:1013C00008950E94330A08F481E008950E94ED090F
:1013D0006894B1110C94E30A08950E94B00A88F051
:1013E0009F5798F0B92F9927B751B0F0E1F0660FE9
:1013F000771F881F991F1AF0BA95C9F714C0B1302A
:1014000091F00E94E20AB1E008950C94E20A672F7D
:10141000782F8827B85F39F0B93FCCF38695779558
:101420006795B395D9F73EF4909580957095619541
:101430007F4F8F4F9F4F08950E94CA0A90F09F37A9
:1014400048F4911116F00C94E30A60E070E080E833
:101450009FEB089526F41B16611D711D811D0C94D0
:101460005D0A0C94780A990F0008550FAA0BE0E862
:10147000FEEF16161706E807F907C0F01216130656
:10148000E407F50798F0621B730B840B950B39F496
:101490000A2661F0232B242B252B21F408950A26FC
:1014A00009F4A140A6958FEF811D811D089597F93C
:1014B0009F6780E870E060E00895882371F47723E7
:1014C00021F09850872B762F07C0662311F49927B7
:1014D0000DC09051862B70E060E02AF09A95660F5F
:1014E000771F881FDAF7880F9695879597F90895E3
:1014F0009F3F31F0915020F4879577956795B79588
:10150000880F911D9695879597F908959FEF80EC28
:10151000089500240A941616170618060906089559
:1015200000240A9412161306140605060895092EBF
:101530000394000C11F4882352F0BB0F40F4BF2B2E
:1015400011F460FF04C06F5F7F4F8F4F9F4F08956E
:1015500057FD9058440F551F59F05F3F71F0479564
:10156000880F97FB991F61F09F3F79F08795089549
:10157000121613061406551FF2CF4695F1DF08C068
:10158000161617061806991FF1CF86957105610585
:10159000089408950E94B00AA0F0BEE7B91788F435
:1015A000BB279F3860F41616B11D672F782F882748
:1015B000985FF7CF869577956795B11D9395963986
:1015C000C8F30895E894BB2766277727CB0197F9DE
:1015D00008950E94330A08F48FEF08950E94010BCA
:1015E0000C94970A0E94890A38F00E94900A20F011
:1015F000952311F00C94570A0C94860A11240C942C
:10160000E30A0E94A80A70F3959FC1F3950F50E07A
:10161000551F629FF001729FBB27F00DB11D639FA4
:10162000AA27F00DB11DAA1F649F6627B00DA11D4A
:10163000661F829F2227B00DA11D621F739FB00DF0
:10164000A11D621F839FA00D611D221F749F332760
:10165000A00D611D231F849F600D211D822F762FF9
:101660006A2F11249F5750409AF0F1F088234AF0D6
:10167000EE0FFF1FBB1F661F771F881F9150504042
:10168000A9F79E3F510580F00C94570A0C94E30A89
:101690005F3FE4F3983ED4F3869577956795B795C9
:1016A000F795E7959F5FC1F7FE2B880F911D9695E3
:1016B000879597F9089597FB072E16F4009407D0A5
:1016C00077FD09D00E94910B07FC05D03EF4909560
:1016D00081959F4F0895709561957F4F0895A1E280
:1016E0001A2EAA1BBB1BFD010DC0AA1FBB1FEE1F9C
:1016F000FF1FA217B307E407F50720F0A21BB30BE7
:10170000E40BF50B661F771F881F991F1A9469F762
:1017100060957095809590959B01AC01BD01CF01BE
:101720000895AA1BBB1B51E107C0AA1FBB1FA61728
:10173000B70710F0A61BB70B881F991F5A95A9F77A
:1017400080959095BC01CD010895EE0FFF1F059087
:0A175000F491E02D0994F894FFCF06
:10175A00010700010200000000FA015A018701474F
:10176A0002B8019601AA0100000000D7035A0168D5
:10177A000267023E00202020416E676C65204D6F93
:10178A00646500416E676C653A2020002E002020B7
:10179A00205370656564204D6F64650053706565FC
:1017AA00643A20003E2053504545442020202041E1
:1017BA004E474C4520002020535045454420203EAA
:1017CA0020414E474C4520004343004357002043E5
:1017DA004F4E54524F4C20545950450048454C4C9A
:1017EA004F205553455221004C43442053595354DA
:1017FA00454D205245414459005365747570206324
:0C180A006F6D706C65746564000D0A0061
:00000001FF
