:100000000C9461000C947E000C947E000C947E0095
:100010000C947E000C947E000C947E000C947E0068
:100020000C947E000C947E000C947E000C947E0058
:100030000C947E000C947E000C947E000C947E0048
:100040000C9407010C947E000C947E000C947E00AE
:100050000C947E000C947E000C947E000C947E0028
:100060000C947E000C947E00000000002500280007
:100070002B0000000000240027002A0000000000E0
:1000800023002600290004040404040404040202DA
:100090000202020203030303030301020408102007
:1000A0004080010204081020010204081020000012
:1000B0000008000201000003040700000000000027
:1000C000000011241FBECFEFD8E0DEBFCDBF11E08E
:1000D000A0E0B1E0EAEAF4E002C005900D92A2309F
:1000E000B107D9F721E0A2E0B1E001C01D92A4312F
:1000F000B207E1F70E9451010C9453020C940000E6
:10010000833081F028F4813099F08230A9F008958D
:100110008730A9F08830C9F08430B1F48091800034
:100120008F7D03C0809180008F7780938000089539
:1001300084B58F7784BD089584B58F7DFBCF809182
:10014000B0008F778093B00008958091B0008F7DCC
:10015000F9CFCF93DF93E0EBF0E08491ECE9F0E0AE
:10016000D491E8E8F0E0C491CC23A1F081110E9481
:100170008000EC2FF0E0EE0FFF1FE458FF4FA59139
:10018000B491EC91ED2381E090E009F480E0DF91FF
:10019000CF91089580E090E0FACF1F93CF93DF9343
:1001A000282F30E0F901E255FF4F8491F901E6561E
:1001B000FF4FD491F901EA57FF4FC491CC23A9F026
:1001C000162F81110E948000EC2FF0E0EE0FFF1F30
:1001D000E859FF4FA591B4918FB7F894EC911111A4
:1001E00008C0D095DE23DC938FBFDF91CF911F91A4
:1001F0000895DE2BF8CF2FB7F89460910701709126
:1002000008018091090190910A012FBF08951F9262
:100210000F920FB60F9211242F933F938F939F93BA
:10022000AF93BF938091070190910801A0910901BC
:10023000B0910A013091060123E0230F2D3758F5C4
:100240000196A11DB11D2093060180930701909393
:100250000801A0930901B0930A01809102019091D5
:100260000301A0910401B09105010196A11DB11DEA
:100270008093020190930301A0930401B0930501C0
:10028000BF91AF919F918F913F912F910F900FBE92
:100290000F901F90189526E8230F0296A11DB11DFF
:1002A000D2CF789484B5826084BD84B5816084BDEA
:1002B00085B5826085BD85B5816085BD80916E0004
:1002C000816080936E001092810080918100826035
:1002D0008093810080918100816080938100809172
:1002E00080008160809380008091B1008460809361
:1002F000B1008091B00081608093B00080917A005D
:10030000846080937A0080917A00826080937A0082
:1003100080917A00816080937A0080917A00806871
:1003200080937A001092C100ECE9F0E02491E8E8B3
:10033000F0E084918823C1F090E0880F991FFC01C0
:10034000EE58FF4FC591D491FC01E859FF4FA5919C
:10035000B4919FB7F8948881E22FE0958E2388832B
:100360008C91E823EC939FBFE7EAF0E02491E3E966
:10037000F0E08491882399F090E0880F991FFC01A8
:10038000EE58FF4FA591B491FC01E859FF4F8591BC
:1003900094918FB7F894EC91E22BEC938FBF60911E
:1003A00000018DE00E94CD0061E082E00E94CD005E
:1003B00011E0C0E0D0E00E94A900892BE1F50E9485
:1003C000FB006B017C01C0921001D0921101E09200
:1003D0001201F09213010E94A9000197E1F70E9417
:1003E000FB006C197D098E099F0961357105810536
:1003F000910588F061E08091000190910101892BC5
:1004000009F060E0862F90E0909301018093000155
:100410008DE00E94CD000E94FB006C197D098E09C1
:100420009F09693B7B408105910528F080910F0170
:10043000812780930F0180910F01882371F10E9421
:10044000FB00C0900B01D0900C01E0900D01F090EA
:100450000E016C197D098E099F0961397140810572
:100460009105D8F061E08091000190910101892B04
:1004700009F060E0862F90E09093010180930001E5
:100480008DE00E94CD000E94FB0060930B017093F1
:100490000C0180930D0190930E01209709F48BCFEE
:0A04A0000E94000088CFF894FFCFFF
:0204AA0001004F
:00000001FF
