:020000040000FA
:100000000C9435000C945D000C945D000C945D0024
:100010000C945D000C945D000C945D000C945D00EC
:100020000C945D000C9484020C945D000C945D00B3
:100030000C945D000C945D000C945D000C945D00CC
:100040000C94E2010C945D000C9452020C942C026E
:100050000C945D000C945D000C945D000C945D00AC
:100060000C945D000C945D00AE0211241FBECFEF16
:10007000D8E0DEBFCDBF11E0A0E0B1E0E4E4FDE0F8
:1000800002C005900D92A833B107D9F721E0A8E38B
:10009000B1E001C01D92AE3EB207E1F710E0C5E34A
:1000A000D0E004C02197FE010E949A06C433D10714
:1000B000C9F70E940A030C94A0060C9400003FB7F5
:1000C000F89480913D0190913E01A0913F01B09143
:1000D000400126B5A89B05C02F3F19F00196A11D30
:1000E000B11D3FBFBA2FA92F982F8827BC01CD0182
:1000F000620F711D811D911D42E0660F771F881FE1
:10010000991F4A95D1F70895AF92BF92CF92DF928F
:10011000EF92FF920F931F93CF93DF936C017B01BC
:100120008B01040F151FEB015E01AE18BF08C0174D
:10013000D10759F06991D601ED91FC910190F081C0
:10014000E02DC6010995892B79F7C501DF91CF9183
:100150001F910F91FF90EF90DF90CF90BF90AF90E5
:100160000895FC01538D448D252F30E0842F90E0BD
:10017000821B930B541710F0CF96089501970895A2
:10018000FC01918D828D981761F0A28DAE0FBF2F6B
:10019000B11D5D968C91928D9F5F9F73928F90E0C1
:1001A00008958FEF9FEF0895FC01918D828D981730
:1001B00031F0828DE80FF11D858D90E008958FEF6D
:1001C0009FEF0895FC01918D228D892F90E0805C36
:1001D0009F4F821B91098F739927089581E491E0C5
:1001E0000E94E20021E0892B09F420E0822F08958B
:1001F00080E090E0892B29F00E94EE0081110C94A0
:1002000000000895FC01A48DA80FB92FB11DA35AB9
:10021000BF4F2C91848D90E001968F739927848F26
:10022000A689B7892C93A089B1898C918370806449
:100230008C93938D848D981306C00288F389E02DEA
:1002400080818F7D80830895EF92FF920F931F939B
:10025000CF93DF93EC0181E0888F9B8D8C8D981379
:100260001AC0E889F989808185FF15C09FB7F89485
:10027000EE89FF896083E889F989808183708064D1
:1002800080839FBF81E090E0DF91CF911F910F911C
:10029000FF90EF900895F62E0B8D10E00F5F1F4F2B
:1002A0000F731127E02E8C8D8E110CC00FB607FC3A
:1002B000FACFE889F989808185FFF5CFCE010E94C8
:1002C0000201F1CFEB8DEC0FFD2FF11DE35AFF4F33
:1002D000F0829FB7F8940B8FEA89FB898081806256
:1002E000CFCFCF93DF93EC01888D8823B9F0AA8913
:1002F000BB89E889F9898C9185FD03C0808186FDE1
:100300000DC00FB607FCF7CF8C9185FFF2CF80812F
:1003100085FFEDCFCE010E940201E9CFDF91CF91A1
:100320000895FC0101900020E9F73197AF01481BC7
:10033000590BBC0181E491E00C9484008F929F9250
:10034000AF92BF920F931F93CF93DF93CDB7DEB7DA
:10035000A1970FB6F894DEBF0FBECDBF19A24230F1
:1003600008F44AE08E010F5D1F4F842E912CB12CB2
:10037000A12CA50194010E947806E62FB901CA01BB
:10038000EA30F4F4E05DD801EE938D01232B242BA9
:10039000252B79F790E080E0109719F0CD010E94AD
:1003A0009101A1960FB6F894DEBF0FBECDBFDF91CD
:1003B000CF911F910F91BF90AF909F908F90089514
:1003C000E95CE1CF1F920F920FB60F9211242F9389
:1003D0003F938F939F93AF93BF93809139019091F7
:1003E0003A01A0913B01B0913C013091380123E0EA
:1003F000230F2D3758F50196A11DB11D209338010B
:100400008093390190933A01A0933B01B0933C0152
:1004100080913D0190913E01A0913F01B09140013A
:100420000196A11DB11D80933D0190933E01A093C3
:100430003F01B0934001BF91AF919F918F913F9148
:100440002F910F900FBE0F901F90189526E8230F45
:100450000296A11DB11DD2CF1F920F920FB60F921F
:1004600011242F933F934F935F936F937F938F93B9
:100470009F93AF93BF93EF93FF9381E491E00E942A
:100480000201FF91EF91BF91AF919F918F917F9169
:100490006F915F914F913F912F910F900FBE0F90F1
:1004A0001F9018951F920F920FB60F9211242F9341
:1004B0008F939F93EF93FF93E0915101F09152013D
:1004C0008081E0915701F091580182FD1BC090811D
:1004D00080915A018F5F8F7320915B01821741F0E9
:1004E000E0915A01F0E0EF5BFE4F958F80935A0147
:1004F000FF91EF919F918F912F910F900FBE0F90D1
:100500001F9018958081F4CF1F920F920FB60F9213
:1005100011242F933F934F935F936F937F938F9308
:100520009F93AF93BF93EF93FF93E091EC01F09112
:10053000ED010190F081E02D0995FF91EF91BF91C0
:10054000AF919F918F917F916F915F914F913F916B
:100550002F910F900FBE0F901F901895109244018D
:100560001092430188EE93E0A0E0B0E08093450153
:1005700090934601A0934701B093480184E091E035
:10058000909342018093410185EC90E090934E015D
:1005900080934D0184EC90E09093500180934F0143
:1005A00080EC90E0909352018093510181EC90E0B7
:1005B000909354018093530182EC90E09093560104
:1005C0008093550186EC90E09093580180935701F9
:1005D00010925A0110925B0110925C0110925D0121
:1005E0008091E40181110FC01092E1011092E001AD
:1005F0001092DF011092DE011092E3011092E201ED
:1006000081E08093E4018EED91E09093ED01809381
:10061000EC010895789484B5826084BD84B58160CE
:1006200084BD85B5826085BD85B5816085BD8091BD
:100630006E00816080936E00109281008091810035
:10064000826080938100809181008160809381002D
:10065000809180008160809380008091B1008460EF
:100660008093B1008091B00081608093B000809150
:100670007A00846080937A0080917A00826080930F
:100680007A0080917A00816080937A0080917A006C
:10069000806880937A001092C100E091EC01F091A3
:1006A000ED0182819381892B51F51092B000109257
:1006B000B1008091B00081608093B0008091B00063
:1006C0008D7F8093B0008091B10088608093B100ED
:1006D00082E090E09583848388E28093B3008281F6
:1006E0009381029741F49091B10084818770987F43
:1006F000892B8093B10081E090E093838283E09125
:100700005101F091520182E08083E0914D01F0911E
:100710004E011082E0914F01F091500180E1808301
:1007200010925901E0915501F091560186E08083C5
:10073000E0915301F0915401808180618083E091C8
:100740005301F0915401808188608083E0915301CE
:10075000F0915401808180688083E0915301F09191
:10076000540180818F7D808300E010E0C7E0D0E0FD
:10077000C12CD12C90EFE92E91E4F92E82E191E089
:100780000E949101A7019601C701B6010E9473065C
:10079000882309F451C089E291E00E94910185E328
:1007A00091E00E949101E091EC01F091ED018281D4
:1007B00093810197039710F48091B3000E945F002A
:1007C0002B013C0188EE882E83E0982EA12CB12CC1
:1007D0000E945F006419750986099709683E734095
:1007E00081059105A8F321E0821A9108A108B108BA
:1007F00088EE480E83E0581E611C711C8114910420
:10080000A104B10429F720E030E040E251E4C7013F
:10081000B6010E94AF046B017C01219709F0AECFB5
:100820000115110509F4A2CF0E94EE00882309F4F6
:100830009DCF0E9400009ACF46015701E894B7F877
:100840002FEF3FEF4FE75FE7C501B4010E9473064A
:1008500081110DC02FEF3FEF4FE75FE7C501B401F6
:100860000E941B0518161CF48DE291E096CF2FEF25
:100870003FEF4FE75FE4C701B6010E94010618167B
:100880001CF481E391E089CF2FEF3FEF4FE75FEC5E
:10089000C701B6010E941B0587FDF3CF20E030E0C1
:1008A000A901C701B6010E941B0587FF54C06DE274
:1008B00081E491E00E942401C701B60190582AE02A
:1008C00037ED43EA5BE30E94AF042B013C010E9439
:1008D00020054B015C010E944F059B01AC01C30147
:1008E000B2010E94AE042B013C014AE0C501B401F3
:1008F0000E949E016EE281E491E00E94240120E0CA
:1009000030E040E251E4C301B2010E9406062B012F
:100910003C010E9420054B01B12CA12C4AE0C501ED
:10092000B4010E949E01C501B4010E944F059B01C4
:10093000AC01C301B2010E94AE0420E030E040E20D
:1009400051E40E9406060E94200590E080E04AE003
:100950000E949E0124CFC701B601B1CF5058BB27DA
:10096000AA270E94C6040C94C7050E94B90538F056
:100970000E94C00520F039F49F3F19F426F40C942E
:10098000B6050EF4E095E7FB0C94B005E92F0E9444
:10099000D80558F3BA17620773078407950720F044
:1009A00079F4A6F50C94FA050EF4E0950B2EBA2F07
:1009B000A02D0B01B90190010C01CA01A001112465
:1009C000FF27591B99F0593F50F4503E68F11A1611
:1009D000F040A22F232F342F4427585FF3CF4695A2
:1009E00037952795A795F0405395C9F77EF41F16C4
:1009F000BA0B620B730B840BBAF09150A1F0FF0F8E
:100A0000BB1F661F771F881FC2F70EC0BA0F621F79
:100A1000731F841F48F4879577956795B795F79569
:100A20009E3F08F0B0CF9395880F08F09927EE0FFE
:100A30009795879508950E948C0508F481E00895A4
:100A40000E94E00588F09F5798F0B92F9927B75179
:100A5000B0F0E1F0660F771F881F991F1AF0BA9562
:100A6000C9F714C0B13091F00E94FA05B1E00895C1
:100A70000C94FA05672F782F8827B85F39F0B93FB3
:100A8000CCF3869577956795B395D9F73EF4909515
:100A90008095709561957F4F8F4F9F4F0895E89493
:100AA00009C097FB3EF490958095709561957F4FB6
:100AB0008F4F9F4F9923A9F0F92F96E9BB27939564
:100AC000F695879577956795B795F111F8CFFAF474
:100AD000BB0F11F460FF1BC06F5F7F4F8F4F9F4FA5
:100AE00016C0882311F096E911C0772321F09EE803
:100AF000872F762F05C0662371F096E8862F70E069
:100B000060E02AF09A95660F771F881FDAF7880F42
:100B10009695879597F90895990F0008550FAA0B98
:100B2000E0E8FEEF16161706E807F907C0F0121600
:100B30001306E407F50798F0621B730B840B950B03
:100B400039F40A2661F0232B242B252B21F4089558
:100B50000A2609F4A140A6958FEF811D811D0895F5
:100B600097F99F6780E870E060E008959FEF80EC60
:100B7000089500240A941616170618060906089503
:100B800000240A9412161306140605060895092E69
:100B90000394000C11F4882352F0BB0F40F4BF2BD8
:100BA00011F460FF04C06F5F7F4F8F4F9F4F089518
:100BB00057FD9058440F551F59F05F3F71F047950E
:100BC000880F97FB991F61F09F3F79F087950895F3
:100BD000121613061406551FF2CF4695F1DF08C012
:100BE000161617061806991FF1CF8695710561052F
:100BF00008940895E894BB2766277727CB0197F9D7
:100C000008950E948C0508F48FEF08950E9419063C
:100C10000C94C7050E94B90538F00E94C00520F069
:100C2000952311F00C94B0050C94B60511240C9486
:100C3000FB050E94D80570F3959FC1F3950F50E016
:100C4000551F629FF001729FBB27F00DB11D639F7E
:100C5000AA27F00DB11DAA1F649F6627B00DA11D24
:100C6000661F829F2227B00DA11D621F739FB00DCA
:100C7000A11D621F839FA00D611D221F749F33273A
:100C8000A00D611D231F849F600D211D822F762FD3
:100C90006A2F11249F5750409AF0F1F088234AF0B0
:100CA000EE0FFF1FBB1F661F771F881F915050401C
:100CB000A9F79E3F510580F00C94B0050C94FB05FC
:100CC0005F3FE4F3983ED4F3869577956795B795A3
:100CD000F795E7959F5FC1F7FE2B880F911D9695BD
:100CE000879597F908950E948C05880B990B0895B4
:100CF000A1E21A2EAA1BBB1BFD010DC0AA1FBB1F20
:100D0000EE1FFF1FA217B307E407F50720F0A21B91
:100D1000B30BE40BF50B661F771F881F991F1A94FE
:100D200069F760957095809590959B01AC01BD0128
:100D3000CF010895EE0FFF1F0590F491E02D099467
:100D4000F894FFCF0000000024018400B10071017D
:100D5000E200C000D40050574D2046616E2C204464
:100D6000757479204379636C65203D20006E616E57
:0C0D700000696E66006F7666000D0A00D8
:107E0000112484B714BE81FFF0D085E080938100F7
:107E100082E08093C00088E18093C10086E0809377
:107E2000C20080E18093C4008EE0C9D0259A86E02C
:107E300020E33CEF91E0309385002093840096BBD3
:107E4000B09BFECF1D9AA8958150A9F7CC24DD24C4
:107E500088248394B5E0AB2EA1E19A2EF3E0BF2EE7
:107E6000A2D0813461F49FD0082FAFD0023811F036
:107E7000013811F484E001C083E08DD089C08234E0
:107E800011F484E103C0853419F485E0A6D080C0E4
:107E9000853579F488D0E82EFF2485D0082F10E0AE
:107EA000102F00270E291F29000F111F8ED06801E7
:107EB0006FC0863521F484E090D080E0DECF843638
:107EC00009F040C070D06FD0082F6DD080E0C81688
:107ED00080E7D80618F4F601B7BEE895C0E0D1E017
:107EE00062D089930C17E1F7F0E0CF16F0E7DF06D8
:107EF00018F0F601B7BEE89568D007B600FCFDCFD4
:107F0000A601A0E0B1E02C9130E011968C91119780
:107F100090E0982F8827822B932B1296FA010C0160
:107F200087BEE89511244E5F5F4FF1E0A038BF0790
:107F300051F7F601A7BEE89507B600FCFDCF97BE46
:107F4000E89526C08437B1F42ED02DD0F82E2BD052
:107F50003CD0F601EF2C8F010F5F1F4F84911BD097
:107F6000EA94F801C1F70894C11CD11CFA94CF0C13
:107F7000D11C0EC0853739F428D08EE10CD085E9AC
:107F80000AD08FE07ACF813511F488E018D01DD067
:107F900080E101D065CF982F8091C00085FFFCCF94
:107FA0009093C60008958091C00087FFFCCF809118
:107FB000C00084FD01C0A8958091C6000895E0E648
:107FC000F0E098E1908380830895EDDF803219F02E
:107FD00088E0F5DFFFCF84E1DECF1F93182FE3DFCA
:107FE0001150E9F7F2DF1F91089580E0E8DFEE27F6
:047FF000FF270994CA
:027FFE00040479
:00000001FF
