:100000000C9452000C946F000C946F000C946F00D1
:100010000C946F000C946F000C946F000C946F00A4
:100020000C946F000C946F000C946F000C946F0094
:100030000C946F000C946F000C946F000C946F0084
:100040000C94B5000C946F000C946F000C946F002E
:100050000C946F000C946F000C946F000C946F0064
:100060000C946F000C946F00000000002500280025
:100070002B0000000000240027002A0004040404D0
:100080000404040402020202020203030303030342
:10009000010204081020408001020408102001021F
:1000A0000408102011241FBECFEFD8E0DEBFCDBF63
:1000B00011E0A0E0B1E0E2E9F3E002C005900D92AA
:1000C000A030B107D9F721E0A0E0B1E001C01D9256
:1000D000A930B207E1F70E94FF000C94C7010C940D
:1000E000000090E0FC01E057FF4F249184589F4F9F
:1000F000FC018491882399F090E0880F991FFC01FE
:10010000EE58FF4FA591B491FC01E859FF4F85913E
:1001100094918FB7F894EC91E22BEC938FBF0895F4
:100120003FB7F8948091050190910601A0910701D5
:10013000B091080126B5A89B05C02F3F19F0019684
:10014000A11DB11D3FBFBA2FA92F982F8827BC0131
:10015000CD01620F711D811D911D42E0660F771F59
:10016000881F991F4A95D1F708951F920F920FB6D5
:100170000F9211242F933F938F939F93AF93BF932D
:100180008091010190910201A0910301B0910401BD
:100190003091000123E0230F2D3758F50196A11D62
:1001A000B11D209300018093010190930201A0935F
:1001B0000301B09304018091050190910601A09183
:1001C0000701B09108010196A11DB11D80930501A1
:1001D00090930601A0930701B0930801BF91AF91DE
:1001E0009F918F913F912F910F900FBE0F901F9075
:1001F000189526E8230F0296A11DB11DD2CF789441
:1002000084B5826084BD84B5816084BD85B582601B
:1002100085BD85B5816085BD80916E0081608093CC
:100220006E00109281008091810082608093810035
:100230008091810081608093810080918000816045
:10024000809380008091B10084608093B1008091A0
:10025000B00081608093B00080917A0084608093C8
:100260007A0080917A00826080937A0080917A008F
:10027000816080937A0080917A00806880937A0010
:100280001092C10089E00E9471008AE00E94710012
:100290008BE00E94710083E00E94710085E00E9463
:1002A000710086E00E94710010928000109281001F
:1002B00010928500109284008FE891E0909387005F
:1002C0008093860082EA8093800089E18093810098
:1002D0001092B0001092B1001092B20097EC90937F
:1002E000B30083EA8093B0002AE02093B10014BCED
:1002F00015BC16BC97BD84BD82E085BDC7ECD0E0BF
:100300000BE211E093E6992E27E6822E37E2332E98
:100310004FEE242E50E0A52E50E0B52ED09389004C
:10032000C093880010938B0000938A009092B300D2
:100330008092B40038BC27BC0E9490002B013C0185
:1003400088EEC82E83E0D82EE12CF12C0E9490007C
:100350006419750986099709683E734081059105FE
:10036000A8F321E0C21AD108E108F10888EE480E8E
:1003700083E0581E611C711CC114D104E104F10416
:1003800029F7A114B10451F20E940000C7CFF894DC
:02039000FFCF9D
:00000001FF
