:020000040000FA
:100000000C94DA030C9402040C9402040C9432173E
:100010000C9432170C9432170C9402040C940204C2
:100020000C9402040C9402040C9402040C94020438
:100030000C9402040C9402040C9402040C94020428
:100040000C94E8160C9402040C9402040C94020420
:100050000C9402040C9402040C9402040C94020408
:100060000C94AA170C9402045F0002020304030517
:1000700004050C00FE07FE08FF0139028503AC20D1
:1000800005006A072107394367A80022079B562706
:100090005901230B3542AF1AAA4C69A80A240D4D09
:1000A0003E37AF4AE59D54B5230025093D4247CE72
:1000B000DC3905260C3D422FA79872956454012720
:1000C00005195767280ACB3E37C514EB9803290B4F
:1000D000CB3E27C71CAB9822002A0A3D42B7AA761E
:1000E0005ECD082B0A2D4637A3386446112C071B1A
:1000F0003E4F8D042D060D4E67082E069242670472
:100100002F0C3D421FE58C728D7246003009BC42B7
:100110004F45CFA4003108BB422FC9AE01320A3D82
:10012000426FE58C727B08330C3D42676894B3865E
:100130003A2D00340C3D423FCB54A6A1334A003542
:100140000C3D42E74623C38C745A00360C3D42579F
:10015000E68C46CA3A2D00370D3D4267689433CA93
:1001600019651401380B3D426F659D56D6690139FA
:100170000C3D426F659D4646394A003A07AA4267E0
:10018000C4113B09333ECF466A24003C07AB4637D7
:10019000D5053D081D4A676838043E08AB46275719
:1001A00025003F0A3D426FE536CA7404400C3D42CB
:1001B0006F6535525223C305410A3D426F653D4686
:1001C000B603420C3D4267C42AA659C5A100430CA0
:1001D0003D426F658D32CA28A705440D3D4267C474
:1001E0002AA698628A4301450C3D42E746198D9440
:1001F000514643460D3D42E746198D94514619013B
:10020000470C3D426F658D328A3B2D0048093D42C7
:1002100027DB63643B4908BB4267C5AE014A0C3D1E
:100220004277679451466594004B0B3D4227CB546F
:10023000EA14AB1C4C0E3D4227A38C32CA28A38C77
:1002400086004D093D4227AF95B43B4E0A3D4227FB
:10025000EBA992DC3A4F093D426F65EFB400500DB7
:100260003D4267A4AC87CA28A38C00510A3D426F67
:100270006557925105520B3D4267A4AC872AAB1CCF
:10028000530B3D426F650D37D46901540E3D4267F3
:10029000C88C32CA28A38C220055083D4227FB4E49
:1002A0000B560A3D4227BB5399720457093D42271A
:1002B0007B25D505580A3D4227EB5457B50E590CFE
:1002C0003D4227EB5467945146115A0A3D426768F4
:1002D00094BBD1105B08CB3E67C43E075C0D3D422A
:1002E00027C38C32CC30A30C035D08CB3E67F639B4
:1002F000025E071D5637A73A5F060D3A670860068B
:100300009B562717610A2D426FC334741A01620C81
:100310003D4227A38C46CAF65000630A2D426F6502
:100320008D725A00640B3D421F659486B6D30865F2
:100330000A2D426FE5A1325C00660B3D42575679AB
:1003400067945106670B3D3A6F653B8D8CD202680E
:100350000B3D4227A38C46CAEE006908BB422F23FF
:10036000D91A6A0ACC3A3F63DD9649016B0C3D42CB
:1003700027A38CB24CB3CA016C07BB4247F61A6D77
:100380000A2D4247B5545249156E082D422799DA75
:100390000E6F092D426F653B2D00700C3D3A67A42E
:1003A0006C0F95514600710B3D3A6F683B8D8C3256
:1003B0000A720B2D4227991A65941100730A2D4277
:1003C0006F68B8E15000740C3D4237A33864461999
:1003D000652875082D42273B950A76092D4227DBB3
:1003E000A98E0077092D42275B49750178092D42B6
:1003F00027A7BAAA03790A3D3A27DBA96E23007A18
:10040000082D4267E8F6107B09CB3E37C52AC73A6C
:100410007C06493FE7017D0ACB3E27C73AC52A0241
:100420007E091D4A2FAA24130000000004FFFF00CC
:10043000005F0002020303030404050700FF06FF38
:100440000600010A02160307200500BD012106B1BE
:10045000B1192922075BB7495600230A2DB1AB8693
:10046000AA86AA0024092DB15BF54E69012508343E
:10047000B1C9B1770026092CB18B29563105270562
:1004800099B719280772B153CD00290872B189A90B
:1004900052002A076BB149D56A2B0A2DB1CD280E1F
:1004A0009951042C075BAF5325002D060CB519019B
:1004B0002E0652B119012F0724B38F6D0030087337
:1004C000B1AB5C1500310773B14BB235320934B1B1
:1004D0005331C77204330A34B11939692493023491
:1004E0000A34B18DAA1A312700350A34B1197A239A
:1004F000991400360A34B1537945991400370A34F7
:10050000B11939E6982300380A34B15331A9289338
:1005100002390A34B15351A69D14003A076AB11941
:1005200071043B0833AFB3912A013C076BB14D75A1
:10053000013D081CB319198D003E076BB1C955095F
:100540003F0973B16BA60C1300400934B15351DD60
:100550004801410934B153518E2903420A34B1593B
:1005600071A4284702430934B15351974901440902
:1005700034B159D1391200450934B1197AE53C0238
:10058000460834B1197AE51A470934B15351A7998D
:1005900006480834B189724C33490773B159B135F3
:1005A0004A0834B16FCBA4004B0A34B1892A499967
:1005B000CA004C0734B1C9DD234D0934B189E38841
:1005C00066004E0834B1896BA9334F0934B153D159
:1005D000991400500A34B159518E943300510A3C99
:1005E000AF53D15C49A300520934B159518ED40C98
:1005F000530A34B1533165542605540773B159B1C8
:100600000B550834B1899E4901560934B189CE246D
:100610001500570934B189E6386200580A34B189A7
:100620003249156500590873B1495659015A0934C0
:10063000B11939B647005B0773B119B1395C0924A8
:10064000B3C928A38C025D0773B199CD115E055320
:10065000B96B5F060CB11901600652B989016108D6
:1006600024B11B51A902620A34B1C979453912007B
:10067000630623B19B59640834B1AF469469650899
:1006800024B153696405660934B1ADCA9923006782
:10069000092CAF1B31A98C06680834B1C9794533E0
:1006A000690873B1CB4856036A097BAFCDB05415C6
:1006B000006B0934B1C95592A90C6C0773B1915DF7
:1006C000036D0824B1496948196E0724B159D10C4A
:1006D0006F0824B15351260570092CAF59518E94DF
:1006E0000171082CAF1B51A61D720824B159516726
:1006F00000730824B11B1A0D05740934B1CB71E6DF
:100700008C04750724B189661A760763B1495605CA
:10071000770724B189721C780824B18949AA18790D
:10072000092CAF89329525007A0824B119B11C0132
:100730007B0873B14D49D6017C05B1B1397D097390
:10074000B1C951C514017E0714B94B2A010000003C
:1007500004FFFF000000000000240027002A000022
:100760000000080002010000030407000000000070
:100770000000000000000023002600290000000007
:1007800000250028002B00040404040404040402CF
:10079000020202020203030303030301020408101E
:1007A00020408001020408102001020408102000EB
:1007B000C9188A2111241FBECFEFD8E0DEBFCDBFFC
:1007C00012E0A0E0B1E0E6E2F9E402C005900D928B
:1007D000A234B107D9F726E0A2E4B2E001C01D922D
:1007E000A73DB207E1F713E0C9EDD3E004C02197BC
:1007F000FE010E947924C83DD107C9F70E94221A40
:100800000C9486240C940000662329F06A3019F0B9
:10081000862F90E008958FEF9FEF0895AF92BF92DB
:10082000CF92DF92EF92FF920F93CF93DF93EC0181
:10083000DA017901942F9770E1E0F0E09F01092E31
:1008400001C0220F0A94EAF7522F6E018AE8C80EFF
:10085000D11CF601808140E0823018F4422F8130B3
:1008600049F15D01F8EFAF22E8ADF9AD288139819A
:10087000D90150968C918A9D90018B9D300D112449
:10088000620F731FDF01A60FB71F01111AC0EA0E16
:10089000FB1E8C91842B85278D93AE15BF05C9F760
:1008A000DF91CF910F91FF90EF90DF90CF90BF90AD
:1008B000AF90089550E0D5CF440F550FE114F104E7
:1008C00079F33C91342B35273C939F5F9770E1E09F
:1008D000EE1AF1089111F0CF2CAD3DADA20FB31F70
:1008E000F6018081823028F4813009F051E041E046
:1008F000E5CF51E0E3CF80E0089590E080E00895F7
:1009000080E480937C0080917A00806480937A00F8
:1009100080917A0086FDFCCF8091780090917900DB
:100920000895089508959B01DC011896ED91FC91BE
:1009300041E067E10994833081F028F4813099F037
:100940008230A9F008958730A9F08830C9F084304A
:10095000B1F4809180008F7D03C0809180008F77FB
:1009600080938000089584B58F7784BD089584B501
:100970008F7DFBCF8091B0008F778093B00008957A
:100980008091B0008F7DF9CF1F93CF93DF93282FF5
:1009900030E0F901E15AF84F8491F901E556F84F3A
:1009A000D491F901E957F84FC491CC23A9F0162F3F
:1009B00081110E949B04EC2FF0E0EE0FFF1FE35823
:1009C000F84FA591B4918FB7F894EC91111108C02C
:1009D000D095DE23DC938FBFDF91CF911F910895D7
:1009E000DE2BF8CFCF93DF9390E0FC01E556F84F74
:1009F00024918957984FFC0184918823C9F090E095
:100A0000880F991FFC01EB5AF84FA591B491FC0196
:100A1000E358F84FC591D49161110DC09FB7F89478
:100A20008C91209582238C938881282328839FBFD3
:100A3000DF91CF910895623051F49FB7F8943C91C3
:100A4000822F809583238C93E8812E2BEFCF8FB755
:100A5000F894EC912E2B2C938FBFEACF3FB7F894EC
:100A60008091080490910904A0910A04B0910B04AC
:100A700026B5A89B05C02F3F19F00196A11DB11DF9
:100A80003FBFBA2FA92F982F8827BC01CD01620F35
:100A9000711D811D911D42E0660F771F881F991FF0
:100AA0004A95D1F708958F929F92AF92BF92CF92BD
:100AB000DF92EF92FF926B017C010E942E054B01A9
:100AC0005C01C114D104E104F104B9F00E942E05C7
:100AD000681979098A099B09683E73408105910567
:100AE00080F321E0C21AD108E108F10888EE880EEF
:100AF00083E0981EA11CB11CE4CFFF90EF90DF9023
:100B0000CF90BF90AF909F908F9008952FB7F8949B
:100B1000609104047091050480910604909107048B
:100B20002FBF0895AF92BF92CF92DF92EF92FF92C4
:100B30000F931F93CF93DF936C017B018B01040F05
:100B4000151FEB015E01AE18BF08C017D10759F0A1
:100B50006991D601ED91FC910190F081E02DC601E3
:100B60000995892B79F7C501DF91CF911F910F91DD
:100B7000FF90EF90DF90CF90BF90AF9008952091BD
:100B8000ED023091EE022817390771F49091EB02D3
:100B90008091EC02981741F0E091EB02F0E0E5550E
:100BA000FD4F808190E008958FEF9FEF08950895A5
:100BB000EF92FF920F931F93CF93DF93DC015C962C
:100BC000ED90FC905D97E114F10479F481E090E000
:100BD00013969C938E93129790E080E0DF91CF91D3
:100BE0001F910F91FF90EF9008955196ED91FC9118
:100BF000529750968C915097982F90950FB75E967C
:100C00002C915E97122F127021FD6095F89420812F
:100C1000112319F1282B2083E7012197F1F728E010
:100C2000462F50E0308160FF1AC0382B3083E70137
:100C30002197F1F7BA0175956795215089F711232E
:100C400081F08081892380830FBF5C968D919C9178
:100C50000197F1F781E090E0C1CF2923DCCF392360
:100C6000E5CF9081892BEFCF2091ED023091EE02FC
:100C70002817390761F48091EC022091EB0290E093
:100C8000805C9F4F821B91098F739927089590E094
:100C900080E008952091ED023091EE022817390787
:100CA000B9F49091EB028091EC02981789F0E091F1
:100CB000EB02F0E0E555FD4F80812091EB0230E042
:100CC0002F5F3F4F2F7333272093EB0290E008955F
:100CD0008FEF9FEF089520918802260F3327331F4F
:100CE00021323105ECF420915804FC0190E080E0C1
:100CF000243069F082E00895A09188022191AC012E
:100D000048595D4FA40FB52FB11D2C93019686173E
:100D100098F380918802680F6093880280E00895BC
:100D200081E008951092580481E080935704109256
:100D3000320461E082E10E94C40461E083E10E9428
:100D4000C404E9EBF0E080818E7F808380818D7F19
:100D5000808388E48093B80085E48093BC00089584
:100D6000109211041092100410925F0410928104EA
:100D70000E94920681E994E090930F0480930E0400
:100D800082E994E090930D0480930C040895CF932E
:100D9000DF9391E0909367028823B9F0C091B80087
:100DA000D091BA008091BC008A7B8093BC0060E047
:100DB00082E10E94C40460E083E10E94C4040E94B6
:100DC0009206D093BA00C093B800DF91CF910895F6
:100DD0008F929F92AF92BF92CF92DF92EF92FF924B
:100DE0000F931F93CF93DF93D0918104D13208F0FA
:100DF000D7C0182FC09180040E942E056B017C0182
:100E00008091580481116BC082E080935804109344
:100E100057048FEF8093560410925504D0935404D6
:100E2000A0E6B4E0E4E3F4E080E0D81391C01092CF
:100E3000330480913304CC0FC82BC09333048091CA
:100E40003204813009F088C0109232040E942E05CD
:100E50006B017C01809133048093BB0080915A0424
:100E600090915B04A0915C04B0915D04892B8A2B66
:100E70008B2BA1F00E942E0500915A0410915B0467
:100E800020915C0430915D046C197D098E099F09E5
:100E9000061717072807390708F442C08091BC00DD
:100EA00083FDD8CF85EC8093BC000E942E056B019A
:100EB0007C0180915804823009F450C0809156041E
:100EC0008F3F09F46FC080915604803209F46CC0E2
:100ED00080915604803309F469C084E026C0809173
:100EE0005A0490915B04A0915C04B0915D04892B3D
:100EF0008A2B8B2B09F484CF0E942E0580905A04F4
:100F000090905B04A0905C04B0905D046C197D0926
:100F10008E099F0986169706A806B90608F070CFB5
:100F2000809159040E94C70685E010925F041092D8
:100F3000810410925E04DF91CF911F910F91FF9079
:100F4000EF90DF90CF90BF90AF909F908F900895DB
:100F50009D9191938F5F69CF85EEA5CF80915A04C3
:100F600090915B04A0915C04B0915D04892B8A2B65
:100F70008B2B09F49ECF0E942E0500915A041091EC
:100F80005B0420915C0430915D046C197D098E092D
:100F90009F09061717072807390708F08ACFC0CF1F
:100FA00081E0C3CF80E0C1CF82E0BFCF83E0BDCF7F
:100FB000CF92DF92EF92FF920F931F93CF93DF9325
:100FC000D82FC62F613208F098C00E942E056B0101
:100FD0007C018091580481116BC081E0809358049A
:100FE000809357049FEF90935604109255049C0FE2
:100FF000909354048093330480913304DD0FD82BF5
:10100000D093330480913204813009F078C010927B
:1010100032040E942E056B017C0180913304809381
:10102000BB0080915A0490915B04A0915C04B09144
:101030005D04892B8A2B8B2BA1F00E942E05009139
:101040005A0410915B0420915C0430915D046C198A
:101050007D098E099F09061717072807390708F425
:1010600048C08091BC0083FDD8CF85EC8093BC0044
:101070000E942E056B017C0180915804813009F497
:1010800040C0809155048C1710F4C0915504E4E3DE
:10109000F4E0A2E1B4E080E08C1355C08C2FDF9126
:1010A000CF911F910F91FF90EF90DF90CF90089517
:1010B00080915A0490915B04A0915C04B0915D040E
:1010C000892B8A2B8B2B09F484CF0E942E0500914B
:1010D0005A0410915B0420915C0430915D046C19FA
:1010E0007D098E099F09061717072807390708F099
:1010F00070CF809159040E94C706C0E0CFCF85EE23
:10110000B5CF80915A0490915B04A0915C04B0919A
:101110005D04892B8A2B8B2B09F4AECF0E942E0500
:1011200000915A0410915B0420915C0430915D049D
:101130006C197D098E099F090617170728073907BB
:1011400008F09ACFD6CF91919D938F5FA5CFE09174
:10115000110480911004E81730F4F0E0EE5EFB4FCC
:10116000808190E008958FEF9FEF08959091110492
:10117000809110042FEF3FEF981748F4E92FF0E02B
:10118000EE5EFB4F208130E09F5F90931104C90118
:1011900008958091100490911104891B990B089572
:1011A000CF92DF92EF92FF920F931F93CF93DF9333
:1011B0007C01CB018A0120915E04222389F0EB019E
:1011C0006B01C40ED51ECC15DD0569F06991D70100
:1011D000ED91FC910190F081E02DC7010995F3CFCD
:1011E000642F0E946B06C801DF91CF911F910F9170
:1011F000FF90EF90DF90CF900895CF93DF931F92F1
:10120000CDB7DEB7698320915E042223F9F02091E7
:101210008104203258F021E030E0FC013383228346
:1012200090E080E00F90DF91CF91089580915F046E
:10123000E82FF0E0E05AFB4F998190838F5F809315
:101240005F048093810481E090E0ECCF61E0CE0107
:1012500001960E946B06F7CF81E00C94E8061F937D
:10126000CF93DF93142FC1E8D6E0A881B98191E034
:1012700090935E048093800410925F041092810426
:10128000ED91FC9111970190F081E02DCD01099530
:1012900088819981DC01ED91FC910190F081E02D34
:1012A000612F099588819981DF91CF911F910C94CD
:1012B0002C09FC01248131E030935E0420938004EA
:1012C00010925F04109281048385682B82E894E079
:1012D0000E94FD0882E894E00C942C09DC011A9627
:1012E000ED91FC9130E020E00994DC011496ED9141
:1012F000FC9130E020E040E060E10994DC011696CA
:10130000ED91FC9130E020E040E069E10994DC01DE
:101310001696ED91FC9130E020E040E068E1099400
:101320009A01DC011696ED91FC91462F67E1099434
:10133000EF92FF920F931F93CF93DF931F92CDB73E
:10134000DEB77C018B01D8016C91673129F150F433
:101350006531A0F40F90DF91CF911F910F91FF9015
:10136000EF9008956A3118F16E3FA1F7F8014181BD
:10137000498369E2C7010E946E090BC0F8014181EF
:101380004983D7011696ED91FC9130E020E0C7012A
:1013900009950E5F1F4FD7CFF80181818983AE0178
:1013A0004F5F5F4F61E0C7010E949009F2CF0F5F6E
:1013B0001F4FD7011696ED91FC9130E020E040E000
:1013C000C7010995C0CF462FDC011696ED91FC911F
:1013D00030E020E066E10994462FDC011696ED919D
:1013E000FC9130E020E065E10994EF92FF920F93C9
:1013F0001F93CF93DF93EC01042F79016D3009F433
:1014000046C050F46B30C9F1693009F49FC06A30AE
:1014100009F465C080E05CC06E3009F44BC06F30E9
:1014200099F70E948709F7011381110F110F110F0E
:101430006C89160F60E4CE010E94EC09612F629561
:101440006F706061CE010E94EC09612F6F70CE0158
:101450000E94E309F7016481606BCE010E94E309F9
:10146000F701408151816281660F660F660FCE01E0
:101470000E9490090150A1F727C06BE171E044235D
:1014800011F066E171E0CE010E94980920C041117F
:1014900009C06FE071E00E949809E881F9818289B2
:1014A0008C8B15C068E071E00E949809E881F98191
:1014B0008389F6CF0E94870961E8CE010E94EC097A
:1014C000602FCE010E94E309CE010E947E0981E0D7
:1014D000DF91CF911F910F91FF90EF900895EA85D2
:1014E000FB8530E020E040E068E2CE010995EE8126
:1014F000FF8130E020E040E064E1CE01099541E069
:101500006BE4CE010E946E09E881F981448169E2B1
:10151000CE010E946E0940E06BE4CE010E946E098C
:10152000E881F981448169E2CE010E946E0941E0BF
:101530006BE4CE010E946E09E881F981458169E280
:10154000CE010E946E0960E271E09DCF85E591E0D9
:101550009983888382E0A4CFDC011896ED91FC91F9
:1015600030E020E040E069E10994DC011896ED915B
:10157000FC9130E020E040E068E10994CF93DF93F4
:101580001F92CDB7DEB76983BE016F5F7F4F0E94A8
:1015900093040F90DF91CF910895EF92FF921F93E4
:1015A000CF93DF93EC01162F7A010E94B50A60E415
:1015B000CE010E94BE0AE885F9859701412F67E1B7
:1015C000CE010995CE01DF91CF911F91FF90EF9051
:1015D0000C94AC0AEF92FF921F93CF93DF93EC0130
:1015E000142F7901663181F138F4643109F44BC06C
:1015F000653179F080E022C06831C9F150F169317C
:10160000C9F780916602882391F1CE010E94AC0A4D
:101610002EC080916602882319F0CE010E94AC0A88
:10162000CE010E94B50A60E0CE010E94BE0A612F81
:10163000CE010E94BE0A81E080936602DF91CF91C5
:101640001F91FF90EF900895642F0E94BE0A81E0E1
:10165000F5CF80916602882319F0CE010E94AC0A72
:10166000A701193138F4612FCE010E94CD0A1092E2
:101670006602EDCF68E1CE010E94CD0A185188E1E3
:10168000E80EF11CEDCF8E898F3F11F488E78E8B29
:10169000E885F9859701412F64E1CE01DF91CF9173
:1016A0001F91FF90EF9009940F93FC01E05CFF4FB6
:1016B0000190F081E02D4E1B5F0BDC01D496ED9183
:1016C000FC9109950F910895CF93DF93FC01A081C0
:1016D000B18182AD90E09C0143E0220F331F4A9517
:1016E000E1F737AF26AF50962C91509748E0249FF2
:1016F0009001112435AF24AF23AD30E0B90153E0A0
:10170000660F771F5A95E1F7EF01C05CDF4F7983D1
:10171000688351964C915197E901C80FD91F50E049
:101720004C175D0718F4CA01821B930BEF01CE5BC7
:10173000DF4F79836883229623E0880F991F2A95CB
:10174000E1F7860F971F99838883229654968D918F
:101750009C91559799838883E85BFF4F56968D91AE
:101760009C9191838083DF91CF9108950F931F9374
:10177000FC01E25BFF4F0190F081E02DDC01A05BFA
:10178000BF4F0D90BC91A02D4A175B0740F4E017A6
:10179000F10748F00417150730F080E019C0E01792
:1017A000F107C0F3FACFFC01E65BFF4F40815181A6
:1017B000845B9F4FFC01808191816817790758F401
:1017C00081E04217530720F081E02617370728F7FA
:1017D0001F910F91089542175307B0F3DECF2F9258
:1017E0003F924F925F926F927F928F929F92AF92B1
:1017F000BF92CF92DF92EF92FF920F931F93CF93FE
:10180000DF93CDB7DEB72A970FB6F894DEBF0FBED1
:10181000CDBF9A878987865B9F4F9A838983FC0116
:1018200011821082E985FA85EA5BFF4F4080518082
:1018300029853A85245B3F4F3C832B83F9015182F4
:101840004082E985FA85EE5BFF4F20803180298553
:101850003A85225B3F4F3E832D83F90131822082FE
:10186000E985FA85EC5BFF4F6080718029853A85B8
:10187000205B3F4F38872F83F90171826082E985B1
:10188000FA85E85AFF4FE080F180E985FA85EC5A45
:10189000FF4FA080B180E985FA85EA5AFF4FC080EA
:1018A000D180E985FA85EE5AFF4F808091808701CB
:1018B0009501A601B40189859A850E94B60B2985F8
:1018C0003A852C573F4F3A87298781111BC0F90170
:1018D00010822A960FB6F894DEBF0FBECDBFDF91FF
:1018E000CF911F910F91FF90EF90DF90CF90BF901D
:1018F000AF909F908F907F906F905F904F903F90B0
:101900002F90089581E0E985FA8580838114910400
:1019100021F0E981FA8191828082A414B50420F437
:10192000EB81FC81B182A0822C143D0420F4ED8176
:10193000FE81D182C082E614F70458F6EF81F88563
:10194000F182E082C6CF0F93CF93DF93E02FDC01CB
:10195000AC57BF4FFC91FF2309F460C0211531053E
:1019600009F45CC02230310538F0023009F04AC079
:101970006F5F7F4F621B730B0E2F0170E0FD52C033
:10198000FC01E25BFF4F0190F081E02D4E175F07F5
:1019900008F444C0FC01E05BFF4F0190F081E02DB2
:1019A0004E175F07D8F5FC01E45BFF4F0190F08113
:1019B000E02DDC01A65BBF4F0D90BC91A02D260F42
:1019C000371F2617370738F56E177F0718F59F0161
:1019D00021503109A217B30708F56A177B0708F4ED
:1019E000BD012E173F0708F4F901E61BF70BEC01C8
:1019F000AEA9BFA914960D90BC91A02D9F01FD0129
:101A000009950CC0033009F0B7CF4F5F5F4F421B01
:101A1000530BB2CFBD016E177F07E0F2DF91CF917C
:101A20000F910895FC01E65BFF4F0190F081E02DDE
:101A30006E177F0798F3FC01E45BFF4F0190F08184
:101A4000E02D6E177F0750F7FC01E05BFF4F019020
:101A5000F081E02DDC01A25BBF4F0D90BC91A02D69
:101A6000240F351F24173507A8F44E175F0788F495
:101A70009F0121503109A217B30780F64A175B076F
:101A800008F4AD012E173F0708F4F901E41BF50B2C
:101A9000AECFAD014E175F0708F6EDCF0F93FC01F7
:101AA000E25BFF4F2081318142175307B8F0329635
:101AB000208131814217530788F436972081318184
:101AC0006217730758F032962081318162177307CD
:101AD00028F400E021E030E00E94A30C0F9108956B
:101AE0002F923F924F925F926F927F928F929F922E
:101AF000AF92BF92CF92DF92EF92FF920F931F931C
:101B0000CF93DF937C018B016A01E9014901861AB9
:101B1000970A3A01680E791EA401B3018FEE95E091
:101B20000E944E0D5E01AE18BF0828014C0C5D1CD2
:101B3000A501B2018FEE95E00E944E0D16012E1800
:101B40003F08A401B1018FEE95E00E944E0DC01A2E
:101B5000D10AA501B6018FEE95E00E944E0D0C0F43
:101B60001D1FA801B3018FEE95E00E944E0DCE0D12
:101B7000DF1DAE01B2018FEE95E00E944E0DA8016F
:101B8000B1018FEE95E00E944E0DAE01B6018FEED1
:101B900095E0DF91CF911F910F91FF90EF90DF9033
:101BA000CF90BF90AF909F908F907F906F905F90FD
:101BB0004F903F902F900C944E0D6F927F928F928A
:101BC0009F92AF92BF92CF92DF92EF92FF920F93CC
:101BD0001F93CF93DF933C015B01EA018A010F5F02
:101BE0001F4F060F171F9C012F5F3F4F240F351FFC
:101BF000AB014C1B5D0BBC016C1B7D0B8FEE95E0AC
:101C00000E94B60B882379F101E010E00C1B1D0B3C
:101C1000EE24FF24EC1AFD0AEE0CFF1C9501A30133
:101C2000BE0190E080E00E94700D88248394912C86
:101C3000D12CC12C17FD06C0219782E0E80EF11CC3
:101C40000E0D1F1D8FEFC81AD80A82E0880E911C56
:101C5000080D191D9501A301BE01C6010E94700D5A
:101C6000CC16DD0638F3DF91CF911F910F91FF90D5
:101C7000EF90DF90CF90BF90AF909F908F907F902C
:101C80006F900895CF93DF93FC01E65AFF4F2081B8
:101C90003181232BF1F0B0962081DC01AA57BF4F90
:101CA0002C93319650813C965083EC01CB57DF4FFB
:101CB0003881332371F0313079F429973881231733
:101CC0000CF43C9383589F4FDC018C9185170CF4E6
:101CD0008083DF91CF910895EC01C958DF4F48818F
:101CE00087589F4FEC013881822F220F990B632F69
:101CF000032E000C770B640F711D47FD7A95861734
:101D0000970714F4430F4C9335171CF73083E1CF3A
:101D1000213069F038F0223079F0840F911D47FDB1
:101D20009A950895860F911D67FD9A950895841BD5
:101D3000910947FD93950895861B910967FD939539
:101D40000895213069F038F0223079F0861B91092E
:101D500067FD93950895840F911D47FD9A95089509
:101D6000860F911D67FD9A950895841B910947FD83
:101D7000939508953F924F925F926F927F928F92C8
:101D80009F92AF92BF92CF92DF92EF92FF920F930A
:101D90001F93CF93DF937C01162F442EEC01C25A80
:101DA000DF4F5E806F806C018AE8C80ED11C78849A
:101DB0007518312E711608F4372C8C809D800E8595
:101DC000202F462D652D8A819B810E94880E5C0103
:101DD000202F462D652DC4010E94A10EAC01442088
:101DE00079F08C85F6018083232D30E0B501C701A1
:101DF0000E94A30C171548F017196394512CD7CFE4
:101E00008B858111F7CF8D85EDCF150D1E836F82E8
:101E1000DF91CF911F910F91FF90EF90DF90CF90C6
:101E2000BF90AF909F908F907F906F905F904F90FA
:101E30003F900895DC011A964C911A97ED91FC9110
:101E40001197249130E0042E02C0359527950A940D
:101E5000E2F7842F860F883068F031961196FC9354
:101E6000EE93E49198E0941B01C0EE0F9A95EAF787
:101E70002E2B88501A968C938FEF9FEF01C0880FFE
:101E80006A95EAF7809582230895FC01E60FF11D1B
:101E9000849190E0982F88273196E4918E0F911DC0
:101EA0000895CF93DF93EC01FC01849180935C064D
:101EB0003196E491E0935D06FE013296E491E09361
:101EC0005E06FE013396E491E0935F06FE013496D0
:101ED000E491E0936006FE013596E491E09361069B
:101EE000FE013696E491E0936206FE013796E49196
:101EF000E0936306FE013896E491E0936406FE01E8
:101F00003996E491E0936506FE013A96E491E093F8
:101F10006606FE013B96E491E0936706FE013C965F
:101F2000E491E0936806FE013D96E491E093690632
:101F3000FE013E96E491E0936A06FE013F96E4912D
:101F4000E0936B06FE017096E491E0936C0661E10C
:101F5000CE010E94450F90936E0680936D0663E15B
:101F6000CE010E94450F9093700680936F0665E145
:101F7000CE010E94450F9093720680937106DF9107
:101F8000CF9108954F925F926F927F928F929F921E
:101F9000AF92BF92CF92DF92EF92FF920F931F9377
:101FA000CF93DF93EC016B018A017901FC01E459C5
:101FB000FF4F8081813009F44BC008F43EC082306D
:101FC00009F451C0833009F459C0FE01E05AFF4FB3
:101FD000D182C082329611830083389780819181AB
:101FE00047962FEFE216F10411F008F0F2C0E1E697
:101FF000EE16F10408F44DC0FE01E058FF4F2081B9
:102000003181820F931F9C012F5F3F4FF901449153
:10201000411148C090E080E0DF91CF911F910F9176
:10202000FF90EF90DF90CF90BF90AF909F908F90F8
:102030007F906F905F904F900895FE01E45AFF4F9C
:102040000190F081E02DCE010995080F191FBDCF39
:10205000FE01E45AFF4F0190F081E02DCE01099579
:10206000C81AD90AB2CFFE01E45AFF4F0190F0819D
:10207000E02DCE010995081B190BA7CFFE01E45AEC
:10208000FF4F0190F081E02DCE010995C80ED91EB9
:102090009CCFF1E4EF16F10408F4B5CFFE01E2584D
:1020A000FF4FADCFFC0144914E151F0409F08CC0C9
:1020B0000296009709F4AECF7E01FEE5EF0EF11C0B
:1020C000F70191838083128673966081C7010E9415
:1020D0001A0FF701808774966081C7010E941A0F5A
:1020E000982EF70181875E01FAE8AF0EB11CF50169
:1020F0009081F701948781E0911180E0F701858755
:10210000FE01ED58FF4FC0806C2DC7010E941A0FD1
:10211000582EFE01EC58FF4FD0806D2DC7010E9454
:102120001A0F482EFE01EB58FF4F1081612FC70197
:102130000E941A0F9FEF910F01E010E0980101C07B
:10214000220F9A95EAF7882E821AF70160841614F6
:102150000CF0ADC0CA94C80101C0880FCA94EAF758
:10216000581A7684490CDA94A80101C0440FDA9415
:10217000EAF7F42FF4194F2E272D4F2F652DF70175
:10218000828193810E94880E6C01F7019383828380
:10219000272D442D652D848195810E94A10EF70184
:1021A00095838483F1E07F1609F485C07F1608F4D7
:1021B0003FC022E0721609F48DC0E3E07E1609F4F8
:1021C0009DC0BC0196013EC0F9012491820F911D72
:1021D0001ACFFE01EE57FF4F00811181080F191F22
:1021E000680160E0C6010E94450F080F191F62E0F8
:1021F000C6010E94450FF4E0CF0ED11C8E159F053D
:1022000080F3F801849190E0982F88273196E4912B
:102210008E2B009709F4FECEE816F90619F4C801D2
:10222000039647CFF8013296E4910E0F111DE9CFC6
:102230009601260D311D67FC3A95BC01690D711D93
:1022400097FC7A958B01AC01B601CE010E94B60BCA
:10225000882369F1F701168217828E0101591F4FF9
:102260006E01F0E7CF0ED11CF8016081C7010E941A
:102270001A0F682EF6016081C7010E941A0F782E8E
:1022800040E0662DCE010E94BA0E41E0672DCE01DE
:102290000E94BA0E61E0C7010E941A0F8111F0CFAF
:1022A000F7018781891504F38485F5018083882DE2
:1022B000880C990BB1CE0919110997FC1395960159
:1022C0002F5F3F4FBC01660D711D67FC7A95C00EF4
:1022D000D11EB8CFA8014619510967FC5395960144
:1022E0002F5F3F4F0919110997FC1395BC016F5FD0
:1022F0007F4F800F911FC40ED51EA4CF9601290DCC
:10230000311D97FC3A950619110967FC1395BC011C
:102310006F5F7F4F800F911F95CFCF92DF92EF922B
:10232000FF920F931F93CF93DF93EC018B011092D9
:1023300007067A01D12CC12CF70161917F01E09150
:10234000F105F091F2058FEE95E009958F3F980722
:1023500019F18E3F2FEF920779F39C01A801BE017E
:102360008FEE95E00E94C20F20915B06213059F05C
:1023700038F0223059F0233061F0C80ED91EDCCF7E
:10238000C80FD91FFACF080F191FF7CFC81BD90BD9
:10239000F4CF081B190BF1CFC601DF91CF911F912C
:1023A0000F91FF90EF90DF90CF900895CF93DF9340
:1023B000EC016BAFEEA9FFA90190F081E02D09952A
:1023C000EEA9FFA90280F381E02DCE01DF91CF912C
:1023D0000994AF92BF92CF92DF92EF92FF920F9348
:1023E0001F93CF93DF9300D000D01F92CDB7DEB7FD
:1023F0008C01DC01DA96AC90DA97DB96EC90DB97F7
:10240000ED91FC91B188FE2CD12CC12CD801ED911D
:10241000FC9111978089D8962D913C911C82FD8268
:102420008B83B8E08B9FC00111248C9DA0018D9DF2
:10243000500D9C9D500D1124240F351F3A83298384
:10244000D8011496ED91FC919E012F5F3F4F41E022
:102450006FE0C8010995F3948F2D8E198A1528F421
:10246000BFEFCB1ADB0AFB1488F20F900F900F908E
:102470000F900F90DF91CF911F910F91FF90EF90F0
:10248000DF90CF90BF90AF900895CF93DF93EC0192
:10249000962F683189F1B901993130F4943199F06E
:1024A000973159F080E006C0993109F447C0903265
:1024B000C9F781E0DF91CF91089550E082E894E080
:1024C0000E94D008F6CF8C859D85AE85BF85892B6F
:1024D0008A2B8B2B71F4E881F981A585B0E020EA85
:1024E00036E841E050E00E94C5216C877D878E87E9
:1024F0009F870E94B006DDCF2C853D854E855F8588
:1025000060E074E284EF90E00E94D0212051310914
:102510004109510956954795379527952093B8005D
:102520008E8990E09595879591E090935E048093D5
:10253000800410925F0410928104BBCF82E894E083
:102540000E942C09B6CF0F931F93CF93DF93EC011A
:10255000862F642F8C3208F03AC08A3208F060C0AF
:10256000883209F44BC0893209F460C0803408F421
:1025700075C0982F9F73FE01E90FF11D868D8F3F67
:1025800009F44EC0903108F436C0282F30E0F9012C
:10259000E15AF84F8491F901E556F84F0491F90199
:1025A000E957F84F1491112379F081110E949B048F
:1025B000E12FF0E0EE0FFF1FED58F84FA591B49119
:1025C000EC910E2381E009F480E0898F29C08D32DF
:1025D00099F108F4CBCF94EB980F923008F0C6CF66
:1025E0008F73C80FD11D8E8D411134C061E00E94E0
:1025F000F20460E08E8D0E94C40412C08E01025E5F
:102600001F4FD0E0F80181918F018F3F31F061E0E1
:10261000D03108F062E00E94F204DF5FD63191F71A
:1026200081E0DF91CF911F910F91089570E090E0CC
:1026300080E00E945305F4CF85E090E0433010F035
:1026400082E090E0880F991F880F991F05970197E6
:10265000F1F7E6CF62E00E94F204E2CF80E0E1CF42
:10266000CF92DF92EF92FF920F931F93CF93DF935E
:102670006C01EB017B01E40EF51E10E000E0CE15CD
:10268000DF0561F06991D601ED91FC910190F08137
:10269000E02DC6010995080F191FF1CFC801DF9180
:1026A000CF911F910F91FF90EF90DF90CF90089501
:1026B000CF92DF92EF92FF920F931F93CF93DF930E
:1026C000EC016C0124E0C20ED11CFC01E057FF4F6D
:1026D0000190F081E02DC60109958E3FEFEF9E0736
:1026E000D8F48E010C561F4FF801408151817E01B4
:1026F000F2E9EF0EF11CF701608171819C01C601C6
:102700000E94C20FC059DF4F28812130C1F078F0FC
:102710002230B9F02330E9F081E090E0DF91CF91F1
:102720001F910F91FF90EF90DF90CF900895F701E8
:1027300020813181820F931F91838083EDCFF80137
:10274000F7CFF70120813181281B390B318320839A
:10275000E3CFF801F7CF089590E080E00895CF939C
:10276000C82F809181069091820621E020935E041B
:10277000C093800410925F0410928104DC01ED91FB
:10278000FC910190F081E02D099580E00E94E8061F
:1027900061E08C2F0E94D8071092110480931004DE
:1027A0008091810690918206DC01ED91FC9100847C
:1027B000F185E02D0995892B69F080918106909132
:1027C0008206DC01ED91FC910284F385E02D0995F0
:1027D000CF91089580E0FCCFFF920F931F93CF938A
:1027E000DF93D82FC62FF42E01E816E0682FF801EA
:1027F00082810E94AF138C23482F4F296D2FF8013F
:102800008281DF91CF911F910F91FF900C942F093E
:10281000482F6CEF8AE00C94EC13482F63EE8AE0AB
:102820000C94EC132F923F924F925F926F927F9293
:102830008F929F92AF92BF92CF92DF92EF92FF92D0
:102840000F931F93CF93DF930E9486054B015C018A
:1028500037E5232E43E0342E50E2452E512C0E94C2
:102860008605681979098A099B096B3F71058105FD
:10287000910508F030C166E0809183060E94AF1395
:10288000C82F64E0809183060E94AF138C1307C0A9
:1028900061E070E080E090E00E945305E0CF282FD7
:1028A0002C1B330B390137FF03C030E2630E711C60
:1028B00020918406269DC001279D900D1124EC01D6
:1028C000CC0FDD1FC80FD91F809181069091820621
:1028D00041E040935E042092800410925F041092C5
:1028E0008104DC01ED91FC910190F081E02D67E025
:1028F000099580918106909182060E942C091C16F0
:102900001D060CF0D0C08E01C132D1055CF0609183
:102910008406639DB0011124C2010E944A248201F1
:10292000081B190BC01BD10B602F87E50E94D8072D
:1029300010921104809310041016110604F7809170
:10294000B6068F5F83708093B606F12C8091810666
:1029500090918206DC01ED91FC910284F385E02DDB
:102960000995E82E8091810690918206DC01ED9117
:10297000FC910284F385E02D0995D82E8091810683
:1029800090918206DC01ED91FC910284F385E02DAB
:102990000995C82EE091B606B4E0EB9FF001112432
:1029A000EF57F94FD701C601A370BB2785839683E4
:1029B000A783B087809184068230A0F18091810640
:1029C00090918206DC01ED91FC910284F385E02D6B
:1029D0000995E82E8091810690918206DC01ED91A7
:1029E000FC910284F385E02D0995D82E8091810613
:1029F00090918206DC01ED91FC910284F385E02D3B
:102A00000995C82EE091B606B4E0EB9FF0011124C1
:102A1000EF56F94FD701C601A370BB278583968374
:102A2000A783B087809184068330A0F180918106CE
:102A300090918206DC01ED91FC910284F385E02DFA
:102A40000995E82E8091810690918206DC01ED9136
:102A5000FC910284F385E02D0995D82E80918106A2
:102A600090918206DC01ED91FC910284F385E02DCA
:102A70000995C82EE091B606B4E0EB9FF001112451
:102A8000EF55F94FD701C601A370BB278583968305
:102A9000A783B087209184064DEF42039001112453
:102AA000020F131F49CF6A94672809F0F1CE81E025
:102AB000DF91CF911F910F91FF90EF90DF90CF901A
:102AC000BF90AF909F908F907F906F905F904F904E
:102AD0003F902F90089580E0EBCF0F931F93CF93FB
:102AE0008C01C62F0E9459096C2F6460C8010E9496
:102AF00059096C2F6B7FC8010E94590983EC90E043
:102B00000197F1F7CF911F910F9108950F931F93A4
:102B1000CF93DF938C01D62FC42F607F642B0E944C
:102B20006D1580E1D89FB00111246C2BC801DF9195
:102B3000CF911F910F910C946D15CF93DF93CDB76B
:102B4000DEB728970FB6F894DEBF0FBECDBF98E072
:102B5000E0E0F1E0DE01119601900D929A95E1F727
:102B600090916705961708F46FEF262F30E0220F3B
:102B7000331F41E050E04C0F5D1F240F351FF9015A
:102B80006081680F606840E08FE595E028960FB699
:102B9000F894DEBF0FBECDBFDF91CF910C948615A8
:102BA00041E00E94861581E090E00895FB010190CC
:102BB0000020E9F73197AF01461B570BDC01ED917F
:102BC000FC910280F381E02D09948F929F92AF9245
:102BD000BF92EF92FF920F931F93CF93DF93CDB7E6
:102BE000DEB7A1970FB6F894DEBF0FBECDBF7C0154
:102BF000FA01CB0119A2223008F42AE08E010F5D00
:102C00001F4F822E912CB12CA12CBF01A501940144
:102C10000E94D021F901CA016A300CF5605DD8012B
:102C20006E938D01232B242B252B79F790E080E0E8
:102C3000109721F0BD01C7010E94D615A1960FB6CD
:102C4000F894DEBF0FBECDBFDF91CF911F910F91E2
:102C5000FF90EF90BF90AF909F908F900895695C28
:102C6000DECFCF92DF92EF92FF920F931F93CF931D
:102C7000DF93EC016A017B01E881F9810190F08129
:102C8000E02D6DE209958C0144275527BA014C19B6
:102C90005D096E097F092AE0CE010E94E515800FCB
:102CA000911FDF91CF911F910F91FF90EF90DF90D7
:102CB000CF900895AB01770F660B770B77FD0C94DF
:102CC00031162AE00C94E51585ED8093BC008091C7
:102CD0005A0490915B04A0915C04B0915D04079646
:102CE000A11DB11D23E0B695A795979587952A95C7
:102CF000D1F72091BC0024FD03C010925804089520
:102D000040915A0450915B0460915C0470915D04A1
:102D1000452B462B472B69F30097A105B10541F0E0
:102D20002AE22A95F1F700C00197A109B109E1CF84
:102D3000809159040C94C706FC01A081B181509682
:102D40002C9182AD38E0839FC0011124289FA001FF
:102D5000299F500D112470E060E080AD91AD0C947E
:102D60007F241F93CF93DF93EC010E94E9111BADE9
:102D70008AAD180FE881F9818189181740F0CE01DA
:102D80000E94750980E0DF91CF911F910895FE01A7
:102D9000E557FF4F8081882319F0CE010E949C16D1
:102DA000612FCE010E94D61181E0EDCFCF93DF934A
:102DB000EC01FC01E557FF4F8081882319F0CE011B
:102DC0000E949C1660E0CE01DF91CF910C94D61149
:102DD0001F920F920FB60F9211242F933F938F9350
:102DE0009F93AF93BF938091040490910504A091A9
:102DF0000604B09107043091030423E0230F2D371C
:102E000058F50196A11DB11D20930304809304047D
:102E100090930504A0930604B093070480910804DE
:102E200090910904A0910A04B0910B040196A11D90
:102E3000B11D8093080490930904A0930A04B093F1
:102E40000B04BF91AF919F918F913F912F910F9064
:102E50000FBE0F901F90189526E8230F0296A11D14
:102E6000B11DD2CF1F920F920FB60F9211242F9344
:102E70003F934F935F936F937F938F939F93AF9302
:102E8000BF93EF93FF93E091ED02F091EE02309744
:102E900049F0A685B7858585968D91FF14C09C91D4
:102EA0008923A1F4FF91EF91BF91AF919F918F91F1
:102EB0007F916F915F914F913F912F910F900FBE36
:102EC0000F901F9018959C91892361F7A389B4896D
:102ED0009C918589809589238C9386899789019710
:102EE000F1F7608D718DA685B785558538E020E0B6
:102EF000CB010197F1F7822F90E095958795282FC8
:102F00004C91452309F02068315091F7868D81FD61
:102F100020958091EC0290E001968F739927309173
:102F2000EB02381799F0A091EC02B0E0A555BD4F27
:102F30002C938093EC02828D938D0197F1F7A389F6
:102F4000B4898C919589892B8C93ACCF868D8160C7
:102F5000868FF1CF1F920F920FB60F9211242F93ED
:102F60003F934F935F936F937F938F939F93AF9311
:102F7000BF93EF93FF938091B900887F803609F467
:102F80004AC0F0F5883209F4A7C018F5803109F479
:102F90009BC0B8F4882309F4F9C0883009F494C0C0
:102FA000FF91EF91BF91AF919F918F917F916F9121
:102FB0005F914F913F912F910F900FBE0F901F90F7
:102FC0001895883109F488C0803251F780935604EF
:102FD00014C0803409F49DC040F48033B9F38833C1
:102FE000F9F68093560485ECB0C0803509F485C0AD
:102FF000883509F496C0883499F60E946416D0CFBB
:10300000883909F48CC038F5883729F050F48836AF
:1030100011F0803729F683E0809358041092AA02B9
:1030200057C0883809F47BC0803919F0803809F01E
:10303000B7CF8091AA02803208F071C0E091AA0255
:1030400081E08E0F8093AA028091BB00F0E0E657EA
:10305000FD4F80833DC0803B39F0E0F4803A09F4B5
:1030600079C0883A09F09CCF84E08093580410928C
:10307000890210928802E0910E04F0910F040995E4
:103080008091880281110FC081E0809388021092A4
:10309000680209C0803C09F4A6CF883C09F4A3CF9C
:1030A000883B09F07DCFE091890281E08E0F80930B
:1030B0008902F0E0E859FD4F80818093BB00909138
:1030C00089028091880229C0809133048093BB00DB
:1030D00085EC8093BC0064CF90915504809154049A
:1030E000981758F5E091550481E08E0F80935504B0
:1030F000F0E0EC5CFB4F8081E9CFE091550481E08A
:103100008E0F809355048091BB00F0E0EC5CFB4F88
:10311000808390915504809154049817C8F285E8F3
:10312000D8CFE091550481E08E0F809355048091B3
:10313000BB00F0E0EC5CFB4F808380915704811171
:103140005CCF81E08093320484EA8093BC001092CB
:10315000580426CF85EC8093BC00109258048091CF
:10316000AA02803230F4E091AA02F0E0E657FD4F67
:1031700010826091AA0270E0E0910C04F0910D04BD
:103180008AE892E009951092AA020ACF109256049A
:1031900034CFCF93DF93109285041092840488EE8D
:1031A00093E0A0E0B0E08093860490938704A0931E
:1031B0008804B093890481E791E09093830480931D
:1031C0008204109262051092610583E891E0909369
:1031D000600580935F0580E28093630580E18093C2
:1031E000680582E08093690510926A0589E190E0A4
:1031F00090938F0480938E04109259051092580575
:1032000010925A0510925C0510925B0510925E05B3
:1032100010925D051092EE051092ED0584E094E0A9
:1032200090937C0680937B0610927E0610927D061A
:103230001092800610927F06109207068FE891E0A8
:103240009093EC058093EB051092F0051092EF053A
:10325000109204061092FB051092FC051092FD05D9
:103260001092FE058FEF8093050680930906EDE02E
:10327000F6E083E296E0DFEFD1938E179F07E1F748
:1032800085EF99E09093F4058093F3058AEE9AE038
:103290009093F6058093F50585E492E19093F80507
:1032A0008093F70583EA92E19093FA058093F905FC
:1032B00030E020E040E069E08FEE95E00E94F50903
:1032C00010924A06109249068EE094E090932406EC
:1032D000809323068BE695E090932806809327063B
:1032E000C1E0C093290610922A0610925806109247
:1032F000780610927406C0937906C0937A0687E91F
:1033000091E090932606809325068FEE95E00E942B
:10331000640B1092420610924106109246061092DB
:1033200045068FEF9FEF909344068093430690935A
:10333000480680934706E0912506F0912606028014
:10334000F381E02D8FEE95E009958DE794E0909361
:103350004C0680934B0610925B06D0931806D093D0
:103360001906D0931A061092BB061092BA0688EE80
:1033700093E0A0E0B0E08093BC069093BD06A093DC
:10338000BE06B093BF0681EA91E09093B9068093A0
:10339000B8061092CF061092CE061092D106109267
:1033A000D0061092D3061092D2061092D506109233
:1033B000D4068091D6068E7F8D7F8093D60681FBC2
:1033C000662760F96C278BE00E94C40461E08BE003
:1033D0000E94F204E6EAF7E0E491E093C806E2E92D
:1033E000F7E0E491F0E0EE0FFF1FE358F84F85910E
:1033F00094919093CA068093C90660E08AE00E9487
:10340000F2048091D60681FD04C061E08AE00E944A
:10341000C4048AE08093C406E5EAF7E0E491E0930F
:10342000C506E1E9F7E0E491F0E0EE0FFF1FED588B
:10343000F84F859194919093C7068093C606DF91CB
:10344000CF910895CF93DF93CDB7DEB72B970FB60B
:10345000F894DEBF0FBECDBF789484B5826084BD82
:1034600084B5816084BD85B5826085BD85B5816088
:1034700085BD80916E00816080936E001092810006
:1034800080918100826080938100809181008160C1
:103490008093810080918000816080938000809182
:1034A000B10084608093B1008091B000816080930E
:1034B000B00080917A00846080937A0080917A00D5
:1034C000826080937A0080917A00816080937A0094
:1034D00080917A00806880937A001092C1001092E7
:1034E000D3061092D2061092D1061092D0061092F6
:1034F000CF061092CE068DE991E09093D506809389
:10350000D4069091C406963108F047C02DEB30E008
:103510003093CF062093CE062BE931E03093D106CD
:103520002093D0062CE231E03093D3062093D206CC
:103530002091680084E0983048F031E09E3008F433
:1035400030E081E001C0880F3A95EAF7822B809342
:1035500068002DE630E0983050F02BE630E09E30E9
:1035600030F02CE630E0963110F030E020E030937F
:10357000CC062093CB06292F30E0983008F0BBC250
:1035800081E001C0880F9A95EAF78093CD0680917B
:10359000D4069091D5060197F1F78091D2069091CB
:1035A000D306892B49F1E091ED02F091EE0226E07D
:1035B000E83BF20709F1309739F0A389B4899C916F
:1035C0008589809589238C938091D6068E7F809300
:1035D000D6061092EC021092EB0288EB96E09093E4
:1035E000EE028093ED02E091CB06F091CC06808153
:1035F0009091CD06892B808364E670E080E090E0B6
:103600000E9453056FEA71E088EB96E00E94D615A0
:1036100063ED71E088EB96E00E94D61564E670E0F9
:1036200080E090E00E9453050E94B006109264056D
:1036300080916905823018F098E09093640580933A
:10364000670562E370E080E090E00E9453056091BE
:103650006A058FE595E00E94590968EE73E080E005
:1036600090E00E94530560E38FE595E00E946D15A0
:103670008BE496E40197F1F760E38FE595E00E9413
:103680006D154BE456E4CA010197F1F760E38FE54D
:1036900095E00E946D1583E592E00197F1F760E2F5
:1036A0008FE595E00E946D1560916405606240E0D1
:1036B0008FE595E00E94861584E08093650540E0E3
:1036C0006CE08FE595E00E94861540E061E08FE5B3
:1036D00095E00E9486158BE39FE10197F1F782E068
:1036E0008093660540E066E08FE595E00E948615D0
:1036F00040E062E08FE595E00E9486158BE39FE154
:103700000197F1F788E080936A0560E08FE595E026
:103710000E94590940E061E08FE595E00E9486151E
:10372000ABE3BFE11197F1F760E080E00E949D15E7
:1037300066ED71E08FE595E00E94D61561E080E0CE
:103740000E949D1565EE71E08FE595E00E94D6150B
:10375000E091F305F091F40530E020E040E06AE00C
:103760008FEE95E009958FEE95E00E94D6168FEECC
:1037700095E00E94B1168111FACF60E08FEE95E0DE
:103780000E94D611E091F305F091F40530E020E0BD
:1037900040E06BE08FEE95E009958FEE95E00E949A
:1037A000D616B0E42B2E312C14E3812E912C80916F
:1037B000490690914A068856904069F0E8E6F0E0A4
:1037C000F0934A06E0934906CF010E94510F8FEE15
:1037D00095E00E94420E24E034E03093F2052093FD
:1037E000F10542EF51E06FE070E085E090E00E946B
:1037F0008D1144E054E05093F2054093F10541E00F
:1038000052E06EE170E085E090E00E948D114CE0A6
:1038100050E062E370E080E490E00E94DD0D42E061
:1038200050E06EE270E08BE390E00E94DD0D42E03C
:1038300050E06EE270E085E490E00E94DD0D0AE366
:1038400010E026E430E04FE250E06BE370E08FEEF2
:1038500095E00E94B60B882309F4E5C0A4E0EA2EA7
:10386000F12C85E090E09A83898310E000E0AFEFCF
:10387000A09FC001A19F900D112469817A810E94AF
:103880004A242B01770F66087708A30192012F5F66
:10389000310941095109C301B20163557C4F8F4F72
:1038A0009F4F0E943A2423E930EC4BE050E0261B66
:1038B000370B480B590BC301B2010E943A2423E98C
:1038C00036EA4DE550E00E94D02129013A01B4EBDF
:1038D0004B1651046104710458F0A401401B510BB4
:1038E00069817A81605C7F4F8FEE95E00E944E0D7A
:1038F0006801E0E4CE0ED11CF0E44F1651046104DF
:10390000710450F0A40129813A81421B530BB60186
:103910008FEE95E00E944E0DD301C201805C9F4F57
:10392000AF4FBF4F843B9105A105B105F0F0A40155
:1039300089819A81481B590BB101601B710B8FEE75
:1039400095E00E944E0D90E84916510461047104FF
:1039500060F0A401401B510BB101A981BA816A1B1F
:103960007B0B8FEE95E00E944E0DD301C201805873
:103970009F4FAF4FBF4F843B9105A105B10560F04C
:10398000A8014C5C5F4FB101E981FA816E1B7F0B8E
:103990008FEE95E00E944E0DA980BA80F4E3AF0E41
:1039A000B11CD301C2010C97A109B109843B910557
:1039B000A105B10540F0A501B101601B710B8FEEAF
:1039C00095E00E944E0DA501B6018FEE95E00E9494
:1039D0004E0D2CE4421A51086108710834EB43166D
:1039E00051046104710458F0A8014C5C5F4F698177
:1039F0007A81605C7F4F8FEE95E00E944E0DC8018A
:103A0000880F991FE816F9060CF482C0E81AF90A23
:103A100041E0E41AF1080F5F1F4F29813A81201716
:103A200031070CF024CF8FEE95E00E94B116811182
:103A3000BECE68EB7BE080E090E00E9453058FEE05
:103A400095E00E949C168FEE95E00E94E9118FEEA2
:103A500095E00E9475098FEE93E0EFEEF2E02BE126
:103A600030E0219331938E179F07D9F761E088E00A
:103A70000E94F20460E088E00E94C40482E894E0BE
:103A800090938206809381060E94B0068CE080931A
:103A9000B80087E5809383066FEF0E94AF138531EE
:103AA00039F46EEF809183060E94AF1380938506F0
:103AB00040E46FEB89E00E94EC130E9486056B01E5
:103AC0007C010E9486056C197D098E099F09643668
:103AD00071058105910508F03FC069E0809183067A
:103AE0000E94AF1386FF38C061E070E080E090E094
:103AF0000E945305E6CF9E3040F42850310981E002
:103B000001C0880F2A95EAF740CD2E503109F7CF32
:103B100089819A81019725E030E0A981BA812A1B29
:103B20003B0B220F331FE216F30650F4AA0FBB1F04
:103B3000EA0EFB1EB1E0EB1AF1089A8389836DCF80
:103B4000E981FA81E01BF10B3197EE0FFF1FEE0EBA
:103B5000FF1E0F5F1F4FF1CF40E46FE188E00E942E
:103B6000EC1340E16FEE88E00E94EC1347E068EF51
:103B700089E00E94EC1383E08093840640E26FE9C1
:103B80008AE00E94EC138CE00E940D1483E00E94F6
:103B900008144FE16CE0809183060E942F094FE1E9
:103BA0006DE0809183060E942F094FE16EE08091C5
:103BB00083060E942F094FE160E1809183060E94F5
:103BC0002F0941E068EF81E10E94EC1340E26FE8C9
:103BD00081E10E94EC1343E068EF82E10E94EC1364
:103BE00040E064E0809183060E942F0940E065E098
:103BF000809183060E942F0940E066E08091830651
:103C00000E942F094FE16CE0809183060E942F09EA
:103C10004FE16DE0809183060E942F091092FA0314
:103C20001092F9031092F8031092F70362E370E028
:103C300080E090E00E9453050E94860569837A83A4
:103C40008B839C830E942E054B015C018091FF03B6
:103C500090910004A0910104B091020429813A815D
:103C60004B815C81281B390B4A0B5B0BDA01C901C4
:103C700084369105A105B10508F4CBC089819A81EC
:103C8000AB81BC818093FF0390930004A093010457
:103C9000B09302040E9480048935A2E09A0714F0D0
:103CA00088E592E025E330E0DC010E945E2428E50F
:103CB00032E040E050E00E94A6216901B901330FD3
:103CC000880B990B0E9418232AE939E941E052E454
:103CD0000E94A42361E087FD60E088E00E94C404A4
:103CE0008DEE93E0EFEEF2E0228133812193319368
:103CF0008E179F07C9F7D092EE03C092ED038FEEA7
:103D000095E00E94D6168091490690914A0681530B
:103D1000944069F0E1E3F4E0F0934A06E093490649
:103D2000CF010E94510F8FEE95E00E94420E24E0D9
:103D300034E03093F2052093F10544E152E068E06D
:103D400070E090E080E00E948D114FEE52E05F83C2
:103D50004E83312C212CAE81BF812D913D91BF83AB
:103D6000AE83BFEF2B1A3B0AEE81FF8180819181E8
:103D70004FE350E0481B590BCA017101AFE3B0E0BB
:103D8000A21BB30BBB87AA872101B1E04B1A5108D4
:103D9000EA85FB854E175F0708F0D1C08F01041B31
:103DA000150B0230110508F4E0C038013A852B8567
:103DB0003B862A86E32EF22E342D252D2A01832FD1
:103DC000922F01E010E0F1E0FD836301D694C794E7
:103DD0004A855B854817590708F0CCC081E090E020
:103DE00099878887BFEFEB16FB0621F43EEFE32EA1
:103DF000FF24FA94E414F50408F0C1C05CE725162A
:103E0000310409F0A8CF8FEE95E00E94B116811120
:103E10007ACF8091FB039091FC03A091FD03B091B8
:103E2000FE03A5019401281B390B4A0B5B0BDA0139
:103E3000C901883C9105A105B10508F47AC18092B9
:103E4000FB039092FC03A092FD03B092FE038091CD
:103E5000B6069091B706891B87FD8C5F882309F40D
:103E600058C10E941214C12CD12C7601882361F014
:103E7000E091B60634E0E39FF0011124EF56F94FCC
:103E8000C580D680E780F0840E94121440E050E0A4
:103E9000BA01882361F0E091B60644E0E49FF001A6
:103EA0001124EF57F94F45815681678170858091C4
:103EB000580590915905FC01EE0FFF1FEE0FFF1FF3
:103EC000E257FB4FC282D382E482F582EA59FF4F68
:103ED0004083518362837383019690935905809345
:103EE0005805A0918E04B0918F04BF83AE838A17CA
:103EF0009B073CF0109259051092580581E0809381
:103F00005A0580915A05882309F4F6C000E914E0A7
:103F1000F80130E020E060E070E0CB014E815F818D
:103F2000241735070CF04AC0C190D190E190F19070
:103F30006C0D7D1D8E1D9F1D2F5F3F4FEFCF8A01A2
:103F40002A853B85021B130B0230110570F03801E6
:103F50007A01C101342D252D4A845B843A872B8751
:103F600001E010E031E03D8330CF1D826624639490
:103F7000712C2BCFAFEFBFEFB987A88733CFED817F
:103F80004A855B85B201EE2319F0A2016A857B8523
:103F90008FEE95E00E944E0DC01AD10AD7FE0AC0DE
:103FA0002A853B8548855985240F351F3B872A87FD
:103FB000C60CD71C5FEF451A550A1CCFAE81BF81D6
:103FC0006D01BB0FEE08FF08A70196010E94A62114
:103FD000E0E9F4E061E070E090E080E0AE81BF8174
:103FE0006A177B07B4F4419051906190719042162A
:103FF00053066406750650F44080518062807380D9
:10400000241535054605570508F401966F5F7F4F67
:10401000E5CF4CE0489F9001499F300D112430932B
:104020005C0520935B0530E020E060E070E0CB01B0
:10403000812C912C5401EE81FF812E173F07C4F48F
:10404000D8014D905D906D907D908D01840C951CF4
:10405000A61CB71CFD01E05AFF4F408051806280D2
:104060007380640D751D861D971D2F5F3F4FE3CF35
:10407000A70196010E94A621CA01B9010E94182336
:104080002B013C01C501B401A70196010E94A621A4
:10409000CA01B9010E9418239B01AC01C301B201FE
:1040A0000E946E2220E030E048EC51E40E94A923F7
:1040B0009B01AC0160E070E08CED92E40E94012273
:1040C0000E94E02270935E0560935D056634710581
:1040D00034F486E490E090935E0580935D058091D2
:1040E0005D0590915E058536910534F084E690E09B
:1040F00090935E0580935D058091B7069091B6061A
:10410000981B97FD9C5F992321F08F5F83708093AC
:10411000B70680915B0590915C059093FA038093BC
:10412000F90380915D0590915E059093F80380936B
:10413000F7038091F3039091F403A091F503B091FC
:10414000F60329813A814B815C81281B390B4A0B8C
:104150005B0BDA01C901883E9340A105B10508F463
:104160004AC089819A81AB81BC818093F30390938B
:10417000F403A093F503B093F603A091F703B09175
:10418000F803BF83AE830091F9031091FA0360E056
:1041900087E00E949D1566E272E08FE595E00E943F
:1041A000D61560E087E00E949D15C8018897813A86
:1041B000910508F09BC0B8018FE595E00E945A1662
:1041C00061E087E00E949D1566E272E08FE595E070
:1041D0000E94D61561E087E00E949D158E819F8127
:1041E000865491094F9708F088C06E817F818FE5D2
:1041F00095E00E945A168091EF039091F003A091F0
:10420000F103B091F20329813A814B815C81281B33
:10421000390B4A0B5B0BDA01C901883E9340A105BB
:10422000B10508F45BC089819A81AB81BC81809320
:10423000EF039093F003A093F103B093F2030E9475
:10424000800424E630E0DC010E945E242CEB32E0A6
:1042500040E050E00E94A6213A83298325363105AB
:1042600024F0A4E6B0E0BA83A9830091F903109189
:10427000FA03E090F703F090F8036EE272E088EB47
:1042800096E00E94D61569817A8177FF02C070E0BE
:1042900060E088EB96E00E945A1663E372E088EBD8
:1042A00096E00E94D615B70188EB96E00E945A1658
:1042B0006BE372E088EB96E00E94D615A801110F1F
:1042C000660B770B77FF20C088EB96E00E943116D3
:1042D00063ED71E088EB96E00E94D61580E090E0F7
:1042E000892B09F4A9CC0E940000A6CC6AE272E0F6
:1042F0008FE595E00E94D61563CF6AE272E08FE504
:1043000095E00E94D61577CF2AE088EB96E00E94D0
:10431000E515DECF81EA91E09093B9068093B80667
:104320008091ED029091EE02885B964071F4E091ED
:10433000CB06F091CC0690818091CD0680958923A3
:1043400080831092EE021092ED020895052E97FBE5
:104350001EF400940E94BD2157FD07D00E94D02179
:1043600007FC03D04EF40C94BD2150954095309538
:1043700021953F4F4F4F5F4F0895909580957095D1
:1043800061957F4F8F4F9F4F08950E94F221A59F07
:10439000900DB49F900DA49F800D911D1124089540
:1043A000A1E21A2EAA1BBB1BFD010DC0AA1FBB1F39
:1043B000EE1FFF1FA217B307E407F50720F0A21BAB
:1043C000B30BE40BF50B661F771F881F991F1A9418
:1043D00069F760957095809590959B01AC01BD0142
:1043E000CF010895A29FB001B39FC001A39F700D9C
:1043F000811D1124911DB29F700D811D1124911DED
:1044000008955058BB27AA270E9419220C946A23AA
:104410000E945C2338F00E94632320F039F49F3F10
:1044200019F426F40C9459230EF4E095E7FB0C9450
:104430005323E92F0E947B2358F3BA1762077307AF
:104440008407950720F079F4A6F50C949D230EF4CB
:10445000E0950B2EBA2FA02D0B01B90190010C0194
:10446000CA01A0011124FF27591B99F0593F50F4AC
:10447000503E68F11A16F040A22F232F342F442704
:10448000585FF3CF469537952795A795F0405395FC
:10449000C9F77EF41F16BA0B620B730B840BBAF0CC
:1044A0009150A1F0FF0FBB1F661F771F881FC2F737
:1044B0000EC0BA0F621F731F841F48F4879577954B
:1044C0006795B795F7959E3F08F0B0CF9395880F05
:1044D00008F09927EE0F9795879508950E948222FC
:1044E0000C946A230E94632358F00E945C2340F0DE
:1044F00029F45F3F29F00C94532351110C949E230F
:104500000C9459230E947B2368F39923B1F355231C
:1045100091F3951B550BBB27AA27621773078407D6
:1045200038F09F5F5F4F220F331F441FAA1FA9F36C
:1045300035D00E2E3AF0E0E832D091505040E6955A
:10454000001CCAF72BD0FE2F29D0660F771F881FBB
:10455000BB1F261737074807AB07B0E809F0BB0BAE
:10456000802DBF01FF2793585F4F3AF09E3F5105C2
:1045700078F00C9453230C949E235F3FE4F3983E11
:10458000D4F3869577956795B795F7959F5FC9F7AB
:10459000880F911D9695879597F90895E1E0660F2C
:1045A000771F881FBB1F621773078407BA0720F0A5
:1045B000621B730B840BBA0BEE1F88F7E09508950E
:1045C0000E94E7226894B1110C949E2308950E94E2
:1045D000832388F09F5798F0B92F9927B751B0F0EF
:1045E000E1F0660F771F881F991F1AF0BA95C9F777
:1045F00014C0B13091F00E949D23B1E008950C9455
:104600009D23672F782F8827B85F39F0B93FCCF307
:10461000869577956795B395D9F73EF490958095F3
:10462000709561957F4F8F4F9F4F0895E89409C013
:1046300097FB3EF490958095709561957F4F8F4FD5
:104640009F4F9923A9F0F92F96E9BB279395F695EB
:10465000879577956795B795F111F8CFFAF4BB0F69
:1046600011F460FF1BC06F5F7F4F8F4F9F4F16C0CD
:10467000882311F096E911C0772321F09EE8872F57
:10468000762F05C0662371F096E8862F70E060E013
:104690002AF09A95660F771F881FDAF7880F96958C
:1046A000879597F9089597F99F6780E870E060E033
:1046B00008959FEF80EC089500240A9416161706BB
:1046C00018060906089500240A9412161306140603
:1046D00005060895092E0394000C11F4882352F066
:1046E000BB0F40F4BF2B11F460FF04C06F5F7F4F1E
:1046F0008F4F9F4F089557FD9058440F551F59F005
:104700005F3F71F04795880F97FB991F61F09F3FBE
:1047100079F087950895121613061406551FF2CFE7
:104720004695F1DF08C0161617061806991FF1CF37
:1047300086957105610508940895E894BB2766275E
:104740007727CB0197F908950E94162408F48FEF7C
:1047500008950E94BC230C946A230E945C2338F0C5
:104760000E94632320F0952311F00C9453230C94A2
:10477000592311240C949E230E947B2370F3959F50
:10478000C1F3950F50E0551F629FF001729FBB2748
:10479000F00DB11D639FAA27F00DB11DAA1F649FE4
:1047A0006627B00DA11D661F829F2227B00DA11D97
:1047B000621F739FB00DA11D621F839FA00D611D1D
:1047C000221F749F3327A00D611D231F849F600D3E
:1047D000211D822F762F6A2F11249F5750409AF067
:1047E000F1F088234AF0EE0FFF1FBB1F661F771FF3
:1047F000881F91505040A9F79E3F510580F00C94BE
:1048000053230C949E235F3FE4F3983ED4F38695A4
:1048100077956795B795F795E7959F5FC1F7FE2B5D
:10482000880F911D9695879597F90895990F00081F
:10483000550FAA0BE0E8FEEF16161706E807F90772
:10484000C0F012161306E407F50798F0621B730B0D
:10485000840B950B39F40A2661F0232B242B252B8E
:1048600021F408950A2609F4A140A6958FEF811D31
:10487000811D0895DB018F939F930E94C521BF91F5
:10488000AF91A29F800D911DA39F900DB29F900D9F
:104890001124089597FB072E16F4009407D077FD96
:1048A00009D00E94652407FC05D03EF490958195BF
:1048B0009F4F0895709561957F4F08950E94F22152
:1048C000B7FF0895821B930B0895AA1BBB1B51E1F0
:1048D00007C0AA1FBB1FA617B70710F0A61BB70B70
:1048E000881F991F5A95A9F780959095BC01CD0115
:1048F0000895EE0FFF1F0590F491E02D0994DC015F
:1049000001C06D9341505040E0F7089513E0C9EDA8
:10491000D3E004C0FE010E9479242196CA3DD1074C
:10492000C9F7F894FFCF0000400014005400181598
:10493000A015C019FF1815A115C819FF1815AE1933
:10494000FF1815AF19FF1815AE15D5168015A81646
:104950003F15D316001540158D1614152016001599
:10496000A115C815DA1612158116CF15D916F1152D
:10497000DB1640152E15A415A619FF0001140A64B4
:1049800064323200093D00000428961008020280BB
:1049900000400000000000FD08D008AC13D705C996
:1049A00008B608A70800000000D0159205AC13ABAC
:1049B000130000000058133013AC13AB13640BEF5B
:1049C0000B540B00000000D8059205AC13D705343A
:1049D000064A06BF05484D55202D204D45444954F3
:1049E000524F4E49435320312E3120286D61727948
:1049F000616D207465616D29000D0A0050756C733E
:104A0000653A202020202042504D0053704F322024
:104A10003A20202020202500484D55202D20326EA0
:104A2000642079656172004D65646963616C204C36
:104A3000616220436F686F7274004543472020779E
:104A400061766520666F726D203A33002020200069
:104A5000455252004543473A00252C53704F323A95
:084A600000252C42504D3A00E4
:107E0000112484B714BE81FFF0D085E080938100F7
:107E100082E08093C00088E18093C10086E0809377
:107E2000C20080E18093C4008EE0C9D0259A86E02C
:107E300020E33CEF91E0309385002093840096BBD3
:107E4000B09BFECF1D9AA8958150A9F7CC24DD24C4
:107E500088248394B5E0AB2EA1E19A2EF3E0BF2EE7
:107E6000A2D0813461F49FD0082FAFD0023811F036
:107E7000013811F484E001C083E08DD089C08234E0
:107E800011F484E103C0853419F485E0A6D080C0E4
:107E9000853579F488D0E82EFF2485D0082F10E0AE
:107EA000102F00270E291F29000F111F8ED06801E7
:107EB0006FC0863521F484E090D080E0DECF843638
:107EC00009F040C070D06FD0082F6DD080E0C81688
:107ED00080E7D80618F4F601B7BEE895C0E0D1E017
:107EE00062D089930C17E1F7F0E0CF16F0E7DF06D8
:107EF00018F0F601B7BEE89568D007B600FCFDCFD4
:107F0000A601A0E0B1E02C9130E011968C91119780
:107F100090E0982F8827822B932B1296FA010C0160
:107F200087BEE89511244E5F5F4FF1E0A038BF0790
:107F300051F7F601A7BEE89507B600FCFDCF97BE46
:107F4000E89526C08437B1F42ED02DD0F82E2BD052
:107F50003CD0F601EF2C8F010F5F1F4F84911BD097
:107F6000EA94F801C1F70894C11CD11CFA94CF0C13
:107F7000D11C0EC0853739F428D08EE10CD085E9AC
:107F80000AD08FE07ACF813511F488E018D01DD067
:107F900080E101D065CF982F8091C00085FFFCCF94
:107FA0009093C60008958091C00087FFFCCF809118
:107FB000C00084FD01C0A8958091C6000895E0E648
:107FC000F0E098E1908380830895EDDF803219F02E
:107FD00088E0F5DFFFCF84E1DECF1F93182FE3DFCA
:107FE0001150E9F7F2DF1F91089580E0E8DFEE27F6
:047FF000FF270994CA
:027FFE00040479
:00000001FF
