:100000000C9458000C9480000C9480000C94800098
:100010000C9480000C9480000C9480000C94800060
:100020000C9480000C9480000C9480000C94800050
:100030000C9480000C9480000C9480000C94800040
:100040000C9443040C9480000C9480000C94800069
:100050000C9480000C9480000C9480000C94800020
:100060000C948D040C9480000000000025002800F2
:100070002B00040404040404040402020202020229
:10008000030303030303010204081020408001025C
:1000900004081020010204081020000000080002DB
:1000A0000100000304070000000000000000AC0590
:1000B00011241FBECFEFD8E0DEBFCDBF11E0A0E01E
:1000C000B1E0E4ECF0E102C005900D92A235B10779
:1000D000D9F722E0A2E5B1E001C01D92A133B20739
:1000E000E1F710E0C8E5D0E004C02197FE010E94CE
:1000F0005A08C735D107C9F70E94CC050C9460088F
:100100000C94000090E0FC01E656FF4F2491FC01A6
:10011000EA57FF4F3491FC01EE58FF4FE491EE2374
:10012000C9F0222339F0233001F1A8F4213019F16C
:10013000223029F1F0E0EE0FFF1FE859FF4FA591A3
:10014000B4918FB7F894EC91611126C030953E239D
:100150003C938FBF08952730A9F02830C9F0243090
:1001600049F7809180008F7D03C0809180008F7758
:1001700080938000DFCF84B58F7784BDDBCF84B5DB
:100180008F7DFBCF8091B0008F778093B000D2CF6E
:100190008091B0008F7DF9CF3E2BDACF3FB7F89436
:1001A0008091150290911602A0911702B091180249
:1001B00026B5A89B05C02F3F19F00196A11DB11DC2
:1001C0003FBFBA2FA92F982F8827BC01CD01620FFE
:1001D000711D811D911D42E0660F771F881F991FB9
:1001E0004A95D1F708958F929F92AF92BF92CF9286
:1001F000DF92EF92FF924B015C010E94CE006B01F7
:100200007C010E94CE006C197D098E099F09683E11
:10021000734081059105A8F321E0821A9108A10895
:10022000B10888EEC80E83E0D81EE11CF11C8114D1
:100230009104A104B10429F7FF90EF90DF90CF90D3
:10024000BF90AF909F908F90089508950895AF92BA
:10025000BF92CF92DF92EF92FF920F931F93CF93B3
:10026000DF936C017B018B01040F151FEB015E0115
:10027000AE18BF08C017D10759F06991D601ED91AA
:10028000FC910190F081E02DC6010995892B79F749
:10029000C501DF91CF911F910F91FF90EF90DF90FB
:1002A000CF90BF90AF900895089520919301260FAD
:1002B0003327331F21323105ECF42091DC01FC019E
:1002C00090E080E0243069F082E00895A0919301ED
:1002D0002191AC014D585E4FA40FB52FB11D2C9349
:1002E0000196861798F380919301680F60939301AC
:1002F00080E0089581E008951092DC0181E0809310
:10030000DB011092B60161E082E10E94820061E0AF
:1003100083E10E948200E9EBF0E080818E7F8083A0
:1003200080818D7F808388E48093B80085E480930A
:10033000BC000895CF93DF9391E0909372018823DE
:10034000B9F0C091B800D091BA008091BC008A7B0E
:100350008093BC0060E082E10E94820060E083E163
:100360000E9482000E947C01D093BA00C093B80022
:10037000DF91CF9108950895E0910B0280910A02D8
:10038000E81730F4F0E0EE5AFE4F808190E00895D7
:100390008FEF9FEF089590910B0280910A022FEF4B
:1003A0003FEF981748F4E92FF0E0EE5AFE4F208116
:1003B00030E09F5F90930B02C901089580910A027B
:1003C00090910B02891B990B0895CF92DF92EF92C7
:1003D000FF920F931F93CF93DF937C01CB018A0190
:1003E0002091E201222389F0EB016B01C40ED51E9E
:1003F000CC15DD0569F06991D701ED91FC91019073
:10040000F081E02DC7010995F3CF642F0E945501BB
:10041000C801DF91CF911F910F91FF90EF90DF9076
:10042000CF900895CF93DF931F92CDB7DEB7698346
:100430002091E2012223F9F020910802203258F0A5
:1004400021E030E0FC013383228390E080E00F90D4
:10045000DF91CF91089580910902E82FF0E0ED51EE
:10046000FE4F998190838F5F8093090280930802E9
:1004700081E090E0ECCF61E0CE0101960E94550151
:10048000F7CFCF92DF92EF92FF920F931F93CF930C
:10049000DF93FC01C48121E02093E201C0930302B9
:1004A00010920902109208028385682B89E192E07C
:1004B0000E941202D0910802D13208F092C00E942C
:1004C000CE006B017C018091DC01811165C082E06E
:1004D0008093DC0181E08093DB018FEF8093DA0170
:1004E0001092D901D093D801A3EEB1E0E8EBF1E08E
:1004F00080E0D81385C01092B7018091B701CC0F6E
:10050000C82BC093B7018091B601813009F07CC03F
:100510001092B6010E94CE006B017C018091B70160
:100520008093BB008091DE019091DF01A091E001FA
:10053000B091E101892B8A2B8B2B99F00E94CE0080
:100540000091DE011091DF012091E0013091E10185
:100550006C197D098E099F090617170728073907A7
:10056000E0F18091BC0083FDD9CF85EC8093BC0085
:100570000E94CE006B017C018091DC01823009F485
:1005800045C08091DA018F3F61F18091DA018032BC
:1005900041F18091DA0125C08091DE019091DF0167
:1005A000A091E001B091E101892B8A2B8B2B09F4FA
:1005B0008ACF0E94CE000091DE011091DF012091D0
:1005C000E0013091E1016C197D098E099F09061740
:1005D00017072807390708F076CF8091DD010E94C0
:1005E0009A0110920902109208021092E201DF9122
:1005F000CF911F910F91FF90EF90DF90CF900895D2
:100600009D9191938F5F75CF85EEB0CF8091DE0184
:100610009091DF01A091E001B091E101892B8A2B3B
:100620008B2B09F4A9CF0E94CE000091DE0110911E
:10063000DF012091E0013091E1016C197D098E0903
:100640009F09061717072807390708F095CFC5CF68
:1006500090E080E008958F929F92AF92BF920F93A7
:100660001F93CF93DF93CDB7DEB7A1970FB6F89462
:10067000DEBF0FBECDBF19A2423008F44AE08E01A2
:100680000F5D1F4F842E912CB12CA12CA50194013C
:100690000E942908E62FB901CA01EA3044F5E05D5D
:1006A000D801EE938D01232B242B252B79F790E095
:1006B00080E0109769F0FD0101900020E9F7319783
:1006C000AF014A1B5B0BBD0185E292E00E9427014E
:1006D000A1960FB6F894DEBF0FBECDBFDF91CF91CC
:1006E0001F910F91BF90AF909F908F900895E95CFC
:1006F000D7CFFC0101900020E9F73197AF01481BEB
:10070000590BBC0185E292E00C9427010F931F93D3
:10071000CF938C01C62F0E9441026C2F6460C801E8
:100720000E9441026C2F6B7FC8010E94410283EC42
:1007300090E00197F1F7CF911F910F9108950F93DA
:100740001F93CF93DF938C01D62FC42F607F642B30
:100750000E94860380E1D89FB00111246C2BC80150
:10076000DF91CF911F910F910C948603CF93DF936C
:10077000CDB7DEB728970FB6F894DEBF0FBECDBF5A
:1007800098E0E8E0F1E0DE01119601900D929A9573
:10079000E1F790912D02961708F46FEF262F30E0C5
:1007A000220F331F41E050E04C0F5D1F240F351F17
:1007B000F9016081680F606840E085E292E0289668
:1007C0000FB6F894DEBF0FBECDBFDF91CF910C9472
:1007D0009F0341E00E949F0381E090E00895CF9243
:1007E000DF92EF92FF926B017C0141E06DE285E2C6
:1007F00092E00E949F0366277727CB016C197D0941
:100800008E099F094AE00E942B030196FF90EF900A
:10081000DF90CF90089585ED8093BC008091DE013C
:100820009091DF01A091E001B091E1010796A11D37
:10083000B11D23E0B695A795979587952A95D1F791
:100840002091BC0024FD03C01092DC01089540916A
:10085000DE015091DF016091E0017091E101452BD3
:10086000462B472B69F30097A105B10541F02AE219
:100870002A95F1F700C00197A109B109E1CF809154
:10088000DD010C949A011F920F920FB60F92112462
:100890002F933F938F939F93AF93BF9380911102B8
:1008A00090911202A0911302B091140230911002A3
:1008B00023E0230F2D3758F50196A11DB11D20937C
:1008C00010028093110290931202A0931302B0932E
:1008D00014028091150290911602A0911702B09116
:1008E00018020196A11DB11D809315029093160266
:1008F000A0931702B0931802BF91AF919F918F916F
:100900003F912F910F900FBE0F901F90189526E8E2
:10091000230F0296A11DB11DD2CF1F920F920FB6C9
:100920000F9211242F933F934F935F936F937F9375
:100930008F939F93AF93BF93EF93FF938091B900F1
:10094000887F803609F44AC0F0F5883209F4A7C0E0
:1009500018F5803109F49BC0B8F4882309F4F9C074
:10096000883009F494C0FF91EF91BF91AF919F91AE
:100970008F917F916F915F914F913F912F910F9048
:100980000FBE0F901F901895883109F488C08032EF
:1009900051F78093DA0114C0803409F49DC040F40B
:1009A0008033B9F38833F9F68093DA0185ECB0C06F
:1009B000803509F485C0883509F496C0883499F6E5
:1009C0000E940B04D0CF883909F48CC038F58837E1
:1009D00029F050F4883611F0803729F683E08093AF
:1009E000DC011092B50157C0883809F47BC080390A
:1009F00019F0803809F0B7CF8091B501803208F046
:100A000071C0E091B50181E08E0F8093B5018091B6
:100A1000BB00F0E0EB56FE4F80833DC0803B39F0D9
:100A2000E0F4803A09F479C0883A09F09CCF84E078
:100A30008093DC011092940110929301E0910602E0
:100A4000F091070209958091930181110FC081E017
:100A5000809393011092730109C0803C09F4A6CFE2
:100A6000883C09F4A3CF883B09F07DCFE091940145
:100A700081E08E0F80939401F0E0ED58FE4F80816D
:100A80008093BB00909194018091930129C0809143
:100A9000B7018093BB0085EC8093BC0064CF90913C
:100AA000D9018091D801981758F5E091D90181E0DA
:100AB0008E0F8093D901F0E0E854FE4F8081E9CF9A
:100AC000E091D90181E08E0F8093D9018091BB0024
:100AD000F0E0E854FE4F80839091D9018091D801D5
:100AE0009817C8F285E8D8CFE091D90181E08E0F40
:100AF0008093D9018091BB00F0E0E854FE4F8083E1
:100B00008091DB0181115CCF81E08093B60184EAA2
:100B10008093BC001092DC0126CF85EC8093BC0052
:100B20001092DC018091B501803230F4E091B50182
:100B3000F0E0EB56FE4F10826091B50170E0E0915D
:100B40000402F091050285E991E009951092B50142
:100B50000ACF1092DA0134CFE9E1F2E01382128277
:100B600088EE93E0A0E0B0E084839583A683B7830A
:100B700084E191E091838083E5E2F2E013821282C6
:100B800086E291E09183808380E2848380E18187A3
:100B900082E0828713860895789484B5826084BD4C
:100BA00084B5816084BD85B5826085BD85B5816071
:100BB00085BD80916E00816080936E0010928100EF
:100BC00080918100826080938100809181008160AA
:100BD000809381008091800081608093800080916B
:100BE000B10084608093B1008091B00081608093F7
:100BF000B00080917A00846080937A0080917A00BE
:100C0000826080937A0080917A00816080937A007C
:100C100080917A00806880937A001092C1001092CF
:100C20000B0210920A0210920902109208020E940E
:100C30007C0185E291E0909307028093060286E2B0
:100C400091E0909305028093040210922A02809111
:100C50002F02823018F098E090932A0280932D02A0
:100C600062E370E080E090E00E94F3006091300267
:100C700085E292E00E94410268EE73E080E090E03D
:100C80000E94F30060E385E292E00E948603CBE4D9
:100C9000D6E4CE010197F1F760E385E292E00E948D
:100CA00086032197F1F760E385E292E00E948603D4
:100CB00083E592E00197F1F760E285E292E00E941D
:100CC000860360912A02606240E085E292E00E9421
:100CD0009F0384E080932B0240E06CE085E292E089
:100CE0000E949F0340E061E085E292E00E949F0342
:100CF000CBE3DFE1CE010197F1F782E080932C0294
:100D000040E066E085E292E00E949F0340E062E0FE
:100D100085E292E00E949F03CE010197F1F788E0FF
:100D20008093300260E085E292E00E94410240E060
:100D300061E085E292E00E949F032197F1F760E075
:100D400080E00E94B6038EE291E00E94790361E0A8
:100D500080E00E94B6038DE391E00E94790384EB6A
:100D6000882E912CA12CB12C9AE2492E512C612C69
:100D7000712C20E0E22E20E0F22E2FB7F894809123
:100D8000110290911202A0911302B09114022FBF90
:100D900040910C0250910D0260910E0270910F0271
:100DA000841B950BA60BB70B883E9340A105B1059C
:100DB00008F468C02FB7F894809111029091120244
:100DC000A0911302B09114022FBF80930C02909354
:100DD0000D02A0930E02B0930F02C0910201D091B8
:100DE0000301009100011091010160E087E00E9481
:100DF000B6038AE491E00E94790360E087E00E94F4
:100E0000B603C8018897813A910508F042C0B8013D
:100E1000110F880B990B4AE00E942B0361E087E0D9
:100E20000E94B6038AE491E00E94790361E087E0C2
:100E30000E94B603CE01865491094F9778F5BE0102
:100E4000DD0F880B990B4AE00E942B030E949F073D
:100E5000A50194010E94F707625E7F4F8F4F9F4F5D
:100E600070930101609300010E949F07A30192010A
:100E70000E94F707645C7F4F8F4F9F4F7093030171
:100E800060930201E114F10409F477CF0E9400009D
:100E900074CF8EE491E00E947903C0CF8EE491E09C
:100EA0000E947903D3CF8F929F92AF92BF92CF923D
:100EB000DF92EF92FF92CF93DF93EC01688179810B
:100EC0008A819B81611571058105910521F464E298
:100ED00079ED8BE597E02DE133EF41E050E00E94A2
:100EE000F70749015A019B01AC01A7EAB1E40E944E
:100EF00016086B017C01ACEEB4EFA50194010E94D1
:100F00002408C60ED71EE81EF91EF7FE06C081E0B3
:100F1000C81AD108E10880E8F80AC882D982EA82B2
:100F2000FB82C701B6019F77DF91CF91FF90EF90D1
:100F3000DF90CF90BF90AF909F908F9008958F9249
:100F40009F92AF92BF92CF92DF92EF92FF92609109
:100F500004017091050180910601909107016115CE
:100F600071058105910521F464E279ED8BE597E047
:100F70002DE133EF41E050E00E94F70749015A01AB
:100F80009B01AC01A7EAB1E40E9416086B017C0149
:100F9000ACEEB4EFA50194010E942408C60ED71E42
:100FA000E81EF91EF7FE06C081E0C81AD108E10864
:100FB00080E8F80AC0920401D0920501E09206018F
:100FC000F0920701C701B6019F77FF90EF90DF9085
:100FD000CF90BF90AF909F908F9008956093040141
:100FE0007093050180930601909307010895052EE3
:100FF00097FB1EF400940E940E0857FD07D00E9434
:10100000290807FC03D04EF40C940E085095409527
:10101000309521953F4F4F4F5F4F089590958095A4
:10102000709561957F4F8F4F9F4F08950E944B0899
:10103000A59F900DB49F900DA49F800D911D11242C
:101040000895B7FF0C9416080E941608821B930B94
:101050000895A1E21A2EAA1BBB1BFD010DC0AA1FF9
:10106000BB1FEE1FFF1FA217B307E407F50720F011
:10107000A21BB30BE40BF50B661F771F881F991F8C
:101080001A9469F760957095809590959B01AC01D5
:10109000BD01CF010895A29FB001B39FC001A39FDE
:1010A000700D811D1124911DB29F700D811D1124A1
:1010B000911D0895EE0FFF1F0590F491E02D099406
:0410C000F894FFCFD2
:1010C4004B006200010000000000400014005400C6
:1010D400000000001202E5012803BB01DE01CB0180
:1010E400BC0100000000E9032701280354015075E6
:1010F4006C73653A202020202042504D0053704FDD
:1011040032203A2020202020250020202000455293
:02111400520087
:00000001FF
