:100000000C944C020C9474020C9474020C947402C0
:100010000C9474020C9474020C9474020C94740288
:100020000C9474020C9474020C9474020C94740278
:100030000C9474020C9474020C9474020C94740268
:100040000C94FF0F0C9474020C946F100C944910D4
:100050000C9474020C9474020C9474020C94740248
:100060000C94A1100C9474020000000023002600E0
:10007000290000000000240027002A0000000000E2
:10008000250028002B0004040404040404040202D4
:100090000202020203030303030301020408102007
:1000A0004080010204081020010204081020000012
:1000B0000008000201000003040700000000000027
:1000C00000005F0003020304030504050A00FE07A5
:1000D000FE07000142028803B620050062072107DF
:1000E0003943C7A00422079B52476209230E3D42B1
:1000F0004F294906A53228A52401240C3D4257B6B4
:10010000D4B624D92200250C3D424FA474ABB44888
:100110000900260D3D424F9644495649A4480927F7
:10012000061953C7002808BB425752AA152909BB14
:10013000424756AA94002A0A2D4647965406A52DF2
:100140002B0A2D4657180D5218012C079B3E8F5233
:10015000022D060D4EC7202E089B3E4FB224002FC5
:10016000083D4267AD6308300B3D425796D46C4959
:100170002D02310A3D4257262561D320320C3D42E3
:10018000CF92859194858300330C3D42C7206699B8
:10019000AA250B00340C3D425F2625A564D0C2047D
:1001A000350B3D42C73131855AB200360C3D42977E
:1001B000948589494B1600370B3D42C7206661562E
:1001C000CC00380C3D42CF9269C99269C902390C02
:1001D0003D42CF92498A126691043A0ABB3E4FB221
:1001E000A4C992003B09BB3E4FB2A44A093C08BCDB
:1001F000425FD4D8003D081D4AC7A00E023E08BC8D
:100200004247D8D4063F0A3D42CF9235E6500440DB
:100210000C3D42CF92494B62491700410C3D425779
:1002200096D4B461C8B400420D3D42C71055A264D3
:10023000AA448302430A3D42CF92896DC902440F0A
:100240003D42C71055A2244AA2241A1400450B3D72
:1002500042C7311C92301C04460A3D42C7311C92F1
:10026000B008470B3D42CF9289A52D5900480A3D61
:100270004247661B86CC164908BB42C71275194A0D
:100280000A3D42D716B64491044B0D3D4247262500
:10029000252D892A59004C083D4247D8E3204D0BB3
:1002A0003D4247A62D4BA2D9024E0C3D4247A64DDA
:1002B0004A226D5A004F0A3D42CF92794B160050A8
:1002C0000C3D42C79064DAA0844500510A453ECFF8
:1002D0009279A9AC01520D3D42C79064DAA0942AEC
:1002E0005900530B3D42CF92A9AB962C0054093DC7
:1002F00042C720853D0155093D4247E65BB20056A5
:100300000D3D4247664B4A4994641100570A3D42ED
:1003100047E69228C92D580B3D4247A625B54A4DC0
:100320000B590A3D4247A625B5B0095A0A3D42C7B6
:1003300020661D07015B08BB42C710751A5C083DAB
:10034000424798760C5D08BB42C7D469085E081D19
:10035000525796D4025F060D3EC7206006125B47D7
:1003600014610A2D42CF9A0C5A3204620B3D424767
:1003700058316993A200630A2D42CF928959B20085
:10038000640A3D4267C5B4498A12650A2D42CF927C
:100390000D43BA00660B3D429754C98628AC0167ED
:1003A0000C3D3ACFA069C9106AC902680A3D4247AC
:1003B000583169B6006908BB424F28B50C6A0BCCAE
:1003C0003A5FACD5242951006B0B3D4247589392BC
:1003D000A992056C08BB4287D4CB006D0B2D4287D8
:1003E000D2A2244AA2056E092D424762D26C016F47
:1003F000092D42CF92D99205700C3D3A4762D22620
:1004000045094300710A3D3A8F699314252C7209FE
:100410002D424762128B0073092D42CF921E1400A9
:10042000740C3D424F980D51588A140075092D42A5
:1004300047E6A42801760B2D4247A625A5248B006C
:10044000770A2D42476649942E00780A2D42479636
:10045000D42AB500790C3D3A47665294504B1600A9
:100460007A092D42C7A0B50D027B0ABC429712261D
:1004700062140A7C063943C7217D0BBC428718856C
:100480004A9848007E091D524FA4245202000000E1
:1004900004FFFF000000C01111241FBECFEFD8E001
:1004A000DEBFCDBF11E0A0E0B1E0EEE4FBE202C0B0
:1004B00005900D92A03CB107D9F728E0A0ECB1E07F
:1004C00001C01D92A93EB207E1F712E0CCE4D2E0F0
:1004D00004C02197FE010E949815CB34D107C9F7BB
:1004E0000E94C1120C94A5150C940000662329F0FB
:1004F0006A3019F0862F90E008958FEF9FEF0895EE
:10050000AF92BF92CF92DF92EF92FF920F93CF9371
:10051000DF93EC01DA017901942F9770E1E0F0E0CC
:100520009F01092E01C0220F0A94EAF7522F6E0193
:100530008AE8C80ED11CF601808140E0823018F4B0
:10054000422F813049F15D01F8EFAF22E8ADF9ADFE
:1005500028813981D90150968C918A9D90018B9D7B
:10056000300D1124620F731FDF01A60FB71F011199
:100570001AC0EA0EFB1E8C91842B85278D93AE1535
:10058000BF05C9F7DF91CF910F91FF90EF90DF90FA
:10059000CF90BF90AF90089550E0D5CF440F550F46
:1005A000E114F10479F33C91342B35273C939F5FA0
:1005B0009770E1E0EE1AF1089111F0CF2CAD3DAD4E
:1005C000A20FB31FF6018081823028F4813009F038
:1005D00051E041E0E5CF51E0E3CF80E0089590E0C5
:1005E00080E00895CF93DF93C3E5D8E08FAFEAAD05
:1005F000FBAD0190F081E02D87E598E00995EAAD2B
:10060000FBAD0280F381E02D87E598E0DF91CF918B
:1006100009949B01DC011896ED91FC9141E067E1A2
:100620000994833081F028F4813099F08230A9F068
:1006300008958730A9F08830C9F08430B1F48091F2
:1006400080008F7D03C0809180008F778093800031
:10065000089584B58F7784BD089584B58F7DFBCFD1
:100660008091B0008F778093B00008958091B000A2
:100670008F7DF9CF1F93CF93DF93282F30E0F901BF
:10068000E255FF4F8491F901E656FF4FD491F901ED
:10069000EA57FF4FC491CC23A9F0162F81110E9475
:1006A0001103EC2FF0E0EE0FFF1FE458FF4FA59170
:1006B000B4918FB7F894EC91111108C0D095DE2356
:1006C000DC938FBFDF91CF911F910895DE2BF8CF80
:1006D000CF93DF9390E0FC01E656FF4F24918A57B9
:1006E0009F4FFC0184918823D1F090E0880F991FDF
:1006F000FC01EE58FF4FA591B491FC01E458FF4F67
:10070000C591D491623071F49FB7F8943C91822FD7
:10071000809583238C93E8812E2B28839FBFDF91C4
:10072000CF9108958FB7F894EC912E2B2C938FBF17
:10073000F6CF3FB7F8948091A6039091A703A091BC
:10074000A803B091A90326B5A89B05C02F3F19F0B7
:100750000196A11DB11D3FBFBA2FA92F982F882741
:10076000BC01CD01620F711D811D911D42E0660F1C
:10077000771F881F991F4A95D1F708958F929F92EE
:10078000AF92BF92CF92DF92EF92FF926B017C010A
:100790000E9499034B015C01C114D104E104F104EE
:1007A000B9F00E949903681979098A099B09683E82
:1007B00073408105910580F321E0C21AD108E10858
:1007C000F10888EE880E83E0981EA11CB11CE4CFCE
:1007D000FF90EF90DF90CF90BF90AF909F908F9061
:1007E0000895AF92BF92CF92DF92EF92FF920F9354
:1007F0001F93CF93DF936C017B018B01040F151FB7
:10080000EB015E01AE18BF08C017D10759F069911E
:10081000D601ED91FC910190F081E02DC601099582
:10082000892B79F7C501DF91CF911F910F91FF902F
:10083000EF90DF90CF90BF90AF900895FC01538D63
:10084000448D252F30E0842F90E0821B930B5417AA
:1008500010F0CF96089501970895FC01918D828D37
:10086000981761F0A28DAE0FBF2FB11D5D968C91D0
:10087000928D9F5F9F73928F90E008958FEF9FEF0F
:100880000895FC01918D828D981731F0828DE80FCB
:10089000F11D858D90E008958FEF9FEF0895FC0185
:1008A000918D228D892F90E0805C9F4F821B910952
:1008B0008F73992708958AEA93E00E944F0421E0FC
:1008C000892B09F420E0822F089580E090E0892BA5
:1008D00029F00E945B0481110C9400000895FC0132
:1008E000A48DA80FB92FB11DA35ABF4F2C91848D91
:1008F00090E001968F739927848FA689B7892C93EE
:10090000A089B1898C91837080648C93938D848D40
:10091000981306C00288F389E02D80818F7D808343
:100920000895EF92FF920F931F93CF93DF93EC0103
:1009300081E0888F9B8D8C8D98131AC0E889F98986
:10094000808185FF15C09FB7F894EE89FF89608389
:10095000E889F98980818370806480839FBF81E00A
:1009600090E0DF91CF911F910F91FF90EF9008954C
:10097000F62E0B8D10E00F5F1F4F0F731127E02E27
:100980008C8D8E110CC00FB607FCFACFE889F9895F
:10099000808185FFF5CFCE010E946F04F1CFEB8DF2
:1009A000EC0FFD2FF11DE35AFF4FF0829FB7F89433
:1009B0000B8FEA89FB8980818062CFCFCF93DF9351
:1009C000EC01888D8823B9F0AA89BB89E889F98967
:1009D0008C9185FD03C0808186FD0DC00FB607FC9C
:1009E000F7CF8C9185FFF2CF808185FFEDCFCE01CF
:1009F0000E946F04E9CFDF91CF91089520915302B7
:100A0000260F3327331F21323105ECF42091790270
:100A1000FC0190E080E0243069F082E00895A0912C
:100A200053022191AC014F5C5D4FA40FB52FB11D56
:100A30002C930196861798F380915302680F609368
:100A4000530280E0089581E008951092790281E0D8
:100A500080937B0210927A0261E082E10E943A0365
:100A600061E083E10E943A03E9EBF0E080818E7F50
:100A7000808380818D7F808388E48093B80085E4C3
:100A80008093BC000895CF93DF9391E09093300260
:100A90008823B9F0C091B800D091BA008091BC0011
:100AA0008A7B8093BC0060E082E10E943A0360E0B0
:100AB00083E10E943A030E942505D093BA00C093B7
:100AC000B800DF91CF910895089508950895E091B9
:100AD000280280912702E81730F4F0E0E95FFD4F2B
:100AE000808190E008958FEF9FEF08959091280204
:100AF000809127022FEF3FEF981748F4E92FF0E09D
:100B0000E95FFD4F208130E09F5F90932802C9018B
:100B100008958091270290912802891B990B0895CE
:100B2000CF92DF92EF92FF920F931F93CF93DF93B9
:100B30007C01CB018A0120910602222389F0EB017E
:100B40006B01C40ED51ECC15DD0569F06991D70186
:100B5000ED91FC910190F081E02DC7010995F3CF53
:100B6000642F0E94FE04C801DF91CF911F910F9165
:100B7000FF90EF90DF90CF900895CF93DF931F9277
:100B8000CDB7DEB76983209106022223F9F02091C8
:100B90002902203258F021E030E0FC013383228327
:100BA00090E080E00F90DF91CF91089580912A022C
:100BB000E82FF0E0EA51FE4F998190838F5F809398
:100BC0002A028093290281E090E0ECCF61E0CE011F
:100BD00001960E94FE04F7CFDC011A96ED91FC917C
:100BE00030E020E00994DC011496ED91FC9130E0B6
:100BF00020E040E060E10994DC011696ED91FC9163
:100C000030E020E040E069E10994DC011696ED91C6
:100C1000FC9130E020E040E068E109949A01DC01B9
:100C20001696ED91FC91462F67E10994EF92FF92A1
:100C30000F931F93CF93DF931F92CDB7DEB77C0145
:100C40008B01D8016C91673129F150F46531A0F422
:100C50000F90DF91CF911F910F91FF90EF9008952A
:100C60006A3118F16E3FA1F7F8014181498369E2C9
:100C7000C7010E94EC050BC0F80141814983D701EF
:100C80001696ED91FC9130E020E0C70109950E5FCA
:100C90001F4FD7CFF80181818983AE014F5F5F4F2E
:100CA00061E0C7010E940E06F2CF0F5F1F4FD70110
:100CB0001696ED91FC9130E020E040E0C7010995E7
:100CC000C0CF462FDC011696ED91FC9130E020E07C
:100CD00066E10994462FDC011696ED91FC9130E017
:100CE00020E065E10994EF92FF920F931F93CF9359
:100CF000DF93EC01042F79016D3009F446C050F404
:100D00006B30C9F1693009F49FC06A3009F465C0DD
:100D100080E046C06E3009F452C06F3099F70E94EF
:100D20000506F7011381110F110F110F6C89160FB2
:100D300060E4CE010E946A06612F62956F70606167
:100D4000CE010E946A06612F6F70CE010E9461067B
:100D5000F7016481606BCE010E946106F70140815A
:100D600051816281660F660F660FCE010E940E06EA
:100D70000150A1F72EC063E171E0442311F06EE051
:100D800071E0CE010E9416060AC0411110C067E052
:100D900071E00E941606E881F98182898C8B81E0DE
:100DA000DF91CF911F910F91FF90EF90089560E038
:100DB00071E00E941606E881F9818389EFCF0E94D5
:100DC000050661E8CE010E946A06602FCE010E94EE
:100DD0006106CE010E94FC05E2CFEA85FB8530E08A
:100DE00020E040E068E2CE010995EE81FF8130E02D
:100DF00020E040E064E1CE01099541E06BE4CE01E2
:100E00000E94EC05E881F981448169E2CE010E94EB
:100E1000EC0540E06BE4CE010E94EC05E881F9812D
:100E2000448169E2CE010E94EC0541E06BE4CE0111
:100E30000E94EC05E881F981458169E2CE010E94BA
:100E4000EC0568E171E09DCF8DE491E099838883A2
:100E50001C8AA5CFDC011896ED91FC9130E020E0D2
:100E600040E069E10994DC011896ED91FC9130E0D5
:100E700020E040E068E10994CF93DF931F92CDB763
:100E8000DEB76983BE016F5F7F4F0E9409030F9039
:100E9000DF91CF910895EF92FF921F93CF93DF934D
:100EA000EC01162F7A010E94330760E4CE010E9404
:100EB0003C07E885F9859701412F67E1CE01099547
:100EC000CE01DF91CF911F91FF90EF900C942A07F4
:100ED000EF92FF921F93CF93DF93EC01142F7901D0
:100EE000663181F138F4643109F44BC0653179F031
:100EF00080E022C06831C9F150F16931C9F78091B1
:100F0000E501882391F1CE010E942A072EC080912D
:100F1000E501882319F0CE010E942A07CE010E9424
:100F2000330760E0CE010E943C07612FCE010E9492
:100F30003C0781E08093E501DF91CF911F91FF9005
:100F4000EF900895642F0E943C0781E0F5CF8091D7
:100F5000E501882319F0CE010E942A07A701193163
:100F600038F4612FCE010E944B071092E501EDCFBE
:100F700068E1CE010E944B07185188E1E80EF11C90
:100F8000EDCF8E898F3F11F488E78E8BE885F98548
:100F90009701412F64E1CE01DF91CF911F91FF9026
:100FA000EF9009940F93FC01E05CFF4F0190F081FA
:100FB000E02D4E1B5F0BDC01D496ED91FC91099561
:100FC0000F910895CF93DF93FC01A081B18182AD91
:100FD00090E09C0143E0220F331F4A95E1F737AFC1
:100FE00026AF50962C91509748E0249F90011124F1
:100FF00035AF24AF23AD30E0B90153E0660F771F62
:101000005A95E1F7EF01C05CDF4F79836883519611
:101010004C915197E901C80FD91F50E04C175D075B
:1010200018F4CA01821B930BEF01CE5BDF4F79836B
:101030006883229623E0880F991F2A95E1F7860F8F
:10104000971F99838883229654968D919C915597EA
:1010500099838883E85BFF4F56968D919C9191838D
:101060008083DF91CF9108950F931F93FC01E25B82
:10107000FF4F0190F081E02DDC01A05BBF4F0D9090
:10108000BC91A02D4A175B0740F4E017F10748F028
:101090000417150730F080E019C0E017F107C0F31E
:1010A000FACFFC01E65BFF4F40815181845B9F4F8B
:1010B000FC01808191816817790758F481E042171B
:1010C000530720F081E02617370728F71F910F916B
:1010D000089542175307B0F3DECF2F923F924F92FD
:1010E0005F926F927F928F929F92AF92BF92CF92B8
:1010F000DF92EF92FF920F931F93CF93DF93CDB7C1
:10110000DEB72A970FB6F894DEBF0FBECDBF9A8721
:101110008987865B9F4F9A838983FC0111821082A5
:10112000E985FA85EA5BFF4F4080518029853A8541
:10113000245B3F4F3C832B83F90151824082E98538
:10114000FA85EE5BFF4F2080318029853A85225B4E
:101150003F4F3E832D83F90131822082E985FA8554
:10116000EC5BFF4F6080718029853A85205B3F4FA3
:1011700038872F83F90171826082E985FA85E85A00
:10118000FF4FE080F180E985FA85EC5AFF4FA0809F
:10119000B180E985FA85EA5AFF4FC080D180E985A0
:1011A000FA85EE5AFF4F8080918087019501A60154
:1011B000B40189859A850E94340829853A852C577F
:1011C0003F4F3A87298781111BC0F90110822A9667
:1011D0000FB6F894DEBF0FBECDBFDF91CF911F9148
:1011E0000F91FF90EF90DF90CF90BF90AF909F90C6
:1011F0008F907F906F905F904F903F902F900895C9
:1012000081E0E985FA8580838114910421F0E981E8
:10121000FA8191828082A414B50420F4EB81FC81D0
:10122000B182A0822C143D0420F4ED81FE81D18294
:10123000C082E614F70458F6EF81F885F182E08267
:10124000C6CF0F93CF93DF93E02FDC01AC57BF4F96
:10125000FC91FF2309F460C02115310509F45CC03D
:101260002230310538F0023009F04AC06F5F7F4FFD
:10127000621B730B0E2F0170E0FD52C0FC01E25B9C
:10128000FF4F0190F081E02D4E175F0708F444C036
:10129000FC01E05BFF4F0190F081E02D4E175F07EE
:1012A000D8F5FC01E45BFF4F0190F081E02DDC01FB
:1012B000A65BBF4F0D90BC91A02D260F371F2617A0
:1012C000370738F56E177F0718F59F012150310950
:1012D000A217B30708F56A177B0708F4BD012E179C
:1012E0003F0708F4F901E61BF70BEC01AEA9BFA913
:1012F00014960D90BC91A02D9F01FD0109950CC085
:10130000033009F0B7CF4F5F5F4F421B530BB2CF93
:10131000BD016E177F07E0F2DF91CF910F91089525
:10132000FC01E65BFF4F0190F081E02D6E177F0717
:1013300098F3FC01E45BFF4F0190F081E02D6E1704
:101340007F0750F7FC01E05BFF4F0190F081E02D3B
:10135000DC01A25BBF4F0D90BC91A02D240F351F67
:1013600024173507A8F44E175F0788F49F01215012
:101370003109A217B30780F64A175B0708F4AD01DD
:101380002E173F0708F4F901E41BF50BAECFAD01B2
:101390004E175F0708F6EDCF213069F038F02230A4
:1013A00079F0840F911D47FD9A950895860F911D40
:1013B00067FD9A950895841B910947FD93950895BB
:1013C000861B910967FD93950895213069F038F0E7
:1013D000223079F0861B910967FD93950895840F5B
:1013E000911D47FD9A950895860F911D67FD9A9569
:1013F0000895841B910947FD939508953F924F925C
:101400005F926F927F928F929F92AF92BF92CF9294
:10141000DF92EF92FF920F931F93CF93DF937C01A4
:10142000162F442EEC01C25ADF4F5E806F806C0194
:101430008AE8C80ED11C78847518312E711608F40C
:10144000372C8C809D800E85202F462D652D8A811E
:101450009B810E94CC095C01202F462D652DC40183
:101460000E94E509AC01442079F08C85F601808367
:10147000232D30E0B501C7010E942109171548F05E
:1014800017196394512CD7CF8B858111F7CF8D8598
:10149000EDCF150D1E836F82DF91CF911F910F91BC
:1014A000FF90EF90DF90CF90BF90AF909F908F9084
:1014B0007F906F905F904F903F900895DC011A9657
:1014C0004C911A97ED91FC911197249130E0042EE4
:1014D00002C0359527950A94E2F7842F860F88304D
:1014E00068F031961196FC93EE93E49198E0941B8A
:1014F00001C0EE0F9A95EAF72E2B88501A968C931E
:101500008FEF9FEF01C0880F6A95EAF780958223DD
:101510000895FC01E60FF11D849190E0982F882733
:101520003196E4918E0F911D08954F925F926F92C4
:101530007F928F929F92AF92BF92CF92DF92EF9263
:10154000FF920F931F93CF93DF93EC016B018A01FE
:101550007901FC01E459FF4F8081813009F44BC0CF
:1015600008F43EC0823009F451C0833009F459C0F8
:10157000FE01E05AFF4FD182C08232961183008370
:1015800038978081918147962FEFE216F10411F090
:1015900008F0F2C0E1E6EE16F10408F44DC0FE01D9
:1015A000E058FF4F20813181820F931F9C012F5FF4
:1015B0003F4FF9014491411148C090E080E0DF9134
:1015C000CF911F910F91FF90EF90DF90CF90BF9040
:1015D000AF909F908F907F906F905F904F90089505
:1015E000FE01E45AFF4F0190F081E02DCE010995F4
:1015F000080F191FBDCFFE01E45AFF4F0190F08183
:10160000E02DCE010995C81AD90AB2CFFE01E45ADD
:10161000FF4F0190F081E02DCE010995081B190BB9
:10162000A7CFFE01E45AFF4F0190F081E02DCE01DB
:101630000995C80ED91E9CCFF1E4EF16F10408F409
:10164000B5CFFE01E258FF4FADCFFC0144914E15DE
:101650001F0409F08CC00296009709F4AECF7E01FA
:10166000FEE5EF0EF11CF7019183808312867396DD
:101670006081C7010E945E0AF701808774966081CD
:10168000C7010E945E0A982EF70181875E01FAE881
:10169000AF0EB11CF5019081F701948781E09111A3
:1016A00080E0F7018587FE01ED58FF4FC0806C2D6B
:1016B000C7010E945E0A582EFE01EC58FF4FD080F1
:1016C0006D2DC7010E945E0A482EFE01EB58FF4FA8
:1016D0001081612FC7010E945E0A9FEF910F01E008
:1016E00010E0980101C0220F9A95EAF7882E821A1D
:1016F000F701608416140CF0ADC0CA94C80101C093
:10170000880FCA94EAF7581A7684490CDA94A8012B
:1017100001C0440FDA94EAF7F42FF4194F2E272D65
:101720004F2F652DF701828193810E94CC096C01B6
:10173000F70193838283272D442D652D8481958124
:101740000E94E509F70195838483F1E07F1609F48F
:1017500085C07F1608F43FC022E0721609F48DC0E0
:10176000E3E07E1609F49DC0BC0196013EC0F9017C
:101770002491820F911D1ACFFE01EE57FF4F008179
:101780001181080F191F680160E0C6010E94890AD3
:10179000080F191F62E0C6010E94890AF4E0CF0E0B
:1017A000D11C8E159F0580F3F801849190E0982F4D
:1017B00088273196E4918E2B009709F4FECEE81627
:1017C000F90619F4C801039647CFF8013296E4915F
:1017D0000E0F111DE9CF9601260D311D67FC3A95BC
:1017E000BC01690D711D97FC7A958B01AC01B601A6
:1017F000CE010E943408882369F1F701168217820E
:101800008E0101591F4F6E01F0E7CF0ED11CF80178
:101810006081C7010E945E0A682EF6016081C701DF
:101820000E945E0A782E40E0662DCE010E94FE09DD
:1018300041E0672DCE010E94FE0961E0C7010E94D0
:101840005E0A8111F0CFF7018781891504F3848541
:10185000F5018083882D880C990BB1CE09191109E7
:1018600097FC139596012F5F3F4FBC01660D711DCC
:1018700067FC7A95C00ED11EB8CFA8014619510950
:1018800067FC539596012F5F3F4F0919110997FC8B
:101890001395BC016F5F7F4F800F911FC40ED51E43
:1018A000A4CF9601290D311D97FC3A95061911090F
:1018B00067FC1395BC016F5F7F4F800F911F95CF21
:1018C000CF92DF92EF92FF920F931F93CF93DF930C
:1018D00010926F088BE9C82E81E0D82EF12CE12CF4
:1018E00000E210E0CAE0D0E0F60161916F01E09102
:1018F0005908F0915A0887E598E009958F3F9807B5
:1019000019F18E3F2FEF920779F39C01A801BE01D8
:1019100087E598E00E94950A2091C308213059F08C
:1019200038F0223059F0233061F0E80EF91EDCCF98
:10193000C80FD91FFACF080F191FF7CFC81BD90B33
:10194000F4CF081B190BF1CFC701DF91CF911F9185
:101950000F91FF90EF90DF90CF900895AF92BF92DC
:10196000CF92DF92EF92FF920F931F93CF93DF936B
:1019700000D000D01F92CDB7DEB78C01DC01DA9623
:10198000AC90DA97DB96EC90DB97ED91FC91B18807
:10199000FE2CD12CC12CD801ED91FC91119780899E
:1019A000D8962D913C911C82FD828B83B8E08B9F51
:1019B000C00111248C9DA0018D9D500D9C9D500D4A
:1019C0001124240F351F3A832983D8011496ED91F1
:1019D000FC919E012F5F3F4F41E06FE0C8010995E8
:1019E000F3948F2D8E198A1528F4BFEFCB1ADB0ADA
:1019F000FB1488F20F900F900F900F900F90DF91D3
:101A0000CF911F910F91FF90EF90DF90CF90BF90FB
:101A1000AF900895CF92DF92EF92FF920F931F93B2
:101A2000CF93DF93EC01962F683109F44BC0B901D5
:101A3000993130F49431C9F0973189F080E006C0D3
:101A4000993109F461C09032C9F781E0DF91CF91FB
:101A50001F910F91FF90EF90DF90CF90089550E08D
:101A600087E494E00E949005F0CF8C859D85AE853B
:101A7000BF85892B8A2B8B2B71F4E881F981A58591
:101A8000B0E020EA36E841E050E00E944D156C8756
:101A90007D878E879F8710922802109227021092CE
:101AA0002A02109229020E94250584E695E090936F
:101AB00052028093510285E695E0909356028093FE
:101AC0005502C3CF2C853D854E855F8560E074E26D
:101AD00084EF90E00E9458152051310941095109C5
:101AE00056954795379527952093B8008E8990E0B5
:101AF0009595879591E0909306028093E40110926A
:101B00002A0210922902A1CFD0912902D13208F0E5
:101B100093C0C091E4010E9499036B017C01809104
:101B20007902811164C082E08093790281E0809320
:101B30007B028FEF8093780210929D02D0939C02DB
:101B4000A6EEB1E0ECE7F2E080E0D8137CC01092A2
:101B50009E0280919E02CC0FC82BC0939E02809162
:101B60007A02813009F073C010927A020E949903C0
:101B70006B017C0180919E028093BB0080912C02BE
:101B800090912D02A0912E02B0912F02892B8A2BC9
:101B90008B2B99F00E94990300912C0210912D0239
:101BA00020912E0230912F026C197D098E099F0918
:101BB0000617170728073907D8F18091BC0083FD65
:101BC000D9CF85EC8093BC000E9499036B017C0106
:101BD000809179028230E9F1809178028F3F61F142
:101BE00080917802803241F18091780225C0809105
:101BF0002C0290912D02A0912E02B0912F02892BE0
:101C00008A2B8B2B09F48BCF0E94990300912C0215
:101C100010912D0220912E0230912F026C197D0916
:101C20008E099F09061717072807390708F077CF8D
:101C300080912B020E94430510922A0210922902E1
:101C40001092060202CF9D9191938F5F7ECF85EE19
:101C5000B9CF80912C0290912D02A0912E02B091CB
:101C60002F02892B8A2B8B2B09F4B2CF0E94990368
:101C700000912C0210912D0220912E0230912F0202
:101C80006C197D098E099F09061717072807390760
:101C900008F09ECFCDCF0F931F93CF93DF93EC012E
:101CA000862F642F8C3208F03AC08A3208F060C068
:101CB000883209F44BC0893209F460C0803408F4DA
:101CC00075C0982F9F73FE01E90FF11D868D8F3F20
:101CD00009F44EC0903108F436C0282F30E0F901E5
:101CE000E255FF4F8491F901E656FF4F0491F90147
:101CF000EA57FF4F1491112379F081110E941103CB
:101D0000E12FF0E0EE0FFF1FE859FF4FA591B491CE
:101D1000EC910E2381E009F480E0898F29C08D3297
:101D200099F108F4CBCF94EB980F923008F0C6CF1E
:101D30008F73C80FD11D8E8D411134C061E00E9498
:101D4000680360E08E8D0E943A0312C08E01025E2D
:101D50001F4FD0E0F80181918F018F3F31F061E09A
:101D6000D03108F062E00E946803DF5FD63191F75E
:101D700081E0DF91CF911F910F91089570E090E085
:101D800080E00E94BE03F4CF85E090E0433010F085
:101D900082E090E0880F991F880F991F059701979F
:101DA000F1F7E6CF62E00E946803E2CF80E0E1CF86
:101DB000CF92DF92EF92FF920F931F93CF93DF9317
:101DC0006C01EB017B01E40EF51E10E000E0CE1586
:101DD000DF0561F06991D601ED91FC910190F081F0
:101DE000E02DC6010995080F191FF1CFC801DF9139
:101DF000CF911F910F91FF90EF90DF90CF900895BA
:101E0000CF92DF92EF92FF920F931F93CF93DF93C6
:101E1000EC016C0124E0C20ED11CFC01E057FF4F25
:101E20000190F081E02DC60109958E3FEFEF9E07EE
:101E3000D8F48E010C561F4FF801408151817E016C
:101E4000F2E9EF0EF11CF701608171819C01C6017E
:101E50000E94950AC059DF4F28812130C1F078F0E7
:101E60002230B9F02330E9F081E090E0DF91CF91AA
:101E70001F910F91FF90EF90DF90CF900895F701A1
:101E800020813181820F931F91838083EDCFF801F0
:101E9000F7CFF70120813181281B390B3183208353
:101EA000E3CFF801F7CF089590E080E00895FB01BB
:101EB00001900020E9F73197AF01461B570BDC0179
:101EC000ED91FC910280F381E02D09948F929F9215
:101ED000AF92BF92EF92FF920F931F93CF93DF9336
:101EE000CDB7DEB7A1970FB6F894DEBF0FBECDBF5A
:101EF0007C01FA01CB0119A2223008F42AE08E01FC
:101F00000F5D1F4F822E912CB12CA12CBF01A5017A
:101F100094010E945815F901CA016A300CF5605D00
:101F2000D8016E938D01232B242B252B79F790E07C
:101F300080E0109721F0BD01C7010E94570FA196C4
:101F40000FB6F894DEBF0FBECDBFDF91CF911F91CA
:101F50000F91FF90EF90BF90AF909F908F9008955A
:101F6000695CDECF85ED8093BC0080912C0290915E
:101F70002D02A0912E02B0912F020796A11DB11D36
:101F800023E0B695A795979587952A95D1F7209147
:101F9000BC0024FD03C010927902089540912C02E8
:101FA00050912D0260912E0270912F02452B462BED
:101FB000472B69F30097A105B10541F02AE22A9564
:101FC000F1F700C00197A109B109E1CF80912B027F
:101FD0000C944305FC01A081B18150962C9182ADF7
:101FE00038E0839FC0011124289FA001299F500D34
:101FF000112470E060E080AD91AD0C949E151F92AD
:102000000F920FB60F9211242F933F938F939F93AC
:10201000AF93BF938091A2039091A303A091A403D7
:10202000B091A5033091A10323E0230F2D3758F57C
:102030000196A11DB11D2093A1038093A20390934B
:10204000A303A093A403B093A5038091A60390914A
:10205000A703A091A803B091A9030196A11DB11DEA
:102060008093A6039093A703A093A803B093A9031A
:10207000BF91AF919F918F913F912F910F900FBE84
:102080000F901F90189526E8230F0296A11DB11DF1
:10209000D2CF1F920F920FB60F9211242F933F931E
:1020A0004F935F936F937F938F939F93AF93BF9360
:1020B000EF93FF938AEA93E00E946F04FF91EF9100
:1020C000BF91AF919F918F917F916F915F914F9150
:1020D0003F912F910F900FBE0F901F9018951F9258
:1020E0000F920FB60F9211242F938F939F93EF931C
:1020F000FF93E091BA03F091BB038081E091C003AC
:10210000F091C10382FD1BC090818091C3038F5F5A
:102110008F732091C403821741F0E091C303F0E074
:10212000E655FC4F958F8093C303FF91EF919F91EC
:102130008F912F910F900FBE0F901F901895808157
:10214000F4CF1F920F920FB60F9211242F933F934B
:102150004F935F936F937F938F939F93AF93BF93AF
:10216000EF93FF938091B900887F803609F44AC0CD
:10217000F0F5883209F4A7C018F5803109F49BC046
:10218000B8F4882309F4F9C0883009F494C0FF91A9
:10219000EF91BF91AF919F918F917F916F915F91DF
:1021A0004F913F912F910F900FBE0F901F90189558
:1021B000883109F488C0803251F78093780214C0C6
:1021C000803409F49DC040F48033B9F38833F9F6C4
:1021D0008093780285ECB0C0803509F485C08835DD
:1021E00009F496C0883499F60E94B20FD0CF88398E
:1021F00009F48CC038F5883729F050F4883611F08E
:10220000803729F683E0809379021092770257C0D5
:10221000883809F47BC0803919F0803809F0B7CFCD
:1022200080917702803208F071C0E091770281E0FE
:102230008E0F809377028091BB00F0E0E95AFD4F4A
:1022400080833DC0803B39F0E0F4803A09F479C0E6
:10225000883A09F09CCF84E080937902109254026E
:1022600010925302E0915102F0915202099580912F
:10227000530281110FC081E080935302109231020A
:1022800009C0803C09F4A6CF883C09F4A3CF883B61
:1022900009F07DCFE091540281E08E0F80935402CB
:1022A000F0E0EF5CFD4F80818093BB009091540281
:1022B0008091530229C080919E028093BB0085ECDF
:1022C0008093BC0064CF90919D0280919C029817EE
:1022D00058F5E0919D0281E08E0F80939D02F0E021
:1022E000E458FD4F8081E9CFE0919D0281E08E0F9F
:1022F00080939D028091BB00F0E0E458FD4F808305
:1023000090919D0280919C029817C8F285E8D8CFE1
:10231000E0919D0281E08E0F80939D028091BB0031
:10232000F0E0E458FD4F808380917B0281115CCF07
:1023300081E080937A0284EA8093BC001092790253
:1023400026CF85EC8093BC001092790280917702B1
:10235000803230F4E0917702F0E0E95AFD4F1082CC
:102360006091770270E0E0915502F091560287E5A6
:1023700092E00995109277020ACF1092780234CF3A
:10238000CF931092AD031092AC0388EE93E0A0E0DF
:10239000B0E08093AE039093AF03A093B003B093EB
:1023A000B10329E631E03093AB032093AA0325EC77
:1023B00030E03093B7032093B60324EC30E0309341
:1023C000B9032093B80320EC30E03093BB03209393
:1023D000BA0321EC30E03093BD032093BC0322EC20
:1023E00030E03093BF032093BE0326EC30E03093FF
:1023F000C1032093C0031092C3031092C403109230
:10240000C5031092C60310924A04109249048093A7
:102410004B0490934C04A0934D04B0934E048BE76F
:1024200091E09093480480934704109256081092CC
:10243000550886E792E09093E4088093E3081092B1
:10244000E6081092E5081092E8081092E70810924A
:102450006F088DE891E09093540880935308109290
:1024600058081092570810926C0810926308109246
:10247000640810926508109266088FEF80936D08CB
:1024800080937108E5E7F8E08BE898E0CFEFC1931F
:102490008E179F07E1F783E796E090935C0880939F
:1024A0005B0888E697E090935E0880935D088AE079
:1024B0009DE09093600880935F088BE49EE090938A
:1024C00062088093610830E020E040E069E087E541
:1024D00098E00E9473061092B2081092B10880E84A
:1024E00092E090938C0880938B0883E594E090931E
:1024F000900880938F0888E080939108109292084A
:102500001092C0081092E0081092DC0881E08093DD
:10251000E1088093E20885E991E090938E0880932A
:102520008D0887E598E00E94E2071092AA081092B1
:10253000A9081092AE081092AD088FEF9FEF90930C
:10254000AC088093AB089093B0088093AF08E091FB
:102550008D08F0918E080280F381E02D87E598E0E8
:1025600009958FEE92E09093B4088093B30810928F
:10257000C308C0938008C0938108C0938208CF919C
:102580000895789484B5826084BD84B5816084BDEB
:1025900085B5826085BD85B5816085BD80916E0001
:1025A000816080936E001092810080918100826032
:1025B000809381008091810081608093810080916F
:1025C00080008160809380008091B100846080935E
:1025D000B1008091B00081608093B00080917A005A
:1025E000846080937A0080917A00826080937A0080
:1025F00080917A00816080937A0080917A0080686F
:1026000080937A001092C100E091BA03F091BB036D
:1026100082E08083E091B603F091B7031082E091ED
:10262000B803F091B90380E180831092C203E09176
:10263000BE03F091BF0386E08083E091BC03F0917C
:10264000BD03808180618083E091BC03F091BD0374
:10265000808188608083E091BC03F091BD0380811C
:1026600080688083E091BC03F091BD0380818F7D01
:102670008083E0915B08F0915C0830E020E040E06E
:102680006AE087E598E009958091E208882321F0C7
:1026900087E598E00E94EA0F80E00E94F20287E559
:1026A00098E00E94AE0CC091920880919108C80FEA
:1026B000E0915708F09158088189C81708F40CC1B7
:1026C00087E598E00E94F30580E00E94F202E09125
:1026D0005B08F0915C0830E020E040E06BE087E5CB
:1026E00098E0099587E598E00E94EA0F8091B1088B
:1026F0009091B208825C904009F0F8C086E792E0C1
:1027000090935A08809359080E94600C87E598E0DE
:102710000E94AE0C87E598E00E94F30560E273E04A
:1027200080E090E00E94BE03EFE9F2E01192119286
:1027300083E0EF39F807D1F710E488248A9433E076
:10274000932EA12CB12C10937C0080917A00806490
:1027500080937A0080917A0086FDFCCFC09178004A
:10276000D09179006E010D2E000CEE08FF082AE0D2
:10277000B701A601F7FE0DC06DE28AEA93E00E9460
:10278000910444275527BA014C195D096E097F0948
:102790002AE08AEA93E00E94660F60EB71E08AEA21
:1027A00093E00E94570F80919F039091A003FC013A
:1027B000EE0FFF1FE156FD4FD183C0830196803895
:1027C00091050CF046C19093A00380939F0387E589
:1027D00098E00E94EA0F8FE9282E82E0382ED0E0A0
:1027E000C0E0F101219131911F01A1ECBFEF0E94E6
:1027F0008915A50194010E942E15BA01A901415C19
:102800005F4F6F4F7F4F2091A5083091A608421768
:102810005307E8F02091A7083091A8084217530702
:10282000B0F48091A1089091A208C817D90778F058
:102830008091A3089091A408C817D90740F400E03C
:1028400021E030E0BE0187E598E00E942109219651
:10285000C038D10531F61092E6081092E5088AE0FA
:1028600090E09093E8088093E70863EB71E083E5DC
:1028700098E00E94570F2AE0B701A601F7FE0DC0AD
:102880006DE283E598E00E94000F44275527BA01C6
:102890004C195D096E097F092AE083E598E00E94E2
:1028A000660F87E598E00E94AE0C87E598E00E94ED
:1028B000F30565E070E080E090E00E94BE03E0E098
:1028C000F0E0EF2B09F43FCF0E945B04882309F46A
:1028D0003ACF0E94000037CF8091E208882321F090
:1028E00087E598E00E94EA0F8C2FD7CEE2ECF0E06B
:1028F000F093B208E093B108E491E093C408E3ECEC
:10290000F0E0E491E093C508E4ECF0E0E491E093BA
:10291000C608E5ECF0E0E491E093C708E6ECF0E0EF
:10292000E491E093C808E7ECF0E0E491E093C90893
:10293000E8ECF0E0E491E093CA08E9ECF0E0E4911F
:10294000E093CB08EAECF0E0E491E093CC08EBEC08
:10295000F0E0E491E093CD08ECECF0E0E491E0935A
:10296000CE08EDECF0E0E491E093CF08EEECF0E07F
:10297000E491E093D008EFECF0E0E491E093D1082B
:10298000E0EDF0E0E491E093D208E1EDF0E0E491D5
:10299000E093D308E2EDF0E0E491E093D40861E144
:1029A00082EC90E00E94890A9093D6088093D50823
:1029B00063E182EC90E00E94890A9093D8088093AA
:1029C000D70865E182EC90E00E94890A9093DA08CA
:1029D0008093D9088091B1089091B208892B09F4AD
:1029E0008DCE8091D1088093DD084091D20840932C
:1029F000DE089091DC08992309F480CE913071F4BF
:102A00009091D308891714F49093DD088091D4082D
:102A100084170CF073CE8093DE0870CE3091CE0810
:102A20002091D008082E000C990B622F022E000C6A
:102A3000770B630F711D37FD7A95861797071CF486
:102A4000320F3093DD0824170CF058CE2093DE08A7
:102A500055CE1092A00310929F03B9CE052E97FB7E
:102A60001EF400940E94451557FD07D00E9458158A
:102A700007FC03D04EF40C944515509540953095C5
:102A800021953F4F4F4F5F4F0895909580957095DA
:102A900061957F4F8F4F9F4F08950E947A15A59F94
:102AA000900DB49F900DA49F800D911D1124089549
:102AB000A1E21A2EAA1BBB1BFD010DC0AA1FBB1F42
:102AC000EE1FFF1FA217B307E407F50720F0A21BB4
:102AD000B30BE40BF50B661F771F881F991F1A9421
:102AE00069F760957095809590959B01AC01BD014B
:102AF000CF010895A29FB001B39FC001A39F700DA5
:102B0000811D1124911DB29F700D811D1124911DF5
:102B100008950E947A15332312F48A1B9B0B0C94A0
:102B200093150E947A15B7FF0895821B930B0895A1
:102B3000EE0FFF1F0590F491E02D0994DC0101C018
:0E2B40006D9341505040E0F70895F894FFCF98
:102B4E001815A015C019FF1815A115C819FF1815CD
:102B5E00AE19FF1815AF19FF1815AE15D51680153D
:102B6E00A8163F15D316001540158D1614152016F0
:102B7E000015A115C815DA1612158116CF15D9161E
:102B8E00F115DB1640152E15A415A619FF0001141C
:102B9E000A6464323200127A00000428961008008B
:102BAE000080004000000000009104F1031E04DECE
:102BBE00044F042D04410400000000BD059005548F
:102BCE000F660589057605670500000000000FD821
:102BDE000E540F530FE2076D08D20745434720549A
:102BEE00657374205374617274696E672E2E2E0095
:102BFE000D0A004543472056616C75653A2000006A
:00000001FF
