:100000000C945D000C9485000C9485000C94850084
:100010000C9485000C9485000C9485000C9485004C
:100020000C9485000C9485000C9485000C9485003C
:100030000C9485000C9485000C9485000C9485002C
:100040000C9417040C9485000C9487040C946104A0
:100050000C9485000C9485000C9485000C9485000C
:100060000C9485000C94850000000008000201003B
:100070000003040700000000000000000000000072
:10008000250028002B0000000000240027002A0083
:10009000040404040404040402020202020203032E
:1000A0000303030301020408102040800102040836
:1000B0001020010204081020B90411241FBECFEF44
:1000C000D8E0DEBFCDBF11E0A0E0B1E0E8E9FCE0A0
:1000D00002C005900D92A632B107D9F721E0A6E241
:1000E000B1E001C01D92A63EB207E1F710E0CDE5F8
:1000F000D0E004C02197FE010E940E06CC35D10746
:10010000C9F70E941A050C944A060C94000090E06E
:10011000FC01EC55FF4F249180579F4FFC018491C7
:10012000882399F090E0880F991FFC01EA57FF4F50
:10013000A591B491FC01E458FF4F859194918FB73C
:10014000F894EC91E22BEC938FBF089590E0FC01C2
:10015000E859FF4F2491FC01EC55FF4F3491FC010D
:10016000E057FF4FE491EE23C9F0222339F023300A
:1001700001F1A8F4213019F1223029F1F0E0EE0F5D
:10018000FF1FE458FF4FA591B4918FB7F894EC91FD
:10019000611126C030953E233C938FBF08952730D0
:1001A000A9F02830C9F0243049F7809180008F7D74
:1001B00003C0809180008F7780938000DFCF84B56B
:1001C0008F7784BDDBCF84B58F7DFBCF8091B0006E
:1001D0008F778093B000D2CF8091B0008F7DF9CF20
:1001E0003E2BDACFCF93DF93EC018091D401909135
:1001F000D501029749F4C130D10509F43BC06CF533
:1002000060E0209709F437C08091D4019091D50126
:10021000049749F4C130D10509F45CC00CF037C033
:10022000209709F442C08091D4019091D50105979F
:1002300009F0E5C0CA30D10508F0E1C0FE01ED5D6E
:10024000FE4F0C940E0682018E019F01B501D00174
:10025000D201D901E501F601FD01C230D105A9F0B5
:1002600060E0C330D10581F68091D8010E94A600DC
:1002700060E006C061E08091D8010E94A60061E0C4
:100280008091DA010E94A600BFCF61E0EDCFC230BD
:10029000D10539F1C330D10509F0C5CF61E08091B6
:1002A000D8010E94A60060E022C061E08091D801E0
:1002B0000E94A60060E08091DA010E94A60061E041
:1002C0008091DC010E94A60060E08091DE010E9426
:1002D000A600A9CF60E08091D8010E94A60061E04D
:1002E000EACF60E08091D8010E94A60061E0809191
:1002F000DA010E94A60060E08091DC010E94A60065
:1003000061E0E3CF60E08091D8010E94A60061E047
:100310008091DA010E94A60061E00BC060E080914C
:10032000D8010E94A60061E08091DA010E94A60037
:1003300060E08091DC010E94A60060E010C060E0F7
:100340008091D8010E94A60061E08091DA010E94AC
:10035000A60060E08091DC010E94A60061E080912F
:10036000DE010E94A60061E015C060E08091D80126
:100370000E94A60061E08091DA010E94A60060E080
:100380008091DC010E94A60061E08091DE010E9464
:10039000A60060E08091E001DF91CF910C94A6006F
:1003A00061E0E4CF61E08091D8010E94A60060E0A6
:1003B000E2CF61E08091D8010E94A60060E08091C8
:1003C000DA010E94A60061E0DBCF61E08091D801F4
:1003D0000E94A60060E08091DA010E94A60061E020
:1003E0008091DC010E94A60060E0CFCF61E08091A7
:1003F000D8010E94A60060E08BCF60E0F8CFDF91CB
:10040000CF9108953FB7F89480912B0190912C01E2
:10041000A0912D01B0912E0126B5A89B05C02F3FBC
:1004200019F00196A11DB11D3FBFBA2FA92F982F1A
:100430008827BC01CD01620F711D811D911D42E015
:10044000660F771F881F991F4A95D1F708958F92DD
:100450009F92AF92BF92CF92DF92EF92FF920E9453
:1004600002024B015C0184EFC82EDD24D394E12C01
:10047000F12C0E940202681979098A099B09683ED9
:10048000734081059105A8F321E0C21AD108E10863
:10049000F10888EE880E83E0981EA11CB11CC114DF
:1004A000D104E104F10429F7FF90EF90DF90CF90A1
:1004B000BF90AF909F908F9008954F925F926F92F0
:1004C0007F928F929F92AF92BF92EF92FF920F9383
:1004D0001F93CF93DF93EC0197FF04C0CC27DD2758
:1004E000C81BD90B181619060CF061C081E090E00A
:1004F0009093CD018093CC0104E010E08AE0E82ED7
:10050000F12C209709F46FC00E9402028090E20152
:100510009090E301A090E401B090E5012B013C0133
:10052000481859086A087B088090CE019090CF0146
:10053000A090D001B090D101481459046A047B0402
:1005400000F36093E2017093E3018093E4019093E0
:10055000E5018091D6019091D7012091CC01309195
:10056000CD012130310559F501969093D701809343
:10057000D6012091D2013091D3018217930721F443
:100580001092D7011092D60121978091D6019091B7
:10059000D7012091D4013091D501B7012530310523
:1005A00009F0B8010E94DB050E94F200AACF892B56
:1005B00009F4A2CF1092CD011092CC019DCF892BCE
:1005C00041F48091D2019091D3019093D70180930F
:1005D000D6018091D6019091D70101979093D701D0
:1005E0008093D601D1CFDF91CF911F910F91FF90D2
:1005F000EF90BF90AF909F908F907F906F905F90A3
:100600004F900895AF92BF92CF92DF92EF92FF92F8
:100610000F931F93CF93DF936C017B018B01040F2A
:10062000151FEB015E01AE18BF08C017D10759F0C6
:100630006991D601ED91FC910190F081E02DC60108
:100640000995892B79F7C501DF91CF911F910F9102
:10065000FF90EF90DF90CF90BF90AF900895FC0196
:10066000538D448D252F30E0842F90E0821B930B17
:10067000541710F0CF96089501970895FC01918DBD
:10068000828D981761F0A28DAE0FBF2FB11D5D96C0
:100690008C91928D9F5F9F73928F90E008958FEF62
:1006A0009FEF0895FC01918D828D981731F0828D16
:1006B000E80FF11D858D90E008958FEF9FEF08956D
:1006C000FC01918D228D892F90E0805C9F4F821BD1
:1006D00091098F73992708958FE291E00E9460033A
:1006E00021E0892B09F420E0822F089580E090E03A
:1006F000892B29F00E946C0381110C94000008954D
:10070000FC01A48DA80FB92FB11DA35ABF4F2C9186
:10071000848D90E001968F739927848FA689B7897D
:100720002C93A089B1898C91837080648C93938D74
:10073000848D981306C00288F389E02D80818F7D17
:1007400080830895EF92FF920F931F93CF93DF93CF
:10075000EC0181E0888F9B8D8C8D98131AC0E889FD
:10076000F989808185FF15C09FB7F894EE89FF89CC
:100770006083E889F98980818370806480839FBF6A
:1007800081E090E0DF91CF911F910F91FF90EF906A
:100790000895F62E0B8D10E00F5F1F4F0F7311277A
:1007A000E02E8C8D8E110CC00FB607FCFACFE889B5
:1007B000F989808185FFF5CFCE010E948003F1CFBA
:1007C000EB8DEC0FFD2FF11DE35AFF4FF0829FB729
:1007D000F8940B8FEA89FB8980818062CFCFCF9319
:1007E000DF93EC01888D8823B9F0AA89BB89E88959
:1007F000F9898C9185FD03C0808186FD0DC00FB6FF
:1008000007FCF7CF8C9185FFF2CF808185FFEDCF7C
:10081000CE010E948003E9CFDF91CF91089542E09D
:1008200050E062E171E08FE291E00C9402031F92CC
:100830000F920FB60F9211242F933F938F939F9394
:10084000AF93BF938091270190912801A091290136
:10085000B0912A013091260123E0230F2D3758F55E
:100860000196A11DB11D209326018093270190932D
:100870002801A0932901B0932A0180912B01909126
:100880002C01A0912D01B0912E010196A11DB11D49
:1008900080932B0190932C01A0932D01B0932E01F6
:1008A000BF91AF919F918F913F912F910F900FBE6C
:1008B0000F901F90189526E8230F0296A11DB11DD9
:1008C000D2CF1F920F920FB60F9211242F933F9306
:1008D0004F935F936F937F938F939F93AF93BF9348
:1008E000EF93FF938FE291E00E948003FF91EF91DD
:1008F000BF91AF919F918F917F916F915F914F9138
:100900003F912F910F900FBE0F901F9018951F923F
:100910000F920FB60F9211242F938F939F93EF9303
:10092000FF93E0913F01F09140018081E09145010A
:10093000F091460182FD1BC09081809148018F5F3C
:100940008F7320914901821741F0E0914801F0E056
:10095000E15DFE4F958F80934801FF91EF919F914C
:100960008F912F910F900FBE0F901F90189580813F
:10097000F4CFCF93DF93EFE2F1E01382128288EE9F
:1009800093E0A0E0B0E084839583A683B78384E0FE
:1009900091E09183808385EC90E09587848784EC57
:1009A00090E09787868780EC90E0918B808B81EC3C
:1009B00090E0938B828B82EC90E0958B848B86EC1D
:1009C00090E0978B868B118E128E138E148ECCEC4A
:1009D000D1E01B861A86198218821E8A1F8A188EF9
:1009E000198E88EC90E09F838E8388E090E09D874D
:1009F0008C8789E090E09F878E878AE090E0998BD2
:100A0000888B8BE090E09B8B8A8B88E00E9487002C
:100A10008E850E94870088890E9487008A890E94AB
:100A200087001D8A1C8A84E090E099878887DF917F
:100A3000CF910895789484B5826084BD84B5816037
:100A400084BD85B5826085BD85B5816085BD809199
:100A50006E00816080936E00109281008091810011
:100A60008260809381008091810081608093810009
:100A7000809180008160809380008091B1008460CB
:100A80008093B1008091B00081608093B00080912C
:100A90007A00846080937A0080917A0082608093EB
:100AA0007A0080917A00816080937A0080917A0048
:100AB000806880937A001092C1002091D201309119
:100AC000D301032E000C440B550B60E077E883E95B
:100AD00093E00E94EF05CA01B9012CE330E040E049
:100AE00050E00E94EF052093CE013093CF01409358
:100AF000D0015093D101E0913F01F091400182E09B
:100B00008083E0913B01F0913C011082E0913D0136
:100B1000F0913E018FEC808310924701E0914301F8
:100B2000F091440186E08083E0914101F09142011F
:100B3000808180618083E0914101F0914201808158
:100B400088608083E0914101F0914201808180685A
:100B50008083E0914101F091420180818F7D80830B
:100B6000C0E0D0E049E050E06CE171E08FE291E05C
:100B70000E9402030E940F0488EC90E00E945D0234
:100B80000E94270240E150E065E171E08FE291E0D0
:100B90000E9402030E940F0488E39FEF0E945D02FF
:100BA0000E9427022097F1F20E946C038823D1F261
:100BB0000E940000D7CF97FB072E16F4009407D0B1
:100BC00077FD09D00E94140607FC05D03EF49095ED
:100BD00081959F4F0895709561957F4F0895052EDB
:100BE00097FB1EF400940E94060657FD07D00E9452
:100BF000280607FC03D04EF40C9406065095409549
:100C0000309521953F4F4F4F5F4F089590958095B8
:100C1000709561957F4F8F4F9F4F0895EE0FFF1F87
:100C20000590F491E02D0994AA1BBB1B51E107C06C
:100C3000AA1FBB1FA617B70710F0A61BB70B881F6C
:100C4000991F5A95A9F780959095BC01CD010895FB
:100C5000A1E21A2EAA1BBB1BFD010DC0AA1FBB1FC0
:100C6000EE1FFF1FA217B307E407F50720F0A21B32
:100C7000B30BE40BF50B661F771F881F991F1A949F
:100C800069F760957095809590959B01AC01BD01C9
:080C9000CF010895F894FFCF95
:100C980000000000A20302032F03EF0360033E03DA
:100CA80052030D0A00636F756E746572636C6F632F
:060CB8006B776973650013
:00000001FF
