:100000000C9453000C947B000C947B000C947B00AC
:100010000C947B000C947B000C947B000C947B0074
:100020000C947B000C947B000C947B000C947B0064
:100030000C947B000C9486060C947B000C947B0043
:100040000C94E4050C947B000C9454060C942E063E
:100050000C947B000C947B000C947B000C947B0034
:100060000C947B000C947B0000000000250028000D
:100070002B0000000000240027002A0004040404D0
:100080000404040402020202020203030303030342
:10009000010204081020408001020408102001021F
:1000A00004081020F10711241FBECFEFD8E0DEBFF7
:1000B000CDBF23E0AEE8B2E001C01D92AF33B2077E
:1000C000E1F712E0A0E0B1E0E6E0FAE102C005905D
:1000D0000D92AE38B107D9F710E0C3E5D0E004C007
:1000E0002197FE010E94090BC235D107C9F70E9472
:1000F00090060C94010D0C940000E9E9F0E02491C5
:10010000E5E8F0E08491882399F090E0880F991F4A
:10011000FC01EE58FF4FA591B491FC01E859FF4F47
:10012000859194918FB7F894EC91E22BEC938FBF6B
:1001300008953FB7F8948091960290919702A0910C
:100140009802B091990226B5A89B05C02F3F19F0DF
:100150000196A11DB11D3FBFBA2FA92F982F882747
:10016000BC01CD01620F711D811D911D42E0660F22
:10017000771F881F991F4A95D1F70895AF92BF92B4
:10018000CF92DF92EF92FF920F931F93CF93DF9363
:100190006C017B018B01040F151FEB015E01AE1892
:1001A000BF08C017D10759F06991D601ED91FC91B4
:1001B0000190F081E02DC6010995892B79F7C501E1
:1001C000DF91CF911F910F91FF90EF90DF90CF9033
:1001D000BF90AF900895FC01538D448D252F30E0E2
:1001E000842F90E0821B930B541710F0CF96089544
:1001F00001970895FC01918D828D981761F0A28D71
:10020000AE0FBF2FB11D5D968C91928D9F5F9F7336
:10021000928F90E008958FEF9FEF08952FB7F89495
:1002200080919A0290919B02A0919C02B0919D02B4
:100230002FBF8093A6029093A702A093A802B09329
:10024000A9028EE992E00E94FA0097FF26C02FB71C
:10025000F89480919A0290919B02A0919C02B09197
:100260009D022FBF4091A6025091A7026091A80263
:100270007091A902841B950BA60BB70B4091A202AB
:100280005091A3026091A4027091A5028417950772
:10029000A607B707B0F28FEF9FEF0895FC01918D8D
:1002A000828D981731F0828DE80FF11D858D90E0D9
:1002B00008958FEF9FEF0895FC01918D228D892F76
:1002C00090E0805C9F4F821B91098F73992708955E
:1002D0008EE992E00E945C0121E0892B09F420E084
:1002E000822F089580E090E0892B29F00E94680118
:1002F00081110C9400000895FC01A48DA80FB92F62
:10030000B11DA35ABF4F2C91848D90E001968F733D
:100310009927848FA689B7892C93A089B1898C915C
:10032000837080648C93938D848D981306C00288AB
:10033000F389E02D80818F7D80830895EF92FF9275
:100340000F931F93CF93DF93EC0181E0888F9B8DF8
:100350008C8D98131AC0E889F989808185FF15C0B2
:100360009FB7F894EE89FF896083E889F9898081D5
:100370008370806480839FBF81E090E0DF91CF91A4
:100380001F910F91FF90EF900895F62E0B8D10E0C6
:100390000F5F1F4F0F731127E02E8C8D8E110CC035
:1003A0000FB607FCFACFE889F989808185FFF5CF80
:1003B000CE010E947C01F1CFEB8DEC0FFD2FF11DE2
:1003C000E35AFF4FF0829FB7F8940B8FEA89FB89BD
:1003D00080818062CFCFCF93DF93EC01888D88231B
:1003E000B9F0AA89BB89E889F9898C9185FD03C098
:1003F000808186FD0DC00FB607FCF7CF8C9185FF7D
:10040000F2CF808185FFEDCFCE010E947C01E9CF44
:10041000DF91CF9108950895CF92DF92EF92FF92EE
:10042000209104013091050140910601509107018E
:1004300080E18093810010928000A0EAB0E00E94E9
:100440007E096B017C0124E130E040E050E00E9435
:10045000E70A2115310581E04807510508F042C03F
:1004600081E08093900230938F0220938E028091DE
:100470008E0290918F0290938700809386008091E6
:100480009002806180938100C0900001D0900101B2
:10049000E0900201F09003010E947D0080918000B5
:1004A000806880938000A0918E02B0918F02A70196
:1004B0009601442755270E947E092AE09695879544
:1004C000779567952A95D1F7709389006093880096
:1004D00080919002806180938100FF90EF90DF9087
:1004E000CF9008952115310588E04807510560F443
:1004F00082E080939002C701B60120EA30E040E03C
:1005000050E00E94E70AAFCF2115310580E448078B
:10051000510550F483E080939002C701B60120E0BA
:1005200035E040E050E0EDCF21153105410581E097
:10053000580750F484E080939002C701B60120E090
:1005400034E140E050E0DDCF85E08093900221155A
:1005500031054105544038F4C701B60120E030E5CB
:1005600040E050E0CECF8FEF9FEF90938F028093CB
:100570008E027DCFFC0101900020E9F73197AF0199
:10058000481B590BBC018EE992E00C94BE008F927F
:100590009F92AF92BF920F931F93CF93DF93CDB7EC
:1005A000DEB7A1970FB6F894DEBF0FBECDBF19A27C
:1005B000423008F44AE08E010F5D1F4F842E912CCB
:1005C000B12CA12CA50194010E94E70AE62FB901E4
:1005D000CA01EA30F4F4E05DD801EE938D01232BDB
:1005E000242B252B79F790E080E0109719F0CD01AE
:1005F0000E94BA02A1960FB6F894DEBF0FBECDBF1F
:10060000DF91CF911F910F91BF90AF909F908F90EE
:100610000895E95CE1CFCF93DF930E94BA02EC0129
:1006200084E291E00E94BA028C0F9D1FDF91CF916E
:100630000895CF93DF93FC014481558160817181DE
:100640008EE992E00E94BE00EC0184E291E00E94FB
:10065000BA028C0F9D1FDF91CF9108954F925F9248
:100660006F927F928F929F92AF92BF92CF92DF92C2
:10067000EF92FF920F931F93CF936B017C01742E27
:10068000AC019B010E94E20A882399F087E291E085
:10069000CF911F910F91FF90EF90DF90CF90BF907F
:1006A000AF909F908F907F906F905F904F900C9441
:1006B000BA0246015701E894B7F82FEF3FEF4FE732
:1006C0005FE7C501B4010E94E20A81110DC02FEF5E
:1006D0003FEF4FE75FE7C501B4010E945A081816C3
:1006E0001CF48BE291E0D4CF2FEF3FEF4FE75FE4B4
:1006F000C701B6010E94DD0A18161CF48FE291E0D2
:10070000C7CF2FEF3FEF4FE75FECC701B6010E9465
:100710005A0887FDF3CF20E030E0A901C701B601F8
:100720000E945A0810E000E087FF0AC06DE28EE9DF
:1007300092E00E949E018C01F7FAF094F7F8F09491
:10074000C0E060E070E080E09FE37C1641F020E0D4
:1007500030E040E251E40E943C0ACF5FF6CFA701AF
:1007600096010E94D0092B013C010E94AE0A4B0168
:100770005C014AE00E94C7027C01E00EF11ECC231E
:10078000C1F1C501B4010E945F089B01AC01C30126
:10079000B2010E94CF094B015C016EE28EE992E04A
:1007A0000E949E01E80EF91EC15018F120E030E0D1
:1007B00040E251E4C501B4010E94C0082B013C0194
:1007C0000E94AE0A4B01B12CA12C4AE0C501B40134
:1007D0000E94C702E80EF91EC501B4010E945F081D
:1007E0009B01AC01C301B2010E94CF094B015C0126
:1007F000DBCFC701CF911F910F91FF90EF90DF905A
:10080000CF90BF90AF909F908F907F906F905F90B0
:100810004F9008950F931F93CF93DF93EC0188813E
:100820009981009759F02A813B812617370730F0CC
:1008300081E0DF91CF911F910F9108958B016F5F40
:100840007F4F0E94340C009759F0998388831B8353
:100850000A832C813D81232B59F7FC011082E8CFBC
:1008600080E0E7CFCF93DF93EC01888199810097F7
:1008700011F00E94AB0B198218821D821C821B8210
:100880001A82DF91CF910895EF92FF920F931F93F9
:10089000CF93DF93EC01198218821B821A821D828A
:1008A0001C828617970719F1FB0100811181011540
:1008B0001105E9F0E480F580B7010E940A04811176
:1008C00009C0CE01DF91CF911F910F91FF90EF9062
:1008D0000C943204FD82EC82B80188819981DF9109
:1008E000CF911F910F91FF90EF900C94FA0CDF9134
:1008F000CF911F910F91FF90EF900895EF92FF928B
:100900000F931F93CF93DF9300D0CDB7DEB78C0149
:10091000FC0111821082138212821582148270E00F
:1009200060E00E940A04811128C0C8010E943204BC
:100930000E940E0197FD2BC08A30910541F18983F9
:100940001A82F801E480F580FFEFEF1AFF0AB70181
:10095000C8010E940A04882359F3F80120813181DB
:1009600084819581BE016F5F7F4F820F931F0E942C
:10097000FA0CF801F582E482DBCFF80115821482CB
:1009800066E271E0808191810E94FA0CD1CFC801AA
:100990000F900F90DF91CF911F910F91FF90EF90EB
:1009A0000895EF92FF920F931F93CF93DF938C01E3
:1009B0007B01FB0101900020E9F73197E61BF70B63
:1009C000D1F0DC011496CD91DC91CE0FDF1FBE017A
:1009D0000E940A048823B9F0F801208131818481C2
:1009E0009581B701820F931F0E94FA0CD8011596CA
:1009F000DC93CE931497C801DF91CF911F910F9193
:100A0000FF90EF900895C8010E943204F4CFFC01DA
:100A100080819181009711F00C94AB0B0895CF93D6
:100A2000DF93CDB7DEB72C970FB6F894DEBF0FBEBD
:100A3000CDBF83E391E00E94BA028EE992E00E946A
:100A40005C01892BD1F3CE0107960E947E04BE0182
:100A5000695F7F4FCE0101960E94440467E571E013
:100A6000CE0101960E94D1040E941903CE01019685
:100A70000E9407058F819885009789F10E941E08C2
:100A8000609308017093090180930A0190930B0110
:100A9000653671058105910530F52AE0660F771FEF
:100AA000881F991F2A95D1F724E630E040E050E0F6
:100AB0000E94E70A20930001309301014093020154
:100AC00050930301CE0107960E9407052C960FB69E
:100AD000F894DEBF0FBECDBFDF91CF91089560E0E7
:100AE00070E0CB01CDCF8BE591E00E940B030E941B
:100AF0000F05E8CFCF93DF93CDB7DEB72C970FB6B6
:100B0000F894DEBF0FBECDBF88E891E00E94BA0224
:100B10008EE992E00E945C01892BD1F3CE01079609
:100B20000E947E04BE01695F7F4FCE0101960E9444
:100B300044046CEA71E0CE0101960E94D1040E9447
:100B40001903CE0101960E9407058F81988520E048
:100B500030E0A901009721F00E941E089B01AC0122
:100B60002093910230939202409393025093940207
:100B7000DA01C9010197A109B10980349244AF405B
:100B8000B105D8F460E472E48FE090E00E94E70AD7
:100B9000209304013093050140930601509307010F
:100BA000CE0107960E9407052C960FB6F894DEBF7B
:100BB0000FBECDBFDF91CF91089581EB91E00E94F0
:100BC0000B030E947A05ECCF1F920F920FB60F9283
:100BD00011242F933F938F939F93AF93BF93809153
:100BE0009A0290919B02A0919C02B0919D0230913B
:100BF000950223E0230F2D3758F50196A11DB11D55
:100C00002093950280939A0290939B02A0939C025A
:100C1000B0939D028091960290919702A0919802C4
:100C2000B09199020196A11DB11D809396029093F7
:100C30009702A0939802B0939902BF91AF919F91B0
:100C40008F913F912F910F900FBE0F901F9018958D
:100C500026E8230F0296A11DB11DD2CF1F920F923D
:100C60000FB60F9211242F933F934F935F936F937F
:100C70007F938F939F93AF93BF93EF93FF938EE9EF
:100C800092E00E947C01FF91EF91BF91AF919F9103
:100C90008F917F916F915F914F913F912F910F9025
:100CA0000FBE0F901F9018951F920F920FB60F92C4
:100CB00011242F938F939F93EF93FF93E091AE02B4
:100CC000F091AF028081E091B402F091B50282FD13
:100CD0001BC090818091B7028F5F8F732091B80203
:100CE000821741F0E091B702F0E0E256FD4F958F98
:100CF0008093B702FF91EF919F918F912F910F9069
:100D00000FBE0F901F9018958081F4CF1F920F9205
:100D10000FB60F9211240F900FBE0F901F901895D1
:100D2000789484B5826084BD84B5816084BD85B5C6
:100D3000826085BD85B5816085BD80916E008160D2
:100D400080936E0010928100809181008260809378
:100D5000810080918100816080938100809180007A
:100D60008160809380008091B10084608093B100A5
:100D70008091B00081608093B00080917A0084609F
:100D800080937A0080917A00826080937A008091CB
:100D90007A00816080937A0080917A0080688093E5
:100DA0007A001092C1000E9499004B015C0188EE0C
:100DB000C82E83E0D82EE12CF12C0E9499006819EE
:100DC00079098A099B09683E734081059105A8F35A
:100DD00021E0C21AD108E108F10888EE880E83E00C
:100DE000981EA11CB11CC114D104E104F10429F71F
:100DF000E091AE02F091AF0282E08083E091AA021E
:100E0000F091AB021082E091AC02F091AD0280E172
:100E100080831092B602E091B202F091B30286E0B4
:100E20008083E091B002F091B10280818061808383
:100E3000E091B002F091B102808188608083E091FE
:100E4000B002F091B102808180688083E091B002AD
:100E5000F091B10280818F7D80838EED91E00E94C0
:100E60000B030E947D000E940C028EED91E00E9417
:100E70000B03C0E0D0E00E947A050E940F0560914C
:100E800008017091090180910A0190910B010E9463
:100E90005F0820E030E048EC52E40E943C0A2B015D
:100EA0003C01609191027091920280919302909125
:100EB00094020E945F086B017C01AC019B01C3019D
:100EC000B2010E943C0A20E034E244E759E40E9467
:100ED000C0084B015C01A301920160E070E080E872
:100EE0009FE30E94CF09A70196010E943C0A20E0DF
:100EF00034E244E759E40E94C0086B017C012DEC08
:100F00003CEC4CE45EE3C501B4010E94DD0A87FDC0
:100F10000AC02DEC3CEC4CE45EE3C701B6010E9434
:100F2000DD0A87FF12C020E030E0A901C701B60149
:100F30000E945A08882349F020E030E0A901C50149
:100F4000B4010E945A08811147C08FE192E00E94CB
:100F50000B0384E392E00E94BA02609191027091C7
:100F6000920280919302909194024AE00E94C702FB
:100F700080E492E00E94BA02609108017091090138
:100F800080910A0190910B014AE00E94C70280E51E
:100F900092E00E94BA0242E0C501B4010E942E0311
:100FA00089E592E00E94BA0242E0C701B6010E94C0
:100FB0002E038BE192E00E940B030E940C020E9420
:100FC0000C02209709F457CF0E946801882309F486
:100FD00052CF0E9400004FCF85E692E00E940B03A3
:100FE000EECFEEE9F2E01382128288EE93E0A0E009
:100FF000B0E084839583A683B78386E191E09183F3
:10100000808385EC90E09587848784EC90E09787D7
:10101000868780EC90E0918B808B81EC90E0938BC5
:10102000828B82EC90E0958B848B86EC90E0978BA2
:10103000868B118E128E138E148E08951F93FC01D1
:1010400099278827BC01E89411911032E9F31930EF
:1010500010F01E30C8F31B3251F01D3249F4689471
:1010600006C00E944508610F711D811D911D1191DF
:1010700010531A30B0F33EF49095809570956195B9
:101080007F4F8F4F9F4F1F910895592F482F372F14
:10109000262F660F771F881F991F660F771F881FDF
:1010A000991F620F731F841F951F660F771F881F7C
:1010B000991F08950E949C0808F481E00895E8941F
:1010C00009C097FB3EF490958095709561957F4F90
:1010D0008F4F9F4F9923A9F0F92F96E9BB2793953E
:1010E000F695879577956795B795F111F8CFFAF44E
:1010F000BB0F11F460FF1BC06F5F7F4F8F4F9F4F7F
:1011000016C0882311F096E911C0772321F09EE8DC
:10111000872F762F05C0662371F096E8862F70E042
:1011200060E02AF09A95660F771F881FDAF7880F1C
:101130009695879597F90895990F0008550FAA0B72
:10114000E0E8FEEF16161706E807F907C0F01216DA
:101150001306E407F50798F0621B730B840B950BDD
:1011600039F40A2661F0232B242B252B21F4089532
:101170000A2609F4A140A6958FEF811D811D0895CF
:101180000E94D3080C9444090E94360938F00E944A
:101190003D0920F0952311F00C942D090C9433098E
:1011A00011240C9478090E94550970F3959FC1F39E
:1011B000950F50E0551F629FF001729FBB27F00D05
:1011C000B11D639FAA27F00DB11DAA1F649F66275A
:1011D000B00DA11D661F829F2227B00DA11D621FA9
:1011E000739FB00DA11D621F839FA00D611D221F63
:1011F000749F3327A00D611D231F849F600D211D47
:10120000822F762F6A2F11249F5750409AF0F1F0C9
:1012100088234AF0EE0FFF1FBB1F661F771F881F32
:1012200091505040A9F79E3F510580F00C942D0934
:101230000C9478095F3FE4F3983ED4F38695779554
:101240006795B795F795E7959F5FC1F7FE2B880FD8
:10125000911D9695879597F9089597F99F6780E86E
:1012600070E060E008959FEF80EC089500240A94F8
:101270001616170618060906089500240A94121671
:101280001306140605060895092E0394000C11F4A4
:10129000882352F0BB0F40F4BF2B11F460FF04C051
:1012A0006F5F7F4F8F4F9F4F089557FD9058440FAA
:1012B000551F59F05F3F71F04795880F97FB991FB5
:1012C00061F09F3F79F08795089512161306140672
:1012D000551FF2CF4695F1DF08C0161617061806FF
:1012E000991FF1CF86957105610508940895E894DA
:1012F000BB2766277727CB0197F908950E94C0097D
:10130000A59F900DB49F900DA49F800D911D112459
:1013100008952F923F924F925F926F927F928F9299
:101320009F92AF92BF92CF92DF92EF92FF920F9374
:101330001F93CF93DF93CDB7DEB7CA1BDB0B0FB67E
:10134000F894DEBF0FBECDBF09942A88398848883B
:101350005F846E847D848C849B84AA84B984C884D1
:10136000DF80EE80FD800C811B81AA81B981CE0FC8
:10137000D11D0FB6F894DEBF0FBECDBFED010895AD
:10138000A29FB001B39FC001A39F700D811D1124C6
:10139000911DB29F700D811D1124911D089550580B
:1013A000BB27AA270E94E7090C9444090E9436092A
:1013B00038F00E943D0920F039F49F3F19F426F4DB
:1013C0000C9433090EF4E095E7FB0C942D09E92FFA
:1013D0000E94550958F3BA176207730784079507E7
:1013E00020F079F4A6F50C9477090EF4E0950B2E15
:1013F000BA2FA02D0B01B90190010C01CA01A00167
:101400001124FF27591B99F0593F50F4503E68F1C1
:101410001A16F040A22F232F342F4427585FF3CF02
:10142000469537952795A795F0405395C9F77EF4D3
:101430001F16BA0B620B730B840BBAF09150A1F01C
:10144000FF0FBB1F661F771F881FC2F70EC0BA0FA2
:10145000621F731F841F48F4879577956795B7952A
:10146000F7959E3F08F0B0CF9395880F08F0992725
:10147000EE0F9795879508950E94500A0C944409A1
:101480000E943D0958F00E94360940F029F45F3F60
:1014900029F00C942D0951110C9478090C943309FE
:1014A0000E94550968F39923B1F3552391F3951BD5
:1014B000550BBB27AA2762177307840738F09F5F75
:1014C0005F4F220F331F441FAA1FA9F335D00E2EE2
:1014D0003AF0E0E832D091505040E695001CCAF74F
:1014E0002BD0FE2F29D0660F771F881FBB1F261712
:1014F00037074807AB07B0E809F0BB0B802DBF01E9
:10150000FF2793585F4F3AF09E3F510578F00C94B7
:101510002D090C9478095F3FE4F3983ED4F3869547
:1015200077956795B795F7959F5FC9F7880F911DD8
:101530009695879597F90895E1E0660F771F881FC4
:10154000BB1F621773078407BA0720F0621B730B77
:10155000840BBA0BEE1F88F7E09508950E945D0991
:1015600088F09F5798F0B92F9927B751B0F0E1F064
:10157000660F771F881F991F1AF0BA95C9F714C014
:10158000B13091F00E947709B1E008950C94770989
:10159000672F782F8827B85F39F0B93FCCF386954D
:1015A00077956795B395D9F73EF4909580957095AA
:1015B00061957F4F8F4F9F4F08950E949C0808F4BC
:1015C0008FEF08950E949C08880B990B0895A1E263
:1015D0001A2EAA1BBB1BFD010DC0AA1FBB1FEE1FAD
:1015E000FF1FA217B307E407F50720F0A21BB30BF8
:1015F000E40BF50B661F771F881F991F1A9469F774
:1016000060957095809590959B01AC01BD01CF01CF
:101610000895EE0FFF1F0590F491E02D09940F93AC
:101620001F93CF93DF938230910510F482E090E016
:10163000E0913D03F0913E0330E020E0B0E0A0E017
:10164000309799F42115310509F44AC0281B390B4C
:1016500024303105D8F58A819B816115710589F1A6
:10166000FB0193838283FE0111C04081518102817D
:10167000138148175907E0F04817590799F4109754
:1016800061F012960C93129713961C933296CF0129
:10169000DF91CF911F910F91089500933D03109317
:1016A0003E03F4CF2115310551F04217530738F0AE
:1016B000A901DB019A01BD01DF01F801C1CFEF01F2
:1016C000F9CF90933E0380933D03CDCFFE01E20F0F
:1016D000F31F819391932250310939832883D7CF07
:1016E00020913B0330913C03232B41F420910E01C8
:1016F00030910F0130933C0320933B0320910C0168
:1017000030910D012115310541F42DB73EB74091BF
:10171000100150911101241B350BE0913B03F09116
:101720003C03E217F307A0F42E1B3F0B28173907E1
:1017300078F0AC014E5F5F4F2417350748F04E0F2D
:101740005F1F50933C0340933B03819391939FCF42
:10175000F0E0E0E09CCFCF93DF930097E9F0FC014D
:10176000329713821282A0913D03B0913E03ED01A6
:1017700030E020E01097A1F420813181820F931F87
:1017800020913B0330913C032817390709F061C0D1
:10179000F0933C03E0933B03DF91CF910895EA017E
:1017A000CE17DF07E8F54A815B819E01411551059F
:1017B000B1F7E901FB83EA8349915991C40FD51F21
:1017C000EC17FD0761F4808191810296840F951FCB
:1017D000E90199838883828193819B838A83F0E0E6
:1017E000E0E012968D919C9113970097B9F52D9199
:1017F0003C911197CD010296820F931F20913B03DC
:1018000030913C032817390739F6309751F510927B
:101810003E0310923D03B0933C03A0933B03BCCF27
:10182000D383C28340815181840F951FC817D90784
:1018300061F44E5F5F4F88819981480F591F518332
:1018400040838A819B81938382832115310509F02E
:10185000B0CFF0933E03E0933D039ECFFD01DC014A
:10186000C0CF13821282D7CFB0E0A0E0EAE3FCE061
:101870000C948B098C01009751F4CB010E940F0B43
:101880008C01C801CDB7DEB7E0E10C94A709FC01DB
:10189000E60FF71F9C0122503109E217F30708F405
:1018A0009DC0D901CD91DC911197C617D70798F04B
:1018B000C530D10530F3CE0104978617970708F39A
:1018C000C61BD70B2297C193D1936D937C93CF0105
:1018D0000E94AB0BD6CF5B01AC1ABD0A4C018C0E3B
:1018E0009D1EA0913D03B0913E03512C412CF12C43
:1018F000E12C109731F580913B0390913C038815C2
:10190000990509F05CC04616570608F058C080914A
:101910000C0190910D01009741F48DB79EB7409155
:10192000100150911101841B950BE817F90708F07D
:1019300055C0F0933C03E0933B03F901718360834E
:10194000A0CF8D919C91119712966C90129713963F
:101950007C901397A815B90559F56C0142E0C40EA7
:10196000D11CCA14DB0420F1AC014A195B09DA016D
:101970001296159780F06282738251834083D90159
:101980006D937C93E114F10471F0D7011396FC93ED
:10199000EE93129776CF22968C0F9D1FF9019183BB
:1019A0008083F301EFCFF0933E03E0933D0369CFD3
:1019B0004816590608F42C017D01D3019ACFCB01BA
:1019C0000E940F0B7C01009749F0AE01B8010E9404
:1019D000F10CC8010E94AB0B870153CF10E000E06F
:1019E00050CFFB01DC0102C001900D9241505040EC
:1019F000D8F70895FB01DC0101900D920020E1F77A
:061A00000895F894FFCFE9
:101A060000020000E80300003200000000003F036F
:101A16008000000000009E01BE00EB00EB015C01AF
:101A2600FA004E010D0A006E616E00696E66006F67
:101A3600766600456E7465722044757479637963C1
:101A46006C65203020746F2031303020202020201B
:101A56005B25205D3A2000202520004475747963BB
:101A660079636C65206973206F7574206F662072C8
:101A7600616E67652120506C6561736520747279AB
:101A860020616761696E2000456E7465722046723A
:101A9600657175656E6379203120746F2031303041
:101AA60030303030205B487A5D3A200020487A207A
:101AB600004672657175656E6379206973206F756E
:101AC60074206F662072616E67652120506C6561B7
:101AD60073652074727920616761696E20005369AD
:101AE600676E616C2067656E657261746F72203116
:101AF600487A2D314D487A2C20302D313030252032
:101B0600647574796379636C652C206D696E2054F5
:101B16006F6E2F546F666620302E32C2B573004F3B
:101B26007574707574207570646174656420746F63
:101B36003A2020004672657175656E63793A200019
:101B4600487A2C20447574796379636C653A200071
:101B5600252C20546F6E3A2000C2B5732C20546F8A
:101B660066663A20004F6E2F4F66662D54696D6586
:101B760020746F6F2073686F72742E20506C6561CD
:0E1B860073652074727920616761696E0000DA
:00000001FF
