:100000000C9458000C9480000C9480000C94800098
:100010000C9480000C9480000C9480000C94800060
:100020000C9480000C9480000C9480000C94800050
:100030000C9480000C9480000C9480000C94800040
:100040000C946E060C9480000C9480000C9480003C
:100050000C9480000C9480000C9480000C94800020
:100060000C94B8060C9480000000000025002800C5
:100070002B00040404040404040402020202020229
:10008000030303030303010204081020408001025C
:1000900004081020010204081020000000080002DB
:1000A0000100000304070000000000000000D70763
:1000B00011241FBECFEFD8E0DEBFCDBF25E0A6E400
:1000C000B4E001C01D92A533B207E1F714E0A0E04F
:1000D000B1E0EEEAF7E102C005900D92A634B10757
:1000E000D9F710E0C8E5D0E004C02197FE010E94D6
:1000F000C709C735D107C9F70E940A080C94D50B68
:100100000C94000090E0FC01E656FF4F2491FC01A6
:10011000EA57FF4F3491FC01EE58FF4FE491EE2374
:10012000C9F0222339F0233001F1A8F4213019F16C
:10013000223029F1F0E0EE0FFF1FE859FF4FA591A3
:10014000B4918FB7F894EC91611126C030953E239D
:100150003C938FBF08952730A9F02830C9F0243090
:1001600049F7809180008F7D03C0809180008F7758
:1001700080938000DFCF84B58F7784BDDBCF84B5DB
:100180008F7DFBCF8091B0008F778093B000D2CF6E
:100190008091B0008F7DF9CF3E2BDACF3FB7F89436
:1001A0008091060590910705A0910805B091090579
:1001B00026B5A89B05C02F3F19F00196A11DB11DC2
:1001C0003FBFBA2FA92F982F8827BC01CD01620FFE
:1001D000711D811D911D42E0660F771F881F991FB9
:1001E0004A95D1F708958F929F92AF92BF92CF9286
:1001F000DF92EF92FF926B017C010E94CE004B01D7
:100200005C01C114D104E104F104B9F00E94CE00F4
:10021000681979098A099B09683E7340810591052F
:1002200080F321E0C21AD108E108F10888EE880EB7
:1002300083E0981EA11CB11CE4CFFF90EF90DF90EB
:10024000CF90BF90AF909F908F900895089508959C
:10025000AF92BF92CF92DF92EF92FF920F931F93D4
:10026000CF93DF936C017B018B01040F151FEB0112
:100270005E01AE18BF08C017D10759F06991D601C9
:10028000ED91FC910190F081E02DC6010995892B3B
:1002900079F7C501DF91CF911F910F91FF90EF90FA
:1002A000DF90CF90BF90AF9008952091AE04260FBD
:1002B0003327331F21323105ECF42091D204FC01A5
:1002C00090E080E0243069F082E00895A091AE04CF
:1002D0002191AC0142575B4FA40FB52FB11D2C9358
:1002E0000196861798F38091AE04680F6093AE0470
:1002F00080E0089581E008951092D20481E0809317
:10030000D4041092D30461E082E10E94820061E093
:1003100083E10E948200E9EBF0E080818E7F8083A0
:1003200080818D7F808388E48093B80085E480930A
:10033000BC000895CF93DF9391E090938D048823C0
:10034000B9F0C091B800D091BA008091BC008A7B0E
:100350008093BC0060E082E10E94820060E083E163
:100360000E9482000E947C01D093BA00C093B80022
:10037000DF91CF9108950895E091FF048091FE04EC
:10038000E81730F4F0E0E859FB4F808190E00895E1
:100390008FEF9FEF08959091FF048091FE042FEF5F
:1003A0003FEF981748F4E92FF0E0E859FB4F208120
:1003B00030E09F5F9093FF04C90108958091FE048F
:1003C0009091FF04891B990B0895CF92DF92EF92D1
:1003D000FF920F931F93CF93DF937C01CB018A0190
:1003E00020916704222389F0EB016B01C40ED51E16
:1003F000CC15DD0569F06991D701ED91FC91019073
:10040000F081E02DC7010995F3CF642F0E945501BB
:10041000C801DF91CF911F910F91FF90EF90DF9076
:10042000CF900895CF93DF931F92CDB7DEB7698346
:10043000209167042223F9F02091FC04203258F027
:1004400021E030E0FC013383228390E080E00F90D4
:10045000DF91CF9108958091FD04E82FF0E0E95BF2
:10046000FB4F998190838F5F8093FD048093FC0400
:1004700081E090E0ECCF61E0CE0101960E94550151
:10048000F7CFCF93DF93F0E0E0E0EB01C40FD51F8F
:100490009881992311F0903320F48E2FDF91CF9122
:1004A000089586EC890F8730C0F385EA890F86307E
:1004B000A0F385E8890F853080F321E030E097FFD5
:1004C00021C0923CE0F022E095FF06C023E094FFBB
:1004D00003C024E093FD25E0DE01119630E0CD015C
:1004E0008C1B9D0B821793076CF48D9190E06894A0
:1004F00015F8959587951694E1F7029781F34F5F6C
:100500005F4FC3CF3196420F531FBFCFCF92DF92C1
:10051000EF92FF920F931F93CF93DF93FC01C4815F
:1005200021E020936704C09346041092FD041092CA
:10053000FC048385682B8AE095E00E941202D0912A
:10054000FC04D13208F092C00E94CE006B017C0105
:100550008091D204811165C082E08093D20481E051
:100560008093D4048FEF8093D1041092F604D0933B
:10057000F504A7E4B4E0E5EDF4E080E0D81385C02D
:100580001092F7048091F704CC0FC82BC093F704A6
:100590008091D304813009F07CC01092D3040E9472
:1005A000CE006B017C018091F7048093BB008091A9
:1005B000890490918A04A0918B04B0918C04892BBA
:1005C0008A2B8B2B99F00E94CE0000918904109108
:1005D0008A0420918B0430918C046C197D098E095A
:1005E0009F090617170728073907E0F18091BC001B
:1005F00083FDD9CF85EC8093BC000E94CE006B01B7
:100600007C018091D204823009F445C08091D104EC
:100610008F3F61F18091D104803241F18091D1040A
:1006200025C08091890490918A04A0918B04B09197
:100630008C04892B8A2B8B2B09F48ACF0E94CE0045
:100640000091890410918A0420918B0430918C04CC
:100650006C197D098E099F090617170728073907A6
:1006600008F076CF809188040E949A011092FD04D0
:100670001092FC0410926704DF91CF911F910F91AB
:10068000FF90EF90DF90CF9008959D9191938F5FB1
:1006900075CF85EEB0CF8091890490918A04A091A6
:1006A0008B04B0918C04892B8A2B8B2B09F4A9CF56
:1006B0000E94CE000091890410918A0420918B043D
:1006C00030918C046C197D098E099F090617170754
:1006D0002807390708F095CFC5CF089590E080E04E
:1006E000089585ED8093BC008091890490918A04DF
:1006F000A0918B04B0918C040796A11DB11D23E03D
:10070000B695A795979587952A95D1F72091BC0026
:1007100024FD03C01092D2040895409189045091A1
:100720008A0460918B0470918C04452B462B472BD7
:1007300069F30097A105B10541F02AE22A95F1F786
:1007400000C00197A109B109E1CF809188040C9400
:100750009A010F931F93CF938C01C62F0E9486029C
:100760006C2F6460C8010E9486026C2F6B7FC801E9
:100770000E94860283EC90E00197F1F7CF911F91E0
:100780000F9108950F931F93CF93DF938C01D62F72
:10079000C42F607F642B0E94A90380E1D89FB00121
:1007A00011246C2BC801DF91CF911F910F910C94F4
:1007B000A9038091270590912805009749F0FC0135
:1007C000108E48E050E06FEF70E007960E94B80B83
:1007D00010922E0510922F058091230580932B05F2
:1007E00040E061E086E195E00E94C2038BE39FE177
:1007F0000197F1F70895CF93DF93CDB7DEB7289730
:100800000FB6F894DEBF0FBECDBF28E0E2E1F1E005
:10081000DE01119601900D922A95E1F7FC012085E9
:10082000241710F44FEF420F50E0440F551F21E002
:1008300030E02C0F3D1F420F531FFA012081620F41
:10084000606840E028960FB6F894DEBF0FBECDBFBB
:10085000DF91CF910C94C203E6E1F5E0108E818D1B
:100860008F5F67890E949309918F8585858B492FBA
:1008700060E0CF010C94FB036F927F928F929F9266
:10088000AF92BF92CF92DF92EF92FF920F931F939E
:10089000CF93DF936C017B016E377105A8F1DC010A
:1008A00054968C9154978617170630F053968C9176
:1008B0008617170679F170F1F601C189D289209760
:1008C00009F4BBC08A8190E030E020E0712C612CFB
:1008D000681679060CF0B1C06B817C81620F731FC2
:1008E000295F3F4FDB014D915C91E416F50611F550
:1008F000188DFE01379680E0181701F19191691665
:1009000009F48EC08F5FF8CF6032710518F4BAE237
:10091000EB2EF12CC701DF91CF911F910F91FF902A
:10092000EF90DF90CF90BF90AF909F908F907F908F
:100930006F900895BFEF6B1A7B0ACACF183008F08A
:1009400072C0F601018D708C81E0810F888F6E017D
:10095000FFE0CF0ED11C6E5F7F4F88E0D6011D9265
:100960008A95E9F75601F60130E020E0A0E8FA2E7A
:10097000DB0143E050E08D918F2190E0022E02C018
:10098000880F991F0A94E2F7042E02C09595879567
:100990000A94E2F79081892B80834F5F5F4F483044
:1009A000510549F7F6942F5F3F4F319628303105B6
:1009B000F9F68D809E80E12EF12CB701E3E0660F01
:1009C000771FEA95E1F7606440E0C4010E94C2032A
:1009D000B8E0CB0ED11CF50161915F01D401ED911E
:1009E000FC910190F081E02DC4010995CA14DB044B
:1009F00091F7FE01EE0DFF1D6782ED81FE81678993
:100A0000061720F0802F0E949309092F708E018F06
:100A10008585858B402F672DCF010E94FB03812F99
:100A2000E82EF12C77CFE881F9810190F081E02D5B
:100A3000B701CE0109958F3F99F7F601268530E081
:100A400090E080E0821793070CF061CFAC01440F77
:100A5000551F480F591FD6011F96ED91FC91E40FC9
:100A6000F51F40815181E416F50621F482818F3F04
:100A7000B9F64DCF0196E6CF41E00E94C20381E076
:100A800090E008952F923F924F925F926F927F92E3
:100A90008F929F92AF92BF92CF92DF92EF92FF928E
:100AA0000F931F93CF93DF93CDB7DEB72E970FB67B
:100AB000F894DEBF0FBECDBF4C017C876B8788EEFC
:100AC00093E0689F2001699F500C789F500C11247F
:100AD000712C612CF12CE12CD12CC12C9E012F5FAB
:100AE0003F4F3A8729875401AE0CBF1CF5010081A6
:100AF000002309F4D9C010E081E007FF3CC0023CAC
:100B000008F475C0D5011196FE01339681E0000FFF
:100B100007FF07C08F5F2D912F7730E0219331932E
:100B2000F6CF10E0E82FF0E0082E02C015950795EB
:100B30000A94E2F71A830983EE0FFF1F21E030E0E9
:100B40002C0F3D1FE20FF31F50E040E010E000E0EB
:100B500032912291042E02C0220F331F0A94E2F731
:100B600031832083020F131F4A5F5F4F29853A8527
:100B70002E173F0769F790913005E82FF0E0FE87C8
:100B8000ED87992309F444C030902E0580912B0500
:100B90008315F0F520902C059801A701B40186E19A
:100BA00095E00E944102882331F0281620F58FEF4E
:100BB000820D80932B0580912B05821548F1809141
:100BC0002F0590E0019660912D0570E00E949F092D
:100BD000892BA1F00E942C0400321105C9F48D85E7
:100BE0009E85E80EF91E9FEFC91AD90A7CCF81E0D5
:100BF00010E000E0C0CF3A94830DDBCF2B853C851D
:100C0000232B21F0C301B2010E94F3000E94D903FB
:100C100090912E0580912C05981708F7B80186E170
:100C200095E00E943C048C01682F86E195E00F3F1F
:100C3000110509F028F50E943C0580912E058F5F73
:100C400080932E0590912C058913C9CFED85FE85E3
:100C5000EA0DFB1D8081882311F2809130058823E5
:100C600009F4BDCF80912F0590E0019660912D058C
:100C700070E00E949F09892B81F00E942C04AFCF65
:100C80000E943C05612F86E195E00E943C05809121
:100C90002E058F5F80932E05D0CFC301B2010E9435
:100CA000F3000E94D9039BCFC6012E960FB6F8948D
:100CB000DEBF0FBECDBFDF91CF911F910F91FF908F
:100CC000EF90DF90CF90BF90AF909F908F907F90EC
:100CD0006F905F904F903F902F9008951F920F92CA
:100CE0000FB60F9211242F933F938F939F93AF933F
:100CF000BF938091020590910305A0910405B091E6
:100D000005053091010523E0230F2D3758F5019695
:100D1000A11DB11D20930105809302059093030549
:100D2000A0930405B09305058091060590910705F1
:100D3000A0910805B09109050196A11DB11D8093F0
:100D4000060590930705A0930805B0930905BF9188
:100D5000AF919F918F913F912F910F900FBE0F9068
:100D60001F90189526E8230F0296A11DB11DD2CF22
:100D70001F920F920FB60F9211242F933F934F9310
:100D80005F936F937F938F939F93AF93BF93EF93F3
:100D9000FF938091B900887F803609F44AC0F0F54E
:100DA000883209F4A7C018F5803109F49BC0B8F463
:100DB000882309F4F9C0883009F494C0FF91EF91B9
:100DC000BF91AF919F918F917F916F915F914F9163
:100DD0003F912F910F900FBE0F901F901895883163
:100DE00009F488C0803251F78093D10414C0803454
:100DF00009F49DC040F48033B9F38833F9F6809349
:100E0000D10485ECB0C0803509F485C0883509F47B
:100E100096C0883499F60E947103D0CF883909F4BE
:100E20008CC038F5883729F050F4883611F08037B7
:100E300029F683E08093D2041092D00457C08838FA
:100E400009F47BC0803919F0803809F0B7CF809160
:100E5000D004803208F071C0E091D00481E08E0FA0
:100E60008093D0048091BB00F0E0E055FB4F80837D
:100E70003DC0803B39F0E0F4803A09F479C0883A0B
:100E800009F09CCF84E08093D2041092AF041092BA
:100E9000AE04E091FA04F091FB0409958091AE0450
:100EA00081110FC081E08093AE0410928E0409C0BE
:100EB000803C09F4A6CF883C09F4A3CF883B09F015
:100EC0007DCFE091AF0481E08E0F8093AF04F0E01E
:100ED000E257FB4F80818093BB009091AF048091DB
:100EE000AE0429C08091F7048093BB0085EC809309
:100EF000BC0064CF9091F6048091F504981758F5E2
:100F0000E091F60481E08E0F8093F604F0E0EB525E
:100F1000FB4F8081E9CFE091F60481E08E0F809352
:100F2000F6048091BB00F0E0EB52FB4F8083909180
:100F3000F6048091F5049817C8F285E8D8CFE091BF
:100F4000F60481E08E0F8093F6048091BB00F0E000
:100F5000EB52FB4F80838091D40481115CCF81E000
:100F60008093D30484EA8093BC001092D20426CFED
:100F700085EC8093BC001092D2048091D004803222
:100F800030F4E091D004F0E0E055FB4F1082609126
:100F9000D00470E0E091F804F091F90480EB94E063
:100FA00009951092D0040ACF1092D10434CFEAE010
:100FB000F5E01382128288EE93E0A0E0B0E0848333
:100FC0009583A683B7838EE191E091838083E6E1E8
:100FD000F5E01382128287E2848394E1918784E0B2
:100FE00082871386128A118A138A148A158A968B2D
:100FF000878B108E118E91E0928F20E331E0318348
:101000002083868780E091E0908B87878AE08487C1
:1010100085870895CF93DF93CDB7DEB7789484B5F5
:10102000826084BD84B5816084BD85B5826085BDE4
:1010300085B5816085BD80916E00816080936E0072
:101040001092810080918100826080938100809164
:101050008100816080938100809180008160809315
:1010600080008091B10084608093B1008091B000D5
:1010700081608093B00080917A00846080937A00D0
:1010800080917A00826080937A0080917A008160FA
:1010900080937A0080917A00806880937A00109221
:1010A000C10080910005811119C01092FF041092B7
:1010B000FE041092FD041092FC040E947C0186E262
:1010C00091E09093FB048093FA0487E291E090937F
:1010D000F9048093F80481E08093000510921B05C9
:1010E00080912005823018F098E090931B05809342
:1010F0001E0562E370E080E090E00E94F3006091E2
:10110000210586E195E00E94860268EE73E080E0AA
:1011100090E00E94F30060E386E195E00E94A9035D
:101120000BE416E4C8010197F1F760E386E195E06E
:101130000E94A903C8010197F1F760E386E195E0F9
:101140000E94A90383E592E00197F1F760E286E14E
:1011500095E00E94A90360911B05606240E086E172
:1011600095E00E94C20384E080931C0540E06CE09F
:1011700086E195E00E94C20340E061E086E195E0EF
:101180000E94C2030BE31FE1C8010197F1F782E05F
:1011900080931D0540E066E086E195E00E94C20371
:1011A00040E062E086E195E00E94C203C801019739
:1011B000F1F788E08093210560E086E195E00E94E8
:1011C000860263E070E08CE391E00E9442050E9499
:1011D0002C0461E170E090E080E00E94F20A7C0162
:1011E00010E000E0009741F0FC01108266E174E03D
:1011F0000E94BF0B00E110E0ADB6BEB6C80101967B
:101200002DB73EB7281B390B0FB6F8943EBF0FBE63
:101210002DBF8DB79EB701966C010115110509F020
:1012200042C0EDB7FEB7118270E060E0C6010E94D7
:1012300042050FB6F894BEBE0FBEADBEE114F10478
:1012400019F0C7010E94690A60912D0592E0633090
:1012500018F482E00E94930988E080932E05909311
:101260002F058091230580932B05492F68E086E1A7
:1012700095E00E94FB0370E060E087E294E00E944A
:1012800042050E942C0470E060E080E394E00E943C
:1012900042050E942C0400E010E001151105E9F35D
:1012A0000E940000FACFA801B7010E94C60BF60108
:1012B000E00FF11F1082B8CF2F923F924F925F92B2
:1012C0006F927F928F929F92AF92BF92CF92DF9256
:1012D000EF92FF920F931F93CF93DF93CDB7DEB7BB
:1012E000CA1BDB0B0FB6F894DEBF0FBECDBF09944F
:1012F0002A88398848885F846E847D848C849B84A6
:10130000AA84B984C884DF80EE80FD800C811B81B3
:10131000AA81B981CE0FD11D0FB6F894DEBF0FBEE2
:10132000CDBFED010895991B79E004C0991F961770
:1013300008F0961B881F7A95C9F78095089597FB4A
:10134000072E16F4009407D077FD09D00E94B30948
:1013500007FC05D03EF4909581959F4F08957095B8
:1013600061957F4F0895AA1BBB1B51E107C0AA1FBF
:10137000BB1FA617B70710F0A61BB70B881F991F36
:101380005A95A9F780959095BC01CD010895EE0F6F
:10139000FF1F0590F491E02D09940F931F93CF93B5
:1013A000DF938230910510F482E090E0E091330504
:1013B000F091340530E020E0B0E0A0E0309799F4FF
:1013C0002115310509F44AC0281B390B2430310599
:1013D000D8F58A819B816115710589F1FB019383A1
:1013E0008283FE0111C0408151810281138148171F
:1013F0005907E0F04817590799F4109761F01296D1
:101400000C93129713961C933296CF01DF91CF91D4
:101410001F910F9108950093330510933405F4CF75
:101420002115310551F04217530738F0A901DB01AE
:101430009A01BD01DF01F801C1CFEF01F9CF90930F
:10144000340580933305CDCFFE01E20FF31F819366
:1014500091932250310939832883D7CF20913105C8
:1014600030913205232B41F420910E0130910F0170
:10147000309332052093310520910C0130910D01FC
:101480002115310541F42DB73EB74091100150911F
:101490001101241B350BE0913105F0913205E21763
:1014A000F307A0F42E1B3F0B2817390778F0AC0187
:1014B0004E5F5F4F2417350748F04E0F5F1F509364
:1014C000320540933105819391939FCFF0E0E0E0A6
:1014D0009CCFCF93DF930097E9F0FC013297138202
:1014E0001282A0913305B0913405ED0130E020E087
:1014F0001097A1F420813181820F931F2091310533
:10150000309132052817390709F061C0F093320590
:10151000E0933105DF91CF910895EA01CE17DF07FF
:10152000E8F54A815B819E0141155105B1F7E9015A
:10153000FB83EA8349915991C40FD51FEC17FD072E
:1015400061F4808191810296840F951FE90199834E
:101550008883828193819B838A83F0E0E0E0129606
:101560008D919C9113970097B9F52D913C9111970E
:10157000CD010296820F931F2091310530913205E3
:101580002817390739F6309751F510923405109223
:101590003305B0933205A0933105BCCFD383C2830A
:1015A00040815181840F951FC817D90761F44E5FA0
:1015B0005F4F88819981480F591F518340838A81E9
:1015C0009B81938382832115310509F0B0CFF0937D
:1015D0003405E09333059ECFFD01DC01C0CF1382BB
:1015E0001282D7CFB0E0A0E0E8EFFAE00C945E09F9
:1015F0008C01009751F4CB010E94CD098C01C801E8
:10160000CDB7DEB7E0E10C947A09FC01E60FF71FD5
:101610009C0122503109E217F30708F49DC0D9015B
:10162000CD91DC911197C617D70798F0C530D10539
:1016300030F3CE0104978617970708F3C61BD70B24
:101640002297C193D1936D937C93CF010E94690A35
:10165000D6CF5B01AC1ABD0A4C018C0E9D1EA09129
:101660003305B0913405512C412CF12CE12C10970D
:1016700031F580913105909132058815990509F071
:101680005CC04616570608F058C080910C01909136
:101690000D01009741F48DB79EB740911001509114
:1016A0001101841B950BE817F90708F055C0F0935A
:1016B0003205E0933105F90171836083A0CF8D91EC
:1016C0009C91119712966C90129713967C90139799
:1016D000A815B90559F56C0142E0C40ED11CCA1415
:1016E000DB0420F1AC014A195B09DA011296159767
:1016F00080F06282738251834083D9016D937C9321
:10170000E114F10471F0D7011396FC93EE93129754
:1017100076CF22968C0F9D1FF90191838083F30170
:10172000EFCFF0933405E093330569CF481659069F
:1017300008F42C017D01D3019ACFCB010E94CD0981
:101740007C01009749F0AE01B8010E94AF0BC801BF
:101750000E94690A870153CF10E000E050CFFB01DF
:10176000DC0102C001900D9241505040D8F708951D
:10177000DC0101C06D9341505040E0F70895FB013A
:10178000DC0101900D920020E1F70895FB01DC01DE
:101790004150504048F001900D920020C9F701C01F
:0E17A0001D9241505040E0F70895F894FFCF9D
:1017AE00A5005C92217E90217FF700FD000035059B
:1017BE0080000000400014005400000000001202DF
:1017CE00E5016E03BB01DE01CB01BC010000000090
:1017DE003C0528016E036D033C04410245726E65A3
:1017EE007374204D696C6C65722048656D696E6707
:1017FE007761792077617320626F726E20696E2037
:10180E004368696361676F20696E2031383939200A
:10181E0061732074686520736F6E206F662061207F
:10182E00646F63746F7220616E64207468652073D8
:10183E0065636F6E64206F662073697820636869D4
:10184E006C6472656E2E2041667465722061207321
:10185E0074696E7420617320616E20616D62756CA7
:10186E00616E63652064726976657220617420749E
:10187E006865204974616C69616E2066726F6E7462
:10188E002C2048656D696E677761792063616D659F
:10189E0020686F6D6520746F20416D65726963619C
:1018AE0020696E20313931392C206F6E6C7920749D
:1018BE006F2072657475726E20746F207468652067
:1018CE00626174746C656669656C64202D20746841
:1018DE0069732074696D6520617320612072657073
:1018EE006F72746572206F6E207468652047726522
:1018FE00636F2D5475726B69736820776172202D3A
:10190E0020696E20313932322E2052657369676E2E
:10191E00696E672066726F6D206A6F75726E616C8C
:10192E0069736D20746F20666F637573206F6E2000
:10193E006869732077726974696E6720696E737453
:10194E006561642C206865206D6F76656420746F08
:10195E002050617269732077686572652068652012
:10196E0072656E6577656420686973206561726C57
:10197E0069657220667269656E6473686970207736
:10198E006974682066656C6C6F7720416D6572694D
:10199E0063616E206578706174726961746573201D
:1019AE007375636820617320457A726120506F757C
:1019BE006E6420616E642047657274727564652072
:1019CE00537465696E2E205468726F756768207443
:1019DE0068652079656172732C2048656D696E6744
:1019EE007761792074726176656C6C6564207769B5
:1019FE0064656C7920616E642077726F7465206106
:101A0E007669646C792C206265636F6D696E6720F0
:101A1E00616E20696E7465726E6174696F6E616C51
:101A2E006C79207265636F676E697A6564206C6984
:101A3E00746572617279206D6173746572206F6660
:101A4E00206869732063726166742E204865207267
:101A5E006563656976656420746865204E6F62659E
:101A6E006C205072697A6520666F72204C697465BD
:101A7E0072617475726520696E20313935342C208F
:101A8E00666F6C6C6F77696E672074686520707511
:101A9E00626C69636174696F6E206F66205468654D
:101AAE00204F6C64204D616E20616E6420746865F9
:101ABE00205365612E004865206469656420696E57
:101ACE0020313936312E00E28690C3B7E28692007D
:101ADE002868747470733A2F2F616D617A6F6E2E51
:061AEE00636F6D2900008A
:00000001FF
